:020000040800F2
:10000000E00D002049020008711B000819170008C4
:100010006D1B00084B130008772500080000000046
:10002000000000000000000000000000C91E0008E1
:100030004F130008000000007D1D00081F2000086D
:1000400063020008630200086302000863020008FC
:1000500063020008630200086302000863020008EC
:1000600063020008630200086302000863020008DC
:1000700063020008630200086302000863020008CC
:1000800063020008630200086302000863020008BC
:1000900063020008630200086302000863020008AC
:1000A000630200086302000863020008630200089C
:1000B0006302000889200008630200086302000848
:1000C000630200086302000863020008630200087C
:1000D0006302000885220008630200082523000847
:1000E000630200086302000863020008630200085C
:1000F000630200086302000863020008630200084C
:10010000630200086302000863020008630200083B
:10011000630200086302000863020008630200082B
:10012000630200086302000863020008630200081B
:10013000630200086302000863020008630200080B
:1001400063020008630200086302000863020008FB
:1001500063020008630200086302000863020008EB
:1001600063020008630200086302000863020008DB
:1001700063020008630200086302000863020008CB
:10018000630200086302000800F002F800F04CF877
:100190000AA090E8000C82448344AAF10107DA45E2
:1001A00001D100F041F8AFF2090EBAE80F0013F0E8
:1001B000010F18BFFB1A43F001031847E442000087
:1001C00004430000103A24BF78C878C1FAD8520717
:1001D00024BF30C830C144BF04680C6070470000C1
:1001E0000023002400250026103A28BF78C1FBD840
:1001F000520728BF30C148BF0B607047662903F023
:10020000AF82642900F04E80002070471FB503F0D4
:10021000A2FA00F05BFB04000020002103F022F8AA
:10022000E0601FBD10B510BD00F068FC1146FFF77F
:10023000EDFF02F051FA00F086FC03B4FFF7F2FF85
:1002400003BC02F0B2F900000948804709480047A2
:10025000FEE7FEE7FEE7FEE7FEE7FEE7FEE7FEE776
:10026000FEE7FEE704480549054A064B70470000D3
:100270002120000889010008E0070020E00D00208F
:10028000E0090020E0090020704700000FB4044995
:1002900010B503AA029800F007FB10BC5DF814FB30
:1002A000200000202DE9F041064600241068752941
:1002B000314616A510D0AFF30080002802DA404284
:1002C00013A507E031688A0701D512A502E04907A6
:1002D00004D511A5012401E0AFF3008000210A221A
:1002E00006F1240709E0B0FBF2FCB0FBF2F302FBDD
:1002F0001C00303078541846491C0028F3D123469E
:100300002A463046BDE8F04100F068B80000000021
:100310002D0000002B000000200000002DE9F0411E
:100320000F460546002028622846E968884770B3D2
:10033000252805D0D5E901219047286A401CF2E71D
:10034000E9682846002688476C2804460AD0682CAD
:1003500008D04C2C35D06A2C31D0742C31D07A2C6A
:100360002FD016E0E968064628468847B042044682
:1003700008D16C2E23D04FF480662846E968884760
:10038000044606E06C2E03D04FF4807601E01EE0B8
:100390004026E4B1A4F14100192802D8203446F4E3
:1003A00000663A46214628462E60FFF727FF60B1D7
:1003B000012808D0FF1D27F007070837B4E780267B
:1003C000DBE70026D9E73F1DAEE72046B2E7286A03
:1003D000BDE8F08170477047704770472DE9F047DE
:1003E0000D4699469246044600F1240801688806A5
:1003F00004D5E06921F01001216000E00120A8424D
:1004000001DD471B00E00027A1697A1902EB090012
:10041000081AA0612078C00602D42046AFF30080FD
:10042000002608E0D4E901211AF806009047206A66
:10043000401C761C20624E45F4DB2078C0060AD5AD
:100440002046AFF3008006E0D4E901213020904738
:10045000206A401C2062381EA7F10107F4DC07E087
:10046000D4E9012118F805009047206A401C206259
:10047000281EA5F10105F3DC2046AFF300802078AB
:10048000000602D50220BDE8F0870120FBE7704797
:100490002DE9FF4F0C461E464FF0FF378BB0D2E9D7
:1004A0000001DDF860800A908A46C1F30A5505B95B
:1004B0003D46002108464FF00000BAF1000F00F45D
:1004C000400005DA00EB80004FF4400101EA5000E3
:1004D0004FEA9059B9F1010F00DDB9460A9850EA88
:1004E0004A000ED044F61050A5F2FF3545432F14B4
:1004F000B8F1000F1ED07542291E1EDDC9F10002A1
:100500001CE0B8F1010F4FF0000001D0302103E0F2
:10051000F24305E02154401CB042FBDB3046002290
:10052000002121540B99C1F80880C1E900200FB0C7
:10053000BDE8F08FBD1B6D1CDEE74A4600DA69425C
:1005400006A800F065FA06AB93E8070003AB83E862
:10055000070050460A9900F03DFB8DE80700A0F522
:1005600000501F3800900398002D09DD42F21F0152
:100570004A46084403A90390684600F09CFD08E041
:10058000A0F500504A461F3803A90390684600F0C2
:10059000A6FD8DE807000004000C03D04FF0FF30EB
:1005A000410800E01046B8F1000F03D0002200928D
:1005B00015461EE0751E05D400F08CF930326255E8
:1005C0006D1EF9D5B3460122084302D000227F1CDC
:1005D00004E02078302801D100227F1E002A0997EC
:1005E00086D01DE0112D07DA00F074F93032625523
:1005F0006D1C50EA0102F5D1084302D00098C8B141
:100600000EE00021681E05E0235C625C6354225406
:10061000401E491C8142F7DBAB46A81B401E0990D7
:10062000002004F80B000B98099AC0F80880C0E974
:10063000002B7CE711264FF0000859E72DE9F04F19
:1006400088460446D21D22F0070191B0D1E900018D
:10065000CDE90A0101F091FF02460B98C00F01D0CD
:100660002D2007E02068810701D52B2002E0202102
:1006700001EAC000032A099001D0072A05DB0346DE
:100680004146204600F084F90BE12078800601D530
:10069000E06900E00620B8F1650F814606D0B8F1A8
:1006A000660F18D0B8F1670F70D131E00020B9F1B2
:1006B000110F009001DB112301E009F101030AAAE7
:1006C00001A90CA8FFF7E4FEDDE90C70002609F192
:1006D0000105834647E001204B4600904FF000475C
:1006E0000AAA01A90CA8FFF7D3FEDDE90DB00C9909
:1006F0005D46002610B909F101000D18B9EB05009F
:1007000003D4C0F1FF3609F10105A5EB09002BE088
:10071000B9F1010F01DA4FF001090020B9F1110F11
:100720000090484601DD112300E003460AAA01A912
:100730000CA8FFF7ADFEDDE90C704D4600268346A0
:10074000207800070AD4AB4500DA5D4601A8012DE8
:1007500004DD411911F8011C302907D04F4502DA98
:1007600017F1040F04DA012082460FE06D1EEEE758
:10077000002F02DCED1B3E4403E0781CA84200DDA4
:100780007D1CB81B00F1010A4FF0004720780007DC
:1007900003D4AA4501DB4FF0FF3A0021B7F1004F27
:1007A0000DF143088DF8431024D002202B23002F95
:1007B00001DA7F422D230A21021EA0F1010000DC94
:1007C0005FB197FBF1FC97FBF1F201FB1C7C174634
:1007D0000CF1300C08F801CDEEE7A8F10100037030
:1007E0002188090501D5452100E06521A0F1010816
:1007F00000F8011C09980FA9A1EB0807FF1D00B123
:100800000120411901EBEA70A1693844081A401E21
:10081000A0612078C00602D42046AFF3008009987A
:1008200028B1D4E901219047206A401C2062207839
:10083000C00622D52046AFF300801EE0002E04DB68
:10084000B34502DD01A8805D00E03020D4E901213C
:100850009047206A401C2062761CAAF101005FEAE2
:10086000000A0AD100F032F8C0680168405CD4E99F
:1008700001219047206A401C2062281EA5F1010535
:10088000DCDC07E0D4E9012118F8010B9047206A6D
:10089000401C2062381EA7F10107F3DC2046AFF3AD
:1008A0000080032011B043E6074B70B50D467B4432
:1008B00000F05BF80446284600F018F910B14FF03C
:1008C000FF3070BD204670BD0B1E00000048704711
:1008D000A007002030B5B0F10A024FEA900E71F186
:1008E00000034EEA817EB0EB0E0061EB91014FEA0E
:1008F000101E4EEA017E10EB0E0041EB11114FEA83
:10090000102E4EEA016E10EB0E0041EB11214FEA62
:10091000104E4EEA014E10EB0E0041EB1141401813
:1009200041F100014FEAD00040EA41704FEAD101A5
:1009300010EB80054FEA810444EA907444EB010413
:100940006D1944EB0404521BA3414FF0000348BF50
:100950000A3200D530BD401C41F1000130BD00001D
:1009600001694A1C02610878704700B58FB0CDE973
:1009700001310021059105497944CDE90310114663
:100980006846FFF7CBFC0FB000BD0000E5FFFFFF9E
:100990002DE9F0411F46044603260168072A01F4A9
:1009A000006004DB08B116A505E016A503E008B158
:1009B00015A500E015A521F010002060A069C01E5B
:1009C000A0610FB1401EA0612046AFF300804FB17F
:1009D000D4E9012138469047206A401C2062C01C9F
:1009E000206206E0206AFAE7D4E9012115F8010B3C
:1009F0009047761EF8D22046AFF30080BDE8F08124
:100A00004E414E006E616E00494E4600696E6600B2
:100A10002DE9F047814616468AB0334878440DC820
:100A20008DE80D0030487844801C03AC0DC884E884
:100A30000D0041F69B300844372190FBF1F290FB0A
:100A4000F1F5A5F1800501FB12041B3C02D56442BF
:100A5000012000E00020DFF890A080460027FA4443
:100A6000AAF1BE0A0DE0E00709D03246684607EB5E
:100A700047010AEB810100F032FB8DE807006410AA
:100A80007F1C002CEFD1184F7F44AC3F18E0E807E3
:100A900014D007EB04100DF1180A90E80E008AE854
:100AA0000E00C068F04201D198190890324606A99C
:100AB00003A800F014FB03AB83E807006D10641C6F
:100AC000002DE4D132466946B8F1000F03A802D0E8
:100AD00000F0F1FA01E000F002FBC9E90001C9F8F9
:100AE00008200AB0BDE8F087D8390000007B00F08C
:100AF0008000704700487047800700207546FFF768
:100B0000F9FFAE4605006946534620F007008546CA
:100B100018B020B5FFF7A6FBBDE820404FF0000657
:100B20004FF000074FF000084FF0000B21F00701D5
:100B3000AC46ACE8C009ACE8C009ACE8C009ACE818
:100B4000C0098D4670470446AFF300802046FFF78A
:100B500074FB00004FF0013C50F8042B51F8043BAB
:100B60009A4221D1A2EB0C03934313EACC1317D181
:100B700050F8042B51F8043B9A4215D1A2EB0C0318
:100B8000934313EACC130BD150F8042B51F8043BD8
:100B90009A4209D1A2EB0C03934313EACC13DBD0A6
:100BA0004FF00000704700BFD01A01BAB1FA81F1CE
:100BB00001F0180122FA01F0CB40C1F12001DBB2B3
:100BC000C0B2C01A2CFA01F3D11A914311EAC31131
:100BD000E6D170475FEA400C08BF91F0000F4FEA82
:100BE0008C234FEAC12243EA51514FEA1C5018BFEF
:100BF00000F5F0404FEA300018BF41F000415FEAD5
:100C00006C5C00F02980BCF1FF3F08BF40F08040E1
:100C10007047130C06BF12044FF0100C4FF0000C7D
:100C2000130E04BF12020CF1080C130F04BF1201C3
:100C30000CF1040C930F04BF92000CF1020CD30FC3
:100C400004BF52000CF1010C11464FF00002A0F15C
:100C50001F00A0EB0C00704711F0004F08BF704759
:100C600031F000413FF4D5AF0B0C06BF09044FF043
:100C7000100C4FF0000C0B0E04BF09020CF1080C15
:100C80000B0F04BF09010CF1040C8B0F04BF89008A
:100C90000CF1020CCB0F04BF49000CF1010CCCF19C
:100CA0002003A0EB0C0022FA03F302FA0CF241EA53
:100CB000030100F10100704720F07F4C80EA03003F
:100CC00023F07F47ACEB070303F57C5300F00040B3
:100CD00003F1FF032DE980494FEA154B09B44FEAB0
:100CE000144325EA0B4E24EA03480FF2042606EBD0
:100CF000132749083E785FEA320203FB0667C7F50F
:100D0000000707FB06F64FEA54374FEAD64606F1CE
:100D1000020607FB066CCCF1005C4FEA1C472CEA8C
:100D2000074C07FB06F40CFB06F504EB15464FEAEF
:100D3000961634BF00204FF000404FEAD13706FB33
:100D400007FC4FEA1C4C0CFB0BF7D21B03FB0CF708
:100D500061EB07010CFB0EF7B0EB074072EB17429B
:100D60000CFB08F734BFA2EB0742B2EB074261EB82
:100D700017414FEA0C444FEA910706FB07FC4FEA84
:100D80001C4C0CFB0BF7B0EBC74072EB573203FB6C
:100D90000CF734BFA2EBC742B2EBC74261EB57314D
:100DA0000CFB0EF7B0EBC70072EB57720CFB08F7A9
:100DB00034BFA2EBC702B2EBC70261EB5771039FCE
:100DC0004FEA816141EA921104EBCC044FEAD1373A
:100DD0004FEA826206FB07FC42EA90124FEA80600B
:100DE0004FEA1C4C0CFB0BF7D21B03FB0CF761EB1F
:100DF00007010CFB0EF7B0EB074072EB17420CFB40
:100E000008F734BFA2EB0742B2EB074261EB174190
:100E10004FEA8C554FEA910704EB9C2406FB07FC34
:100E20004FEA1C4C0CFB0BF7B0EBC74072EB573290
:100E300003FB0CF734BFA2EBC742B2EBC74261EB36
:100E400057310CFB0EF7B0EBC70072EB57720CFB7F
:100E500008F734BFA2EBC702B2EBC70261EB5771D0
:100E600015EB4C254FEA816141EA92114FEA82620B
:100E70004FEAD13742EA901206FB07FC44F1000426
:100E80004FEA80604FEA1C4C0CFB0BF7D21B03FBB4
:100E90000CF761EB07010CFB0EF7B0EB074072EBB0
:100EA00017420CFB08F734BFA2EB0742B2EB074234
:100EB00061EB174115EB1C154FEA813141EA924174
:100EC0004FEA823242EA90424FEA80304FEA0C7693
:100ED00044F1000448EA03434EEA0B484FF0000E89
:100EE000B2EB080C71EB030724BF624639464EEBA8
:100EF0000E0E4FF0000B0018524149414BEB0B0B0B
:100F0000B2EB080C71EB03077BF1000B24BF6246C8
:100F100039464EEB0E0E4FF0000B0018524149417E
:100F20004BEB0B0BB2EB080C71EB03077BF1000BE7
:100F300024BF624639464EEB0E0E51EA020718BF37
:100F400046F0010616EB0E7655F1000254F1000151
:100F500003D5BDE88901BDE80088BDE88901BDE889
:100F60000048B619524141EB0101A3F1010370475A
:100F700080807F7E7D7C7B7A7978777676757473D6
:100F8000727171706F6E6E6D6C6C6B6A6A69686895
:100F9000676666656464636362616160605F5F5E2B
:100FA0005E5D5D5C5C5B5B5A5A59595858575756A1
:100FB0005655555554545353525252515150505006
:100FC0004F4F4F4E4E4D4D4D4C4C4C4B4B4B4A4A58
:100FD0004A4949494848484747474746464645459C
:100FE00045444444444343434342424242414141D5
:100FF000002B26D4770021D01CB54FEA370703B465
:101000004FF010004FF010014FF000000FBCBDE892
:1010100010400BF1010BBBF1010F08BF5FEA17078E
:1010200022BF12F1010211F101014FF0004143F121
:10103000000300F0004043EA00007047F9D357086E
:10104000DAE746EA064613F1400F4FEA16461FDD7F
:1010500013F1200FDFBF16430A46002120335B4205
:10106000C8D0C3F1200746EA064602FA07F74FEA5E
:10107000164646EA0706C3F1200722FA03F201FAF0
:1010800007F721FA03F14FF0000342EA0702B1E744
:1010900046EA020646EA06464FEA164646EA0106D0
:1010A000BCBF46EA0646360C4FF000034FF0000284
:1010B0004FF000019EE72DE9C048934630B491E817
:1010C000380007C831EA400C48BF34EA430C03D566
:1010D000FFF7F2FDFFF78CFFF0BCBDE800882DE9BB
:1010E000C048934630B491E8380007C810F0804FEC
:1010F00008BF13F0804F03D100F005F8FFF778FF29
:10110000F0BCBDE8008820F07F4780EA030023F0B0
:101110007F4C07EB0C03A3F57C5300F00040A3F1D8
:10112000FE0392F0000F00F0B38095F0000F00F086
:1011300077802DE901494FEA11404FEA144621EA30
:10114000004800FB06FC24EA064708FB06F607FBFE
:1011500008F800FB07F718EB06484CEB164C4FEA73
:10116000124B18EB07484FEA15464CEB174022EAA2
:101170000B4E0BFB06FC25EA06470EFB06F607FBAB
:101180000EFE0BFB07F71EEB064E4CEB164C4FF01A
:1011900000061EEB074E4CEB174B18EB0B0840F10B
:1011A000000018EB0E0B58EB000840F100008F1AFE
:1011B0004FF000013CBFC943661B14BFB5EB040CE4
:1011C00000213CBFC943F61B4FEA17444EEA8E0E7E
:1011D00027EA04454FEA1C4704FB07622CEA074C48
:1011E00005FB07F70CFB05F604FB0CFC16EB0746AA
:1011F00042EB174216EB0C4642EB1C421BEB060679
:1012000058EB0202414146EA9E0601D5BDE801893C
:10121000B619524141EB0101A3F10103BDE8018977
:101220004FEA14454FEA114724EA054621EA074CE4
:1012300005FB07F406FB07F70CFB06F105FB0CFCAE
:1012400011EB074144EB17444FEA124711EB0C41F5
:1012500044EB1C4422EA074C05FB07F206FB07F7A8
:101260000CFB06F605FB0CFC16EB074642EB17429F
:1012700016EB0C4642EB1C456A1854F1000148BFBE
:101280007047B619524141EB0101A3F101037047C8
:1012900095F0000F37D04FEA11424FEA144721EA88
:1012A000024624EA074C02FB07F106FB07F70CFB9A
:1012B00006F402FB0CFC14EB074441EB17414FEA28
:1012C000154714EB0C4441EB1C4125EA074C02FB8B
:1012D00007F506FB07F70CFB06F602FB0CFC16EB0A
:1012E000074645EB174516EB0C4645EB1C42121919
:1012F00051F1000148BF7047B619524141EB01015D
:10130000A3F1010370474FEA14454FEA114724EA5D
:10131000054621EA074C05FB07F106FB07F70CFB26
:1013200006F24FF0000605FB0CFC12EB074241EB06
:10133000174112EB0C4251EB1C4148BF7047921809
:1013400041EB0101A3F10103704700BFFEE77047C5
:1013500070B504461EA20421002000F0A9FC4FF441
:101360007A7094FBF0F0C5B22A460621002000F006
:1013700069FC4FF47A7094FBF0F100FB114064219A
:1013800090FBF1F0C5B22A460621082000F05AFC75
:10139000FE220621102000F055FC642094FBF0F1A1
:1013A00000FB11400A2190FBF1F0C5B22A4606214C
:1013B000182000F047FC0A2094FBF0F100FB1140DC
:1013C000C5B22A460621202000F03CFC70BD00007A
:1013D0007072657373206672657175656E63650002
:1013E00010B525A20021084600F062FC25480068DF
:1013F0004FF47A7190FBF1F0C4B222460221002032
:1014000000F020FC1F4800684FF47A7190FBF1F265
:1014100001FB1200642190FBF1F0C4B222460221CC
:10142000082000F00FFCFE220221102000F00AFC30
:1014300014480068642190FBF1F201FB12000A21BC
:1014400090FBF1F0C4B222460221182000F0FAFB12
:101450000C4800680A2190FBF1F201FB1200C4B2B3
:1014600022460221202000F0EDFB074802780421EB
:10147000282000F0E7FB10BD746865207765696778
:1014800068000000300000203C000020F0B50A4653
:1014900000210023002400BF3DE0012505FA01F3EF
:1014A000156805EA03049C4234D105684F00032601
:1014B000BE40B543056015794E00B540066835431A
:1014C00005601579012D02D01579022D16D1856898
:1014D0004F000326BE40B543856055794E00B540A8
:1014E000866835438560456801268E40B543456072
:1014F000456896798E40B6B235434560C5684F0061
:101500000326BE40B543C560D5794E00B540C668D8
:101510003543C560491C1029BFD3F0BDF0B5002389
:1015200000244D07ED0E02FA05F3CE1000F1200560
:1015300055F826504E07F70E0F26BE40B543CF1084
:1015400000F1200646F82750CE1000F1200555F88E
:10155000265045EA0304CE1000F1200545F8264048
:10156000F0BD0246002013690B400BB1012000E0E2
:1015700000207047418370470183704710B500BF5A
:1015800000F07AF815490860642001F02FF800F0A7
:1015900073F81349086013A20021084600F088FB85
:1015A00013A20221002000F083FB0D4890ED000AF9
:1015B000B8EE400A9FED121AC0EE010A074890EDFE
:1015C000000AB8EE400A9FED0E1AC0EE011AF4EEC2
:1015D000610AF1EE10FAD3D110BD00002C000020FA
:1015E00028000020706C6561736520776169740064
:1015F00073656C6620636865636B696E67000000E5
:101600009A99524310B52DED048B002400F034F864
:10161000044614480068241A00EE104AB8EEC00AC6
:10162000DFED110A80EE201ABCEEC10A10EE104A5E
:10163000204601F0B4FF41EC190B9FED0C0B53EC6D
:10164000102B01F025FE41EC180B01F079FF094940
:101650000860FFF7C5FE642000F0C8FFBDEC048BF6
:1016600010BD0000280000209A99524385EB51B824
:101670001E8511403000002070B50026102124483E
:10168000FFF778FF002412E020212148FFF769FFCF
:1016900040B9012000F0C6FF20211D48FFF761FF7F
:1016A00000B905E0761C1B48864200DB00E0EBE752
:1016B00000BF012000F0B6FF002517E010211448FC
:1016C000FFF75AFF012000F0ADFF6400012000F099
:1016D000A9FF10210E48FFF74DFF20210C48FFF70E
:1016E00040FF012800D1641C681CC5B2182DE5DB41
:1016F00010210748FFF740FF022000F093FF84F419
:10170000000410210248FFF735FF204670BD00009D
:101710000000024040420F0000BFFEE710B500F09D
:101720004FF8AE2000F01CFBD52000F019FB502034
:1017300000F016FBA82000F013FB3F2000F010FB88
:10174000D32000F00DFB002000F00AFB402000F049
:1017500007FB8D2000F004FB142000F001FB20208B
:1017600000F0FEFA022000F0FBFAA12000F0F8FAE7
:10177000C82000F0F5FADA2000F0F2FA122000F0AA
:10178000EFFA812000F0ECFAEF2000F0E9FAD9201E
:1017900000F0E6FAF12000F0E3FADB2000F0E0FAD6
:1017A000302000F0DDFAA42000F0DAFAA62000F0E4
:1017B000D7FAAF2000F0D4FA00F03FFA10BD0000D5
:1017C0001CB50121022000F0DBFA4FF440700090BC
:1017D00001208DF8040000208DF8060003208DF80C
:1017E000050001208DF8070069460548FFF74EFE09
:1017F0000120044908600449C1F8A4021CBD00008E
:1018000000040240A08240420080404270B504467D
:101810001648006820F44020144908600846006813
:1018200040F480200860002011490860002517E07E
:10183000E0090F49091D08606006040E022000F04F
:10184000F1FE01200B49C1F8A002022000F0EAFEDF
:10185000002007490860022000F0E4FE681CC5B2C1
:10186000082DE5DB00F054F870BD000000040240D4
:10187000A08240420080404210B50F48006820F42A
:1018800040200D4908600846006840F48020086048
:1018900001200A4908600A49C1F8A002042000F0AA
:1018A000C1FE002005490860042000F0BBFE0020B6
:1018B0000349C1F8A00210BD00040240A4824042C6
:1018C0000080404210B50F48006820F440200D49C8
:1018D00008600846006840F48020086001200A493A
:1018E000086000200949C1F8A402042000F09AFE13
:1018F0000120054908600549C1F8A402042000F050
:1019000091FE10BD00040240A0824042008040428F
:1019100010B500241348006820F4402011490860E5
:1019200008460068086001200F49086000F07AFE50
:1019300001200E49C1F8A00200F074FE07E0601C0F
:10194000C4B2FA2C03DDFFF7BDFF012010BD06482D
:10195000803800680028F2D10349091F086000BFE1
:10196000F4E7000000040240A482404200804042AC
:101970001FB50121084600F003FA10200290012053
:101980008DF80C0000208DF80E0002208DF80D005F
:101990008DF80F0002A90B48FFF778FD202000907A
:1019A00000208DF8040002208DF8050000208DF83D
:1019B000070069460348FFF769FD0121084600F06A
:1019C000DFF91FBD000002401CB50121112000F00D
:1019D000D7F91820009000208DF8040003208DF81E
:1019E000050001208DF8070069460648FFF74EFD07
:1019F0000120009002208DF8070069460248FFF799
:101A000045FD1CBD001002400000024010B5044618
:101A100014B10120234908702248007858B31021DE
:101A20002148FFF79EFD50B108211F48FFF799FD9F
:101A300028B101211D48FFF794FD01281BD10A2080
:101A400000F0D4FD00201749087010211648FFF758
:101A500088FD08B9012010BD08211348FFF781FD5A
:101A600008B90220F7E701211048FFF77AFD0128A5
:101A700015D10320EFE710210B48FFF772FD012875
:101A80000DD108210848FFF76CFD012807D101217D
:101A90000648FFF766FD10B90120024908700020D2
:101AA000D9E700004C000020001002400000024076
:101AB0001CB50121084600F063F949F6C4100090F6
:101AC00001208DF8040000208DF8060003208DF819
:101AD000050001208DF8070069462148FFF7D6FC74
:101AE000C4211F48FFF748FD4FF419411C48FFF778
:101AF00043FD0121042000F043F940F20120009051
:101B000001208DF8040002208DF805006946154873
:101B1000FFF7BCFC01211348FFF72CFD4FF40071C7
:101B20001048FFF729FD0121102000F029F94FF49A
:101B30000060009001208DF8040000208DF8060060
:101B400003208DF8050001208DF80700694606483E
:101B5000FFF79CFC4FF400610348FFF70DFD1CBD2F
:101B600000000240000802400010024000BFFEE7F3
:101B70007047000070B5002100230F22C4781CB309
:101B8000174C246804F4E064C4F5E064C4F307214E
:101B9000C1F10404E3B20A4144789C40E1B2847884
:101BA000144021430C07210E0E4C05786155047832
:101BB00004F01F050124AC4005786D11AD0005F15E
:101BC000E025C5F8004109E0047804F01F05012470
:101BD000AC40054D0678761145F8264070BD0000F2
:101BE0000CED00E000E400E080E100E00249014388
:101BF000024A1160704700000000FA050CED00E099
:101C000070B50646002415E004F1B001C8B200F03A
:101C1000A7F8012000F0A4F8102000F0A1F800259A
:101C200004E0304600F0A3F8681CC5B2802DF8DB54
:101C3000601CC4B2082CE7DB70BD10B50020FFF7B4
:101C4000DFFF10BD2DE9F04107460E469046002506
:101C5000002408F11000C5B2782F02DD0027701CA7
:101C6000C6B23146384600F067F8002407E004EBBE
:101C700005110E4A505C00F07AF8601CC4B2082CC2
:101C8000F5DB701CC1B2384600F056F8002408E0BD
:101C900004EB05110831054A505C00F068F8601C3F
:101CA000C4B2082CF4DBBDE8F08100008C390008D8
:101CB0002DE9F04706460F46904600250024A14630
:101CC00031E018F809002038C5B2782E02DD002670
:101CD000781CC7B23946304600F02EF8002407E0E1
:101CE00004EB0511134A505C00F041F8601CC4B2CB
:101CF000082CF5DB781CC1B2304600F01DF800243A
:101D000008E004EB051108310A4A505C00F02FF896
:101D1000601CC4B2082CF4DB06F10800C6B209F15D
:101D2000010000F0FF0918F809000028C9D1BDE83A
:101D3000F08700008C39000870B504460D4605F1A7
:101D4000B001C8B200F00CF8102141EA141000F004
:101D500007F804F00F0141F0010000F001F870BD38
:101D600010B504462146002000F034F910BD10B52E
:101D700004462146402000F02DF910BD70470000B8
:101D800029B1064A12680243044B1A6004E0034A70
:101D900012688243014B1A607047000030380240DD
:101DA00029B1064A12680243044B1A6004E0034A50
:101DB00012688243014B1A607047000040380240AD
:101DC00029B1064A12680243044B1A6004E0034A30
:101DD00012688243014B1A60704700004438024089
:101DE000F0B5002100220024022500260223324FF4
:101DF0003F6807F00C0121B1042905D0082937D12B
:101E000005E02E4F076036E02D4F076033E02A4F84
:101E10003F1F3F68C7F38056274F3F1F3F6807F0BB
:101E20003F036EB1264FB7FBF3F7DFF88CC0ACF180
:101E3000040CDCF800C0CCF3881C07FB0CF40CE0AD
:101E40001E4FB7FBF3F7DFF870C0ACF1040CDCF801
:101E500000C0CCF3881C07FB0CF4174F3F1F3F68F2
:101E6000C7F301477F1C7D00B4FBF5F7076002E074
:101E7000124F076000BF00BF0F4F3F6807F0F0012F
:101E80000909104F7A5C0768D74047600A4F3F68DE
:101E900007F4E051890A0B4F7A5C4768D7408760A6
:101EA000054F3F6807F46041490B064F7A5C47686D
:101EB000D740C760F0BD0000083802400024F4009D
:101EC00000127A0008000020704770B504460D46E5
:101ED00000BF4021204600F07FFA0028F9D02946B3
:101EE000204600F044FB70BD0CB50020019000902E
:101EF0003448006840F480303249086000BF3148FF
:101F0000006800F4003000900198401C0190009897
:101F100018B90198B0F5A04FF1D12A48006800F433
:101F2000003010B10120009001E0002000900098E6
:101F3000012846D123484030006840F080502149B4
:101F4000403108602048006840F440401E49086065
:101F50001C48083000681B490831086008460068C2
:101F600040F4004008600846006840F4A050086053
:101F70001648091F0860081F006840F08070091F9C
:101F8000086000BF0F48006800F000700028F9D01A
:101F900040F205700E4908600A480830006820F0D9
:101FA00003000849083108600846006840F0020054
:101FB000086000BF03480830006800F00C000828E3
:101FC000F8D10CBD003802400070004008544007B2
:101FD000003C024070B505460C46FFF74DFC7820EA
:101FE000FFF714FC2846FFF711FC2046FFF70EFC14
:101FF000FFF768FC70BD042808D14FF0E0210969A3
:1020000041F004014FF0E022116107E04FF0E021C0
:10201000096921F004014FF0E02211617047704717
:1020200010B51548006840F4700013490860134863
:10203000006840F001001149086000200F49083194
:1020400008600E4800680E4908400C4908600D48B9
:10205000091D0860081F006820F48020091F08601F
:10206000002006490C310860FFF73EFF4FF000608A
:1020700001498039086010BD88ED00E00038024059
:10208000FFFFF6FE1030002410B501212A4800F0B1
:1020900072F801284AD1294890ED000AF7EE000AAB
:1020A00030EE200A80ED000A25480068012811D191
:1020B00024480168244802680068401C224B1860CC
:1020C000224840F8221018460068782802D10020E3
:1020D000194608601A480068022811D11948026898
:1020E000194801680068401C174B1860184840F8F0
:1020F000212018460068782802D10020194608607F
:102100000F480068032811D10E4802680E48016884
:102110000068401C0C4B18600E4840F821201846FF
:102120000068782802D10020194608600121024881
:1021300000F012F810BD000000040040380000203C
:10214000440000203000002048000020E001002072
:10215000C0030020A0050020CA430282704721B1BD
:10216000028842F00102028004E002884FF6FE730A
:102170001A400280704730B5024600200023002438
:10218000158A05EA0103958905EA010413B10CB12A
:10219000012000E0002030BD1AB183890B43838108
:1021A00002E083898B43838170470000002202880C
:1021B000184B98420ED0184B98420BD0B0F1804F7C
:1021C00008D0164B984205D0154B984202D0154BBB
:1021D000984204D14FF68F731A404B881A43124B22
:1021E000984207D0114B984204D04FF6FF431A4053
:1021F0000B891A4302804B68C3620B880385054B29
:10220000984202D0044B984201D18B7A0386012375
:102210008382704700000140000401400004004038
:1022200000080040000C0040001000400014004076
:102230007FB505460C4601210220FFF7B1FD0020C5
:10224000ADF80C00ADF806000295ADF8044001A908
:102250000B48FFF7ABFF012211460948FFF79CFF2F
:102260001D208DF8000001208DF803008DF801007D
:1022700003208DF802006846FFF77CFC7FBD00005C
:102280000004004010B540F22551224800F0B1F89A
:1022900000283DD01F4800F065F91F4908701F480D
:1022A000008800F40040F8B91C48008800F4804021
:1022B00080B1084600780A2803D00020174908801A
:1022C00026E01648008840F40040144908800020A9
:1022D00008801DE0104800780D2806D10F480088BE
:1022E00040F480400D49088012E00B4800780B490B
:1022F0000988C1F30D010A4A505408480088401C5F
:102300000649088008460088C72801DD00200880AB
:1023100010BD0000001001401C000020240000201F
:102320005000002010B540F22551214800F061F81E
:1023300000283BD01E4800F015F91E4908701E48C1
:10234000008800F4004088BB1B48008800F48040EF
:1023500070B1084600780A2803D00020164908808A
:1023600024E01548008840F40040134908801DE02F
:10237000104800780D2806D10F48008840F48040AE
:102380000D49088012E00B4800780B490988C1F319
:102390000D010A4A505408480088401C064908802C
:1023A00008460088C72801DD0020088010BD000015
:1023B000004800401D0000202600002018010020D9
:1023C00021B1828942F40052828104E082894DF673
:1023D000FF731A408281704702460020B1F5007FEA
:1023E00000D100BF13880B400BB1012000E000209A
:1023F000704770B50246002400230025002040F6F7
:102400006A16B14200D100BFC1F3421501F01F03AB
:10241000012606FA03F3012D02D19689334006E026
:10242000022D02D1168A334001E0968A33400C1205
:10243000012606FA04F41688344013B10CB10120C9
:1024400000E0002070BDF0B5034600240026002502
:10245000002040F66A17B94200D100BF1846C1F308
:10246000421401F01F06012707FA06F5012C01D1DD
:102470000C3004E0022C01D1103000E014301AB10D
:1024800007682F43076002E00768AF430760F0BDAD
:102490002DE9FF4705460E460024A14600BFA04691
:1024A000B08900B100BF2C8A24F44054F088044362
:1024B0002C82AC8941F20C608443B0883189084396
:1024C000718908430443AC81AC8A24F44074B08918
:1024D0000443AC826846FFF783FC2048854202D063
:1024E0001F48854202D1DDF80C9001E0DDF808902C
:1024F000A88900F4004040B109EBC90000EB0910C5
:1025000031684900B0FBF1F707E009EBC90000EBC7
:10251000091031688900B0FBF1F76420B7FBF0F0D7
:1025200004012009642101FB1078A88900F400400F
:1025300040B1322000EBC800B0FBF1F000F0070022
:10254000044308E0322000EB08106421B0FBF1F0F6
:1025500000F00F0004432C81BDE8FF87001001400C
:102560000014014001468888C0F308007047C1F399
:1025700008028280704700BFFEE703B40198410063
:10258000009850EAC12018BF04204A0D18BF40F03F
:10259000010040F2FF72B2EB515F08BF40F0020051
:1025A000012808BF052002B07047014600BF7047F0
:1025B00010B504466FF00400FFF71DFDE11704EBB2
:1025C0005171C1F3C701074A11701046007800EB42
:1025D0004001C1EBC0104FF6FF7101EAC000024993
:1025E000088010BD180000201A00002070B50446B5
:1025F0004FF4077094FBF0F0C6B24FF4077094FBF1
:10260000F0F100FB114085B205E04FF4077000F0D7
:102610002FF8701EC6B2002EF7D115B1284600F073
:1026200027F870BD0146114A12784A434FF0E02363
:102630005A6100229A611A46126942F001021A6137
:1026400000BF4FF0E022106900F001021AB100F45F
:102650008032002AF5D04FF0E022126922F0010208
:102660004FF0E0231A6100229A61704718000020A1
:102670000146114A12884A434FF0E0235A61002272
:102680009A611A46126942F001021A6100BF4FF0C6
:10269000E022106900F001021AB100F48032002A31
:1026A000F5D04FF0E022126922F001024FF0E02352
:1026B0001A6100229A6170471A00002000BF054A83
:1026C000128802F04002002AF9D0C2B2014B9A806F
:1026D00070470000001001402DED068B00270025FB
:1026E00000269FEDFE0AF0EE408A9FEDFC0AB0EE58
:1026F000409A9FEDFA0AF0EE409A9FEDF80AB0EE8C
:10270000408A4FF4A060FFF771FAA820FFF750FF4E
:10271000FFF704F84FF4E13000F04CFD4FF4165091
:1027200000F0F2FCFFF789FA42F2CF0140F2E73005
:10273000FFF77EFDFFF7BCF9FFF746F9FFF718F941
:102740000020E7490860FEF719FFFFF776FA01203D
:10275000E449C1F8B002E4A0FDF798FDC820FFF7F6
:1027600045FF1AE0E548007B312812D1DC481838D3
:102770000068C043DB49C1F89802E1A202210020B1
:10278000FFF796FA0020DD4908730120DF49086051
:1027900004E00020DD49086000E0E3E700BFB0E0AE
:1027A00013E040F6B830FFF721FF0020D849086059
:1027B0004FF4FA60FFF71AFF0120D649C1F8AC02C6
:1027C00046F2A810FFF712FF00E0EAE700BFD2A030
:1027D000FDF75CFD19E00020FFF718F90646C74831
:1027E00040784B2801D0012E0FD1BD481838006821
:1027F000C043BC49C1F89802C9A202210020FFF7DA
:1028000057FA0020BD49487000E0E4E700BFC74820
:10281000FDF73CFD2DE00020FFF7F8F80646B7482D
:1028200040784B2801D0012E23D1C1A202210020E3
:10283000FFF73EFA1AE0B148807B4F2803D1AF483A
:102840008079482801D0012E10D1A5481838006899
:10285000C043A449C1F89802B9A202210020FFF7A1
:1028600027FA0020A5498873887100E0E3E700BFDC
:1028700000E0D0E700BFB6A0FDF708FD19E000209A
:10288000FFF7C4F806469D4840784B2801D0012E3A
:102890000FD1934818380068C0439249C1F8980294
:1028A000B1A202210020FFF703FA002093494870EB
:1028B00000E0E4E700BFAFA0FDF7E8FC1EE0002069
:1028C000FFF7A4F806468D48C07B4F2803D18B48FC
:1028D0008079532801D0012E10D181481838006822
:1028E000C0438049C1F89802AFA202210020FFF73F
:1028F000DFF9002081498871C87300E0DFE700BF7D
:1029000004E08248006800283FF44AAF00BFFFF7A8
:1029100094F916E0A7A200210846FFF7C9F9A6A27C
:1029200002210020FFF7C4F90E21A648FFF7CDFAD7
:10293000A54800780F2803D100206949183908609C
:1029400000E0E7E700BFFFF778F908E066219D485F
:10295000FFF7BBFA9C480078102800D100E0F5E7AB
:1029600000BFFFF76AF956E19848006880B9002077
:102970005B49091F086041F28830FFF737FE0120EC
:102980005849C1F8AC0291480068401C8F49086062
:10299000FEF738FE8E4890ED000AB8EEC00ADFED73
:1029A0008D0A80EE201AB2EE040AB4EEC01AF1EEDF
:1029B00010FA02D2062088490860854890ED000A86
:1029C000B8EEC00ADFED830A80EE201AB2EE040AE8
:1029D000B4EEC01AF1EE10FA7EDD8048006818B936
:1029E00001217F48FFF7BBFB7B480068062804D124
:1029F0007A480068401C79490860002076490860E0
:102A0000374914390860724890ED000AB8EEC00AE0
:102A1000DFED700A80EE201AB2EE0A0AB4EEC01A98
:102A2000F1EE10FA12DD90ED000AF8EEC00A9FED0B
:102A3000691A80EE810AF3EE000AB4EEE00AF1EEC4
:102A400010FA03D20020264928390860634800683C
:102A50000A2842D100216248FFF781FB614890EDCE
:102A6000000ADFED610A20EE200A80ED000A90EDF9
:102A7000000AF2EE040A80EE801AF0EE418A00208D
:102A800017491039086040F6B830FFF7AFFD012054
:102A90001449C1F8A002002011491439086007E068
:102AA00001215248FEF75DFD0546012D00D100E0F1
:102AB000F6E700BF8FB9012D0FD101200849183961
:102AC0000860012700200749C1F8BC0241F28830A4
:102AD000FFF78CFD01208BE08EE094E00000000009
:102AE000B00240420000404241542B434C4F5544F9
:102AF00053544154453F0D0A00000000500000208F
:102B00004D515454207375630000000004000020F0
:102B1000AC02424200004242415445300D0A0000DE
:102B2000717566616E2073756300000010440008C3
:102B30006A69616E7175616E20696E6700000000E0
:102B40006A69616E7175616E2073756300000000C3
:102B500041542B434C4F5544434F4E4E3D36302C41
:102B6000302C340D0A0000006C69616E6A696520C2
:102B70007375630041542B434C4F55445355423DAC
:102B80002F6131354865736D55636D432F6E7779CD
:102B90007465737430312F757365722F757064614D
:102BA00074652C300D0A000064696E6779756520C4
:102BB0007375630041454400636F6E656374696EAD
:102BC00067000000004800401D0000204400002075
:102BD000300000200000C842400000203C000020DF
:102BE0000004004038000020CDCCCC3D000802405D
:102BF000FE490C31086006E00120FC4914390860E8
:102C0000FB49C1F88802FB4800680A2803D100206C
:102C1000F849086000E0A7E600BF08E01121F64887
:102C2000FFF753F9F5480078122800D100E0F5E7E6
:102C300000BFD9E00020ED4918390860F04890ED58
:102C4000000AB8EEC00A5FED1D0A80EE201AB2EE4F
:102C50000A0AB4EEC01AF1EE10FA12DD90ED000A85
:102C6000B8EEC00A5FED250A80EE201AB3EE000A26
:102C7000B4EEC01AF1EE10FA03D20020DB49283975
:102C80000860E048006801280FD10020DE49086094
:102C90004FF4FA60FFF7AAFC0120DC49C1F8A40256
:102CA000D8480068401CD7490860FEF7ABFCD44800
:102CB00090ED000AB8EEC00A5FED3A0A80EE201AE5
:102CC000B2EE040AB4EEC01AF1EE10FA02D20620F7
:102CD000CF490860CA4890ED000AB8EEC00A5FED1F
:102CE000430A80EE201AB2EE040AB4EEC01AF1EEE6
:102CF00010FA6ADDBF48006818B90121C548FFF71E
:102D00002EFAC3480068062804D1BA480068401C5F
:102D1000B84908600020BE490860B4491439086009
:102D2000B448006818B90121BA48FFF718FAB14849
:102D300000680A2850D10021B648FFF710FAB648BB
:102D400090ED000A5FED580A20EE200A80ED000A9F
:102D500090ED000AF2EE040A80EE801AB0EE419A7D
:102D60000020A2491039086040F6B830FFF73EFC59
:102D700001209F49C1F8A00200209C491839086031
:102D800007E00121A548FEF7ECFB0546012D00D127
:102D900000E0F6E700BF012F1ED1012D1CD101205C
:102DA00092491839086000209149C1F8BC0241F2EB
:102DB0008830FFF71BFC01208C490C31086004218E
:102DC0008D48FFF782F8022706E001208749143971
:102DD00008608749C1F88802864800680A2803D13C
:102DE00000208449086000E024E700BF08E01321C8
:102DF0008148FFF76AF881480078142800D100E084
:102E0000F5E700BFD2E000207849183908607D4816
:102E1000006802280FD100207B4908604FF4FA6057
:102E2000FFF7E4FB01207949C1F8A4027548006866
:102E3000401C74490860FEF7E5FB714890ED000AFC
:102E4000B8EEC00A5FED9D0A80EE201AB2EE040AC9
:102E5000B4EEC01AF1EE10FA02D206206C490860F6
:102E6000674890ED000AB8EEC00A5FEDA60A80EE52
:102E7000201AB2EE040AB4EEC01AF1EE10FA6EDDBA
:102E80005C48006818B901216248FFF768F960489A
:102E90000068062804D157480068401C554908605E
:102EA00000205B490860514914390860544890ED8E
:102EB000000AB8EEC00A5FEDB90A80EE201AB2EE41
:102EC0000A0AB4EEC01AF1EE10FA12DD90ED000A13
:102ED000B8EEC00A5FEDC10A80EE201AB3EE000A18
:102EE000B4EEC01AF1EE10FA03D200203F4928399F
:102EF00008604048006818B901214648FFF72FF9DB
:102F00003C4800680A2849D100214248FFF727F9C8
:102F1000414890ED000A5FEDCC0A20EE200A80EDDA
:102F2000000A90ED000AF2EE040A80EE801AF0EE3C
:102F3000419A00202D491039086040F6B830FFF75B
:102F400055FB00202A49C1F8980207E001213348C7
:102F5000FEF707FB0546012D00D101E0F6E716E07C
:102F600000BF022F1AD1012D18D101201F49183995
:102F70000860032700201E49C1F8BC0241F28830D6
:102F8000FFF734FB06211C48FEF79FFF06E00120F7
:102F90001649143908601649C1F8880215480068B6
:102FA0000A2803D100201349086000E02BE700BF86
:102FB000032F3DD138EE890A30EE290ADFED180AD9
:102FC00030EE200AF0EE080A80EE201AB0EE418AB8
:102FD0009FED140A28EE000AF7EE000A80EE201A90
:102FE000B0EE418ABDEEC80A1EE00000B0024042C9
:102FF000000040423C000020004800401D0000202E
:103000003000002044000020A40241420000414260
:10301000400000200004004038000020000802406A
:103020009A99993E0000C84210EE100AFEF790F9F6
:103030001FED040AC8EE000AB0EE608A18EE100A0E
:1030400000F018FB41EC1A0B53EC1A2B1A48FDF751
:103050001DF91420FFF7CAFA00240AE0174850F8B7
:10306000241017A0FDF712F91420FFF7BFFA601C17
:10307000C4B2782CF2DB00240AE0214850F8241076
:103080000FA0FDF703F91420FFF7B0FA601CC4B2DB
:10309000782CF2DB00240AE01A4850F8241008A02B
:1030A000FDF7F4F81420FFF7A1FA601CC4B2782CE5
:1030B000F2DB00BFFEE7000058440008E0010020FA
:1030C00041542B434C4F55445055423D2F613135AF
:1030D0004865736D55636D432F6E777974657374AE
:1030E00030312F757365722F7570646174652C3083
:1030F0002C7B70726573733A256C647D0D0A000039
:10310000C0030020A005002010B588B004460121AE
:103110000220FEF735FE01218804FEF741FE07225A
:103120000B212248FEF7FAF907220A211F48FEF771
:10313000F5F94FF44060069002208DF81C008DF8E0
:103140001D0000208DF81E0001208DF81F0006A92B
:103150001648FEF79BF902940020ADF80C00ADF87C
:103160000E00ADF81000ADF814000C20ADF8120000
:1031700002A90F48FFF78CF901210D48FFF720F94C
:10318000012240F225510A48FFF75DF927208DF80A
:10319000040003208DF805008DF8060001208DF84D
:1031A000070001A8FEF7E6FC08B010BD00040240CD
:1031B0000048004010B588B0044601210846FEF7DB
:1031C000DFFD01211020FEF7FBFD07220921234826
:1031D000FEF7A4F907220A212048FEF79FF94FF4D1
:1031E000C060069002208DF81C0003208DF81D00A1
:1031F00000208DF81E0001208DF81F0006A9174839
:10320000FEF744F902940020ADF80C00ADF80E0072
:10321000ADF81000ADF814000C20ADF8120002A9B2
:103220000F48FFF735F901210D48FFF7C9F80122D2
:1032300040F225510A48FFF706F925208DF80400D1
:1032400003208DF805008DF8060001208DF8070099
:1032500001A8FEF78FFC08B010BD0000000002407E
:103260000010014010B500290AD00878002807D0C6
:1032700005487844FDF76EFC002801D0002010BD01
:103280000248784410BD00004E12000046120000B3
:103290002DE9C04130B4DFF8A0C23CEA111418BFD8
:1032A0003CEA131400F0EC8081EA03051CEA1114D7
:1032B00044EAD57418BF1CEA131500F0C780A4EBCC
:1032C00005044FF0004545EAC12145EAC32341EA20
:1032D000505143EA525304F17F74994204F500348B
:1032E0004FEAC0204FEAC22208BF904200F09C8003
:1032F0004FEA13650FF24016765D4FEA134506FB61
:1033000005F7C7F1807706FB07F74FEAD737A7FB2A
:1033100003687642C8F58038A7FB06CE38BFA8F10F
:10332000010807FB08E64FF0000EA6FB028CE6FB47
:1033300003CEDCF1000CCEF1004E38BFAEF1010E31
:10334000A6FB0C584FF000074FF00005E6FB0E8778
:10335000A1FB08C6A0FB07CE16EB0E0645F1000543
:10336000E1FB076515F1E04E7EBFA4F580345FEA0E
:1033700046066D4116F1800745F100054FEA172713
:103380004FEA066647EA0567A6F1DE46B6F1805FBA
:103390004FEA15251FD9384624F0010C05EBC471FE
:1033A000BCF1FE6F01EB0C1102D8F0BCBDE800814E
:1033B00024425CBF01F5801E9EEAC47F02D4F0BCAB
:1033C000BDE80081244238D4F0BCA1F1C041BDE881
:1033D000004100F049B94FEAD22242EA43524FEA93
:1033E000D323A7FB02864FEAD02040EA415007FBD7
:1033F00003661EEA0E0F4FEAD12105FB026658BF95
:10340000A6EB0056B6EB00564FEA520E4EEAC37ECC
:1034100018EB0E0E56EB530EBDD518EB02085E41AD
:103420007F1C55F10005B6E74FF480154FF00007FB
:103430004FF000064FF00008ADE7F0BC4FF0000081
:1034400001F1C04101F00041BDE8008111EA0C1F0B
:103450000CEA131500D00CE013EA0C1F00F02580D5
:103460004FF00000F0BC81EA030101F00041BDE82B
:103470000081F0BCBDE8004181EA030100F0F4B82E
:10348000F0BCBDE8004170B500F0A0F8097EFC3E3C
:1034900000F007B881EA03014FF0000001F000419D
:1034A000704781EA030100F0DFB8F0BCBDE80041DD
:1034B0004FF0000021497047FFFDFBF9F7F5F4F2EA
:1034C000F0EEEDEBE9E8E6E4E3E1E0DEDDDBDAD8BF
:1034D000D7D5D4D3D1D0CFCDCCCBCAC8C7C6C5C41D
:1034E000C2C1C0BFBEBDBCBBBAB9B8B7B6B5B4B334
:1034F000B2B1B0AFAEADACABAAA9A8A8A7A6A5A41F
:10350000A3A3A2A1A09F9F9E9D9C9C9B9A999998E2
:103510009797969595949393929191908F8F8E8E85
:103520008D8C8C8B8B8A8989888887878685858412
:1035300084838382828181800000FF070000F87FFE
:103540004FEA41034FEA5353A3F58063D3F11E03BF
:10355000C8BFD3F1210C0CDD4FF0004242EAC1227A
:1035600042EA505232FA03FC8CEAE17CACEBE170A7
:103570007047102BC4BF0020704703F5787CBCF166
:10358000FF3F04D06FF0004282EA2100704770B51F
:1035900000F01CF84992248000207047F2E710F0F8
:1035A000004248BF4042B0FA80F310FA03F10AD05B
:1035B000C3F11D0303F580634FEA415002EB035250
:1035C00002EBD12170474FF0000070470EF1020E60
:1035D0002EF0030E5EF8046B364205D4012A43EB4D
:1035E000030515F5001F12D8012841EB010C1CF54D
:1035F000001F0CD80ED14FEAD17C15F5001F0CEB43
:103600004C0C0CF1020C08BF4CEBD37C04E04FF0E7
:10361000080C01E04FEAD37C0CEB4C0526FA05F6CA
:1036200006F00706B6F1040C06D20EEB860CBDE8D8
:1036300070404CF0010C6047DFE80CF0090B02020F
:103640004FF000414FF00000A1F5002170BD194678
:103650001046012851EB010418BFD4F5001484BFB3
:10366000002001F0004170BD0808A0F500114FEAEC
:103670003101704743004FEAD30C4FEA3C0C434002
:103680001FBF40070CF1605113F0FE4F70471CF054
:10369000006F03D100200CF0004170470CF0004394
:1036A00043EA507010B540EACC0000F00EF800BFBD
:1036B000000000924FEA0001FFF7D6BF4FF0004133
:1036C0004FF00000A1F5002170470EF1020E2EF020
:1036D000030E5EF8044B244204D44FEA4102B2F1D7
:1036E0007F4F11D84FEA4003B3F17F4F0CD80ED172
:1036F0004FEAD07CB2F17F4F0CEB4C0C0CF1020C7A
:1037000008BF4CEBD17C04E04FF0080C01E04FEA1D
:10371000D17C0CEB4C0324FA03F404F00704B4F15D
:10372000040C06D20EEB840CBDE810404CF0010CEA
:103730006047DFE80CF0070802024FF00040A0F5F8
:10374000800010BD0846420018BFD2F1807288BFC9
:1037500000F0004010BD4FF04070E1EE100A7047DD
:10376000FCF76CBF0000000000000000002F00000C
:1037700000000700070000147F147F1400242A7F34
:103780002A120062640813230036495522500000B3
:103790000503000000001C224100000041221C0023
:1037A0000014083E08140008083E0808000000A0A5
:1037B00060000008080808080000606000000020A1
:1037C00010080402003E5149453E0000427F40007F
:1037D000004261514946002141454B310018141205
:1037E0007F10002745454539003C4A4949300001D2
:1037F0007109050300364949493600064949291E21
:103800000000363600000000563600000008142282
:103810004100001414141414000041221408000282
:103820000151090600324959513E007C1211127CA7
:10383000007F49494936003E41414122007F4141D4
:10384000221C007F49494941007F09090901003EC6
:103850004149497A007F0808087F0000417F410004
:10386000002040413F01007F08142241007F40407A
:103870004040007F020C027F007F0408107F003E62
:103880004141413E007F09090906003E4151215E48
:10389000007F091929460046494949310001017F45
:1038A0000101003F4040403F001F2040201F003FDB
:1038B0004038403F0063140814630007087008078D
:1038C00000615149454300007F41410000552A55A0
:1038D0002A55000041417F0000040201020400401B
:1038E000404040400000010204000020545454783D
:1038F000007F48444438003844444420003844445D
:10390000487F00385454541800087E0901020018FA
:10391000A4A4A47C007F080404780000447D400037
:10392000004080847D00007F102844000000417F1B
:103930004000007C04180478007C080404780038F7
:103940004444443800FC242424180018242418FC7F
:10395000007C0804040800485454542000043F44E8
:103960004020003C4040207C001C2040201C003CAB
:103970004030403C004428102844001CA0A0A07CFB
:10398000004464544C441414141414140000000033
:10399000000000000000000000000000000000F82F
:1039A00000000000000000333000000000100C0692
:1039B000100C0600000000000000000040C078402D
:1039C000C0784000043F04043F040400007088FCF9
:1039D00008300000001820FF211E0000F008F00051
:1039E000E018000000211C031E211E0000F00888C2
:1039F000700000001E2123241927211010160E002C
:103A0000000000000000000000000000000000E0D6
:103A100018040200000000071820400000020418EB
:103A2000E00000000040201807000000404080F047
:103A3000804040000202010F01020200000000F07D
:103A4000000000000101011F010101000000000051
:103A50000000000080B070000000000000000000C6
:103A6000000000000001010101010101000000004F
:103A700000000000003030000000000000000000E6
:103A800080601804006018060100000000E01008C3
:103A90000810E000000F102020100F00001010F898
:103AA000000000000020203F2020000000700808D7
:103AB0000888700000302824222130000030088857
:103AC000884830000018202020110E000000C0207F
:103AD00010F8000000070424243F240000F80888A0
:103AE000880808000019212020110E0000E010882D
:103AF00088180000000F112020110E00003808085F
:103B0000C83808000000003F00000000007088086E
:103B100008887000001C222121221C0000E01008EF
:103B20000810E0000000312222110F00000000C048
:103B3000C0000000000000303000000000000080E5
:103B400000000000000080600000000000008040D5
:103B500020100800000102040810200040404040EE
:103B60004040400004040404040404000008102041
:103B70004080000000201008040201000070480886
:103B80000808F0000000003036010000C030C828EE
:103B9000E810E0000718272423140B000000C038A9
:103BA000E0000000203C23020227382008F8888823
:103BB00088700000203F202020110E00C03008082F
:103BC00008083800071820202010080008F8080806
:103BD0000810E000203F202020100F0008F88888FF
:103BE000E8081000203F20202320180008F88888CB
:103BF000E8081000203F200003000000C030080843
:103C00000838000007182020221E020008F80800CB
:103C10000008F808203F210101213F20000808F892
:103C2000080800000020203F2020000000000808B5
:103C3000F8080800C08080807F00000008F888C075
:103C400028180800203F20012638200008F8080026
:103C500000000000203F20202020300008F8F8005D
:103C6000F8F80800203F003F003F200008F830C06F
:103C70000008F808203F200007183F00E01008085F
:103C80000810E0000F10202020100F0008F808088E
:103C90000808F000203F210101010000E0100808A1
:103CA0000810E0000F18242438504F0008F88888C6
:103CB00088887000203F2000030C302000708808A6
:103CC000080838000038202121221C00180808F8B4
:103CD000080818000000203F2000000008F8080035
:103CE0000008F808001F202020201F000878880006
:103CF00000C83808000007380E010000F80800F876
:103D00000008F800033C0700073C0300081868801F
:103D10008068180820302C03032C30200838C80095
:103D2000C83808000000203F2000000010080808E4
:103D3000C83808002038262120201800000000FE86
:103D4000020202000000007F40404000000C30C032
:103D500000000000000000010638C000000202025E
:103D6000FE000000004040407F0000000000040210
:103D7000020204000000000000000000000000003B
:103D8000000000008080808080808080000202042B
:103D90000000000000000000000000000000808023
:103DA000808000000019242222223F2008F8008091
:103DB00080000000003F112020110E000000008054
:103DC00080800000000E11202020110000000080E3
:103DD0008088F800000E112020103F200000808015
:103DE00080800000001F222222221300008080F029
:103DF000888888180020203F202000000000808054
:103E000080808000006B94949493600008F8008098
:103E100080800000203F210000203F2000809898F3
:103E2000000000000020203F202000000000008053
:103E30009898000000C08080807F000008F8000093
:103E400080808000203F24022D302000000808F8E8
:103E5000000000000020203F2020000080808080A3
:103E600080808000203F20003F20003F8080008035
:103E700080800000203F210000203F200000808043
:103E800080800000001F202020201F0080800080F4
:103E90008000000080FFA12020110E0000000080A3
:103EA00080808000000E112020A0FF808080800094
:103EB0008080800020203F212000010000008080C1
:103EC000808080000033242424241900008080E0B6
:103ED000808000000000001F202000008080000083
:103EE00000808000001F202020103F208080800064
:103EF0000080808000010E30080601008080008074
:103F0000008080800F300C030C300F000080800098
:103F1000808080000020312E0E31200080808000C3
:103F20000080808080818E70180601000080808073
:103F3000808080000021302C222130000000000011
:103F4000807C020200000000003F404000000000B2
:103F5000FF00000000000000FF0000000002027CE3
:103F6000800000000040403F00000000000601010A
:103F70000202040400000000000000000000000035
:103F80000000000000000000000000000000000031
:103F9000000000000000000000000000000202FA23
:103FA000FAAAAAFFFFAAAAFAFA0202000042727253
:103FB0003A7A424B5B52626213776600203C1CFFE8
:103FC000FFB0B424243F3FE4E4242420020203FF92
:103FD000FF0001051D59C1FF7F010101000000F82C
:103FE000F8484C4F4B4A4848F8F80000000000FFE2
:103FF000FF44444444444444FFFF0000202424E49C
:10400000E42424243010FFFF10F0F000081C1F0BE4
:104010000C0D4F6E341C0F23607F3F0080C060F892
:10402000FF070200FFFFE0703C1C08000000007F5B
:104030007F0406033F7F4040407878000000000086
:104040000000000000000000000000000000000070
:104050000000000000000000000000000000000060
:104060000000000000000000000000000000000050
:104070000000000000000000000000001021867019
:10408000007E4A4A4A4A4A7E0000000002FE014081
:104090007F41417F41417F41417F40000000FC045E
:1040A0002424FCA5A6A4FC242424040080601F80F2
:1040B0008042462A12122A2642C04000080808FF01
:1040C0008848009848280A2C48D808000242817F76
:1040D0000000404242427E424242400000504F4A6D
:1040E00048FF48484800FC0000FF000000003F0176
:1040F00001FF21613F000F40807F000000908CA4F1
:10410000A4A4A5A6A4A4A4A4948C04000080402088
:1041100018070000003F404040700000000474D4C5
:10412000FFD47404100CB744B40C04000042437A6A
:104130004342437E4B4B4A4A424301000808080869
:104140000808F94A4C4848C80808080040402010B0
:104150000C0300002040403F0000000000202C2401
:104160006474ADA6E43424242C2400000024242507
:1041700015150DFE040D171424642400000000F82A
:1041800048484C4B4A484848F8000000000000FFEF
:104190004444444444444444FF000000202424E4B4
:1041A000242424201010FF1010F00000081C0B081D
:1041B0000C054E24100C0320403F0000080808FFA7
:1041C0008848009848280A2C48D808000242817F75
:1041D0000000404242427E424242400000504F4A6C
:1041E00048FF48484800FC0000FF000000003F0175
:1041F00001FF21613F000F40807F00000807FAAAFD
:10420000AEAAAAA8ACABAAFE0A02020008088B6AF2
:104210001E0A0A0A0AFE0A0B08080800106001C6F6
:104220003000101010FF1010101000000404FE01E8
:10423000004161514D43414151E101004041CE04F3
:10424000008040BE828282BEC040400000007F20CD
:10425000908040432C10102C43C0400020212EE4BD
:10426000000020202020FF20202020000000007FD0
:10427000201008000000FF00000000000000F848C7
:10428000484848FF48484848F800000000000F042C
:104290000404043F444444444F40700000000202C0
:1042A000020202E2120A060200800000010101017E
:1042B0000141817F01010101010101000020202253
:1042C00022E2222222E2222222202000004020108C
:1042D0000C030000003F4040404070004020F80FB9
:1042E00082601E1410FF1010101000000000FF006C
:1042F0000101010101FF01010101010000000000B5
:104300007E4848484848484848CC0800000404040F
:104310000404040404244644201F0000849494FFF1
:10432000949480242424FC1213120000201806FF09
:10433000021C0A0202023F41414171001010D0FEEE
:10434000509000101010D0FE10101000080601FF51
:10435000000110080443807F000000009088A7A29D
:10436000A6BAA2F8A7A2A6BAA282800000040404FA
:10437000040C340444847F04040400000240000060
:10438000000000A00000000005400000000000C880
:10439000000000000C4000000000409C00000000F5
:1043A000194000000020BCBE0000000034400000A6
:1043B000BFC91B8E00000004B5400000504BCFD099
:1043C0006607E2CF010000006C4100003E8251AA66
:1043D000DFEEA73401000000D9420000DCB5A0E206
:1043E0003A301F97FFFFFFFFB4450000FD25A0C82E
:1043F000E9A3C14FFFFFFFFFFF3F00000000008067
:1044000000000000FF3F00000000008000000000EE
:1044100041542B434C4F55444844415554483D6109
:1044200031354865736D55636D432C6E77797465CE
:10443000737430312C524C74346E484F357234667C
:104440006D6375653739746C6D6464657276536934
:10445000504365656F0D0A0041542B434C4F554442
:104460005055423D2F6131354865736D55636D433D
:104470002F6E77797465737430312F757365722F71
:104480007570646174652C302C7B4176656672654D
:104490007175656E63653A25667D0D0A0000000042
:1044A000DC4400080000002050000000C4010008A7
:1044B0002C45000850000020900D0000E00100088D
:1044C0001C00000043000000F8FFFFFF0C0000008C
:1044D0000E0000000F0000002E0000000000000091
:1044E00001000000000000000102030401020304B7
:1044F000060708090000000000000000000000009E
:1045000000000000000000000000000000000000AB
:10451000000000000000000000000000000000009B
:0C4520000000000000000000010000008E
:040000050800018965
:00000001FF
