:020000040800F2
:100000002808002031020008A50900088F05000813
:10001000A10900089D040008D31200080000000098
:10002000000000000000000000000000CD0C0008EF
:10003000A104000800000000450B0008230E000882
:100040004B0200084B0200084B0200084B0200085C
:100050004B0200084B0200084B0200084B0200084C
:100060004B0200084B0200084B0200084B0200083C
:100070004B0200084B0200084B0200084B0200082C
:100080004B0200084B0200084B0200084B0200081C
:100090004B0200084B0200084B0200084B0200080C
:1000A0004B0200084B0200084B0200084B020008FC
:1000B0004B0200088D0E00084B0200084B0200089E
:1000C0004B0200084B0200084B0200084B020008DC
:1000D0004B020008E50F00084B02000881100008E1
:1000E0004B0200084B0200084B0200084B020008BC
:1000F0004B0200084B0200084B0200084B020008AC
:100100004B0200084B0200084B0200084B0200089B
:100110004B0200084B0200084B0200084B0200088B
:100120004B0200084B0200084B0200084B0200087B
:100130004B0200084B0200084B0200084B0200086B
:100140004B0200084B0200084B0200084B0200085B
:100150004B0200084B0200084B0200084B0200084B
:100160004B0200084B0200084B0200084B0200083B
:100170004B0200084B0200084B0200084B0200082B
:100180004B0200084B02000800F002F800F041F8B2
:100190000AA090E8000C82448344AAF10107DA45E2
:1001A00001D100F036F8AFF2090EBAE80F0013F0F3
:1001B000010F18BFFB1A43F001031847AC250000DC
:1001C000CC250000103A24BF78C878C1FAD852076D
:1001D00024BF30C830C144BF04680C6070470000C1
:1001E0000023002400250026103A28BF78C1FBD840
:1001F000520728BF30C148BF0B607047632900F029
:10020000E280002070471FB501F068FC1FBD10B5EB
:1002100010BD00F013F91146FFF7F5FF01F004F9E6
:1002200000F031F903B4FFF7F2FF03BC01F053F81B
:100230000948804709480047FEE7FEE7FEE7FEE77A
:10024000FEE7FEE7FEE7FEE7FEE7FEE704480549B6
:10025000054A064B70470000250E0008890100087A
:10026000280200202808002028040020280400205C
:10027000704700000FB4044910B503AA029800F0BB
:10028000AFF810BC5DF814FB200000202DE9F04110
:100290000E460446002020622046E168884730B3BD
:1002A000252805D0D4E901219047206A401CF2E7B7
:1002B000E168204600278847050018D0A5F14100D5
:1002C000192802D820354FF40067324629462046C7
:1002D0002760FFF793FF40B1012804D0F61D26F0F8
:1002E00007060836D8E7361DD6E72846DAE7206A3B
:1002F000BDE8F08170B50C460546012A05D0287886
:10030000800600D5EA69002302E0012305E05B1CBA
:10031000934202D2E05C0028F9D1A869E618C01A1D
:10032000A861286A184428622846AFF3008004E0D8
:10033000D5E9012114F8010B9047B442F8D32846BF
:10034000AFF3008070BD10B5203AC0F00B80B1E86B
:100350001850203AA0E81850B1E81850A0E81850FA
:10036000BFF4F5AF5FEA027C24BFB1E81850A0E803
:10037000185044BF18C918C0BDE810405FEA827C1D
:1003800024BF51F8043B40F8043B08BF7047D20734
:1003900028BF31F8023B48BF11F8012B28BF20F8D5
:1003A000023B48BF00F8012B704770477047704709
:1003B000704710B5436913B1AFF3008001E0FFF758
:1003C00099FF012010BD127800F124010A7000226B
:1003D0004A700122EDE711684FF0FF32E9E70000B3
:1003E000074B70B50D467B4400F011F804462846D3
:1003F00000F020F810B14FF0FF3070BD204670BD06
:100400002310000001694A1C02610878704700B59A
:100410008FB0CDE901310021059105497944CDE93D
:10042000031011466846FFF731FF0FB000BD000012
:10043000E5FFFFFF007B00F080007047754600F08D
:1004400029F8AE4605006946534620F00700854668
:1004500018B020B5FFF7FAFEBDE820404FF00006C7
:100460004FF000074FF000084FF0000B21F007019C
:10047000AC46ACE8C009ACE8C009ACE8C009ACE8DF
:10048000C0098D4670470446AFF300802046FFF751
:10049000C9FE000000487047C801002000BFFEE709
:1004A0007047F0B50A4600210023002400BF3DE05C
:1004B000012505FA01F3156805EA03049C4234D1CD
:1004C00005684F000326BE40B543056015794E0010
:1004D000B5400668354305601579012D02D01579C0
:1004E000022D16D185684F000326BE40B5438560B6
:1004F00055794E00B54086683543856045680126CC
:100500008E40B5434560456896798E40B6B2354316
:100510004560C5684F000326BE40B543C560D57928
:100520004E00B540C6683543C560491C1029BFD38D
:10053000F0BDF0B5002300244D07ED0E02FA05F3DF
:10054000CE1000F1200555F826504E07F70E0F2665
:10055000BE40B543CF1000F1200646F82750CE101C
:1005600000F1200555F8265045EA0304CE1000F1AD
:10057000200545F82640F0BD0246002013690B40D7
:100580000BB1012000E0002070470183704700BFDD
:10059000FEE710B500F04EF8AE2000F0C5FAD52009
:1005A00000F0C2FA502000F0BFFAA82000F0BCFA18
:1005B0003F2000F0B9FAD32000F0B6FA002000F096
:1005C000B3FA402000F0B0FA8D2000F0ADFA14200C
:1005D00000F0AAFA202000F0A7FA022000F0A4FA06
:1005E000A12000F0A1FAC82000F09EFADA2000F065
:1005F0009BFA122000F098FA812000F095FAEF2083
:1006000000F092FAD92000F08FFAF12000F08CFA75
:10061000DB2000F089FA302000F086FAA42000F0F8
:1006200083FAA62000F080FAAF2000F07DFA00F0F7
:100630001EFA10BD1CB50121022000F085FA4FF40E
:100640004070009001208DF8040000208DF8060015
:1006500003208DF8050001208DF807006946054844
:10066000FFF71FFF0120044908600449C1F8A402F4
:100670001CBD000000040240A082404200804042B5
:1006800070B504461648006820F4402014490860FC
:100690000846006840F48020086000201149086086
:1006A000002517E0E0090F49091D08606006040EE7
:1006B000022000F04DFE01200B49C1F8A0020220EB
:1006C00000F046FE002007490860022000F040FECE
:1006D000681CC5B2082DE5DB00F054F870BD0000C1
:1006E00000040240A08240420080404210B50F4802
:1006F000006820F440200D4908600846006840F476
:100700008020086001200A4908600A49C1F8A00257
:10071000042000F01DFE002005490860042000F0C0
:1007200017FE00200349C1F8A00210BD00040240DA
:10073000A48240420080404210B50F48006820F477
:1007400040200D4908600846006840F48020086099
:1007500001200A49086000200949C1F8A4020420C8
:1007600000F0F6FD0120054908600549C1F8A40222
:10077000042000F0EDFD10BD00040240A0824042C4
:100780000080404210B500241348006820F4402047
:100790001149086008460068086001200F49086098
:1007A00000F0D6FD01200E49C1F8A00200F0D0FDF6
:1007B00007E0601CC4B2FA2C03DDFFF7BDFF012087
:1007C00010BD0648803800680028F2D10349091F8F
:1007D000086000BFF4E7000000040240A482404229
:1007E000008040421CB50121112000F0ADF9182015
:1007F000009000208DF8040003208DF805000120F2
:100800008DF8070069460648FFF74BFE012000906F
:1008100002208DF8070069460248FFF742FE1CBD22
:10082000001002400000024010B5044614B101203F
:10083000234908702248007858B310212148FFF757
:100840009BFE50B108211F48FFF796FE28B10121F9
:100850001D48FFF791FE01281BD10A2000F05CFD26
:1008600000201749087010211648FFF785FE08B9C7
:10087000012010BD08211348FFF77EFE08B90220B1
:10088000F7E701211048FFF777FE012815D1032073
:10089000EFE710210B48FFF76FFE01280DD108216B
:1008A0000848FFF769FE012807D101210648FFF734
:1008B00063FE10B90120024908700020D9E700004A
:1008C00000000020001002400000024030B5054644
:1008D0000C46204600F044F8284600F041F800207D
:1008E0000349086001200349C1F8940230BD0000AB
:1008F00094024042000040421CB50121112000F04A
:1009000023F94FF4C070009001208DF804000020FE
:100910008DF8060003208DF8050001208DF80700F2
:1009200069460D48FFF7BDFD8020009001208DF83D
:10093000040000208DF8060003208DF8050001203A
:100940008DF8070069460548FFF7ABFD4FF4C0710D
:100950000148FFF71AFE1CBD0000024000100240D3
:10096000082115E000F080021AB101220A4B1A603A
:1009700002E00022084B1A604206100E0022064BCD
:1009800008331A600122054BC3F898224A1ED1B2DF
:100990000129E7DA7047000090024042000040421F
:1009A00000BFFEE77047000070B5002100230F2252
:1009B000C4781CB3174C246804F4E064C4F5E06404
:1009C000C4F30721C1F10404E3B20A4144789C4016
:1009D000E1B28478144021430C07210E0E4C0578B7
:1009E0006155047804F01F050124AC4005786D11B1
:1009F000AD0005F1E025C5F8004109E0047804F0F8
:100A00001F050124AC40054D0678761145F82640B7
:100A100070BD00000CED00E000E400E080E100E0CB
:100A200002490143024A1160704700000000FA05C4
:100A30000CED00E070B50646002415E004F1B001AD
:100A4000C8B200F071F8012000F06EF8102000F03C
:100A50006BF8002504E0304600F06DF8681CC5B264
:100A6000802DF8DB601CC4B2082CE7DB70BD10B52C
:100A70000020FFF7DFFF10BD2DE9F04706460F46C7
:100A8000904600250024A14631E018F809002038DE
:100A9000C5B2782E02DD0026781CC7B23946304632
:100AA00000F02EF8002407E004EB0511134A505C17
:100AB00000F041F8601CC4B2082CF5DB781CC1B210
:100AC000304600F01DF8002408E004EB0511083161
:100AD0000A4A505C00F02FF8601CC4B2082CF4DB0A
:100AE00006F10800C6B209F1010000F0FF0918F88C
:100AF00009000028C9D1BDE8F0870000781D000872
:100B000070B504460D4605F1B001C8B200F00CF80E
:100B1000102141EA141000F007F804F00F0141F031
:100B2000010000F001F870BD10B504462146002018
:100B300000F052F910BD10B504462146402000F0E7
:100B40004BF910BD7047000029B1064A12680243F4
:100B5000044B1A6004E0034A12688243014B1A6096
:100B6000704700003038024029B1064A126802433B
:100B7000044B1A6004E0034A12688243014B1A6076
:100B8000704700004038024029B1064A126802430B
:100B9000044B1A6004E0034A12688243014B1A6056
:100BA0007047000044380240F0B5002100220024C4
:100BB000022500260223324F3F6807F00C0121B1C5
:100BC000042905D0082937D105E02E4F076036E00B
:100BD0002D4F076033E02A4F3F1F3F68C7F3805611
:100BE000274F3F1F3F6807F03F036EB1264FB7FB0B
:100BF000F3F7DFF88CC0ACF1040CDCF800C0CCF3E8
:100C0000881C07FB0CF40CE01E4FB7FBF3F7DFF872
:100C100070C0ACF1040CDCF800C0CCF3881C07FBFE
:100C20000CF4174F3F1F3F68C7F301477F1C7D003F
:100C3000B4FBF5F7076002E0124F076000BF00BF8A
:100C40000F4F3F6807F0F0010909104F7A5C076801
:100C5000D74047600A4F3F6807F4E051890A0B4FBD
:100C60007A5C4768D7408760054F3F6807F460416A
:100C7000490B064F7A5C4768D740C760F0BD00005B
:100C8000083802400024F40000127A0028000020F6
:100C90001CB501210846FFF757FF70200090012086
:100CA0008DF8040000208DF8060003208DF8050063
:100CB00001208DF8070069460348FFF7F2FB702119
:100CC0000148FFF762FC1CBD00000240704770B590
:100CD00004460D4600BF4021204600F02BFA0028B4
:100CE000F9D02946204600F0F0FA70BD0CB500207E
:100CF000019000903448006840F480303249086028
:100D000000BF3148006800F4003000900198401C9A
:100D10000190009818B90198B0F5A04FF1D12A4878
:100D2000006800F4003010B10120009001E00020C4
:100D300000900098012846D123484030006840F0D8
:100D400080502149403108602048006840F440400C
:100D50001E4908601C48083000681B4908310860BB
:100D60000846006840F4004008600846006840F407
:100D7000A05008601648091F0860081F006840F06E
:100D80008070091F086000BF0F48006800F0007005
:100D90000028F9D040F205700E4908600A48083072
:100DA000006820F003000849083108600846006820
:100DB00040F00200086000BF03480830006800F0FF
:100DC0000C000828F8D10CBD00380240007000402B
:100DD00008544007003C024070B505460C46FFF73A
:100DE00085FC7820FFF74CFC2846FFF749FC20469D
:100DF000FFF746FCFFF7A0FC70BD042808D14FF0B8
:100E0000E021096941F004014FF0E022116107E09F
:100E10004FF0E021096921F004014FF0E022116157
:100E20007047704710B51548006840F470001349CA
:100E300008601348006840F0010011490860002074
:100E40000F49083108600E4800680E4908400C49F7
:100E500008600D48091D0860081F006820F4802004
:100E6000091F0860002006490C310860FFF73EFFAB
:100E70004FF0006001498039086010BD88ED00E046
:100E800000380240FFFFF6FE1030002410B50121AB
:100E9000074800F020F8012804D106480068401CEB
:100EA000044908600121024800F006F810BD000066
:100EB0000004004014000020CA430282704721B1A0
:100EC000028842F00102028004E002884FF6FE73BD
:100ED0001A400280704730B50246002000230024EB
:100EE000158A05EA0103958905EA010413B10CB1DD
:100EF000012000E0002030BD1AB183890B438381BB
:100F000002E083898B4383817047000000220288BE
:100F1000184B98420ED0184B98420BD0B0F1804F2E
:100F200008D0164B984205D0154B984202D0154B6D
:100F3000984204D14FF68F731A404B881A43124BD4
:100F4000984207D0114B984204D04FF6FF431A4005
:100F50000B891A4302804B68C3620B880385054BDB
:100F6000984202D0044B984201D18B7A0386012328
:100F700083827047000001400004014000040040EB
:100F800000080040000C0040001000400014004029
:100F90007FB505460C4601210220FFF7E5FD002044
:100FA000ADF80C00ADF806000295ADF8044001A9BB
:100FB0000B48FFF7ABFF012211460948FFF79CFFE2
:100FC0001D208DF8000001208DF803008DF8010030
:100FD00003208DF802006846FFF7E6FC7FBD0000A5
:100FE0000004004010B540F22551214800F0AFF850
:100FF00000283BD01E4800F063F91E4908701E48C7
:10100000008800F4004088BB1B48008800F4804042
:1010100070B1084600780A2803D0002016490880DD
:1010200024E01548008840F40040134908801DE082
:10103000104800780D2806D10F48008840F4804001
:101040000D49088012E00B4800780B490988C1F36C
:101050000D010A4A505408480088401C064908807F
:1010600008460088C72801DD0020088010BD000068
:10107000001001401C000020240000203800002047
:1010800010B540F22551214800F061F800283BD00E
:101090001E4800F015F91E4908701E48008800F42B
:1010A000004088BB1B48008800F4804070B10846AF
:1010B00000780A2803D000201649088024E015484B
:1010C000008840F40040134908801DE01048007873
:1010D0000D2806D10F48008840F480400D49088053
:1010E00012E00B4800780B490988C1F30D010A4A48
:1010F000505408480088401C06490880084600886B
:10110000C72801DD0020088010BD00000048004015
:101110001D000020260000200001002021B182894E
:1011200042F40052828104E082894DF6FF731A4036
:101130008281704702460020B1F5007F00D100BFD8
:1011400013880B400BB1012000E00020704770B500
:101150000246002400230025002040F66A16B14212
:1011600000D100BFC1F3421501F01F03012606FAAA
:1011700003F3012D02D19689334006E0022D02D1FE
:10118000168A334001E0968A33400C12012606FA93
:1011900004F41688344013B10CB1012000E00020A3
:1011A00070BDF0B50346002400260025002040F65F
:1011B0006A17B94200D100BF1846C1F3421401F0CA
:1011C0001F06012707FA06F5012C01D10C3004E0B7
:1011D000022C01D1103000E014301AB107682F43FF
:1011E000076002E00768AF430760F0BD2DE9FF47E5
:1011F00005460E460024A14600BFA046B08900B1B6
:1012000000BF2C8A24F44054F08804432C82AC891B
:1012100041F20C608443B0883189084371890843E6
:101220000443AC81AC8A24F44074B0890443AC829A
:101230006846FFF7B9FC2048854202D01F48854226
:1012400002D1DDF80C9001E0DDF80890A88900F4E7
:10125000004040B109EBC90000EB091031684900BA
:10126000B0FBF1F707E009EBC90000EB09103168AA
:101270008900B0FBF1F76420B7FBF0F0040120090E
:10128000642101FB1078A88900F4004040B13220AD
:1012900000EBC800B0FBF1F000F00700044308E0E9
:1012A000322000EB08106421B0FBF1F000F00F00D9
:1012B00004432C81BDE8FF87001001400014014069
:1012C00001468888C0F308007047C1F30802828095
:1012D000704700BFFEE7014600BF704710B50446E7
:1012E0006FF00400FFF789FDE11704EB5171C1F3C2
:1012F000C701074A11701046007800EB4001C1EBAE
:10130000C0104FF6FF7101EAC0000249088010BD0D
:10131000180000201A00002070B504464FF4077032
:1013200094FBF0F0C6B24FF4077094FBF0F100FBB1
:10133000114085B205E04FF4077000F02FF8701EE1
:10134000C6B2002EF7D115B1284600F027F870BDBF
:101350000146114A12784A434FF0E0235A610022B5
:101360009A611A46126942F001021A6100BF4FF0F9
:10137000E022106900F001021AB100F48032002A64
:10138000F5D04FF0E022126922F001024FF0E02385
:101390001A6100229A617047180000200146114A24
:1013A00012884A434FF0E0235A6100229A611A469C
:1013B000126942F001021A6100BF4FF0E022106989
:1013C00000F001021AB100F48032002AF5D04FF08B
:1013D000E022126922F001024FF0E0231A6100229C
:1013E0009A6170471A00002010B5052409E00648EC
:1013F000015D0120FFF76AFA4FF47A70FFF78CFF66
:10140000641E002CF3DC10BD0100002000BF054A63
:10141000128802F04002002AF9D0C2B2014B9A8031
:101420007047000000100140A820FFF757FF4FF45D
:10143000165000F0A7FA4FF4165000F0F9FAFFF733
:101440005BFAFFF725FCFFF7CDF9FFF7A2F8FFF7EE
:101450000EFB42F2CF0140F2F310FFF799FD4FF47B
:10146000A060FFF7DDFAD74801780120FFF72EFAD8
:10147000002000F02BFAD4A200210846FFF7FCFA66
:10148000D5A202210020FFF7F7FA41F28830FFF7DA
:1014900043FFFFF7ECFAD2A200210846FFF7ECFA6F
:1014A000D3A202210020FFF7E7FA1EE0D24800781D
:1014B0000E281AD10F21D148FFF709FC0020D0498E
:1014C0000860FFF7D4FACFA200210846FFF7D4FA4C
:1014D000D0A202210020FFF7CFFA022000F0F6F997
:1014E0004FF4FA60FFF718FF00E0DFE700BFFFF7F7
:1014F000BEFACBA200210846FFF7BEFACBA202211A
:101500000020FFF7B9FA1BE0BB480078662817D126
:101510000020BB49091F0860FFF7A9FAB9A2002102
:101520000846FFF7A9FABBA202210020FFF7A4FAA0
:10153000012000F0CBF94FF4FA60FFF7EDFE00E078
:10154000E2E700BFBCA200210846FFF795FA03209E
:1015500000F0BCF9FFF748FF042000F0B7F900F0F5
:10156000CFF9052000F0B2F941F28830FFF7D4FE40
:10157000FFF77DFA99A200210846FFF77DFAB1A294
:1015800002210020FFF778FA08E010219B48FFF7BE
:101590009EFB99480078112800D100E0F5E700BFD4
:1015A000062000F093F9FFF762FAA9A2002108468D
:1015B000FFF762FA42F6E060FFF7AEFE072000F0A8
:1015C00085F9FFF754FAA5A200210846FFF754FA5F
:1015D000A6A202210020FFF74FFA4FF4FA60FFF7AE
:1015E0009BFE06E00020FFF71FF90446012C00D106
:1015F00000E0F7E700BF082000F068F94FF4FA5068
:10160000FFF78AFE092000F061F9FFF730FA9BA28C
:1016100000210846FFF730FA9CA202210020FFF7C4
:101620002BFA4FF4FA60FFF777FE00F069F90A2011
:1016300000F04CF9FFF71BFA96A200210846FFF7CD
:101640001BFA92A202210020FFF716FA4FF4FA606B
:10165000FFF762FE06E00020FFF7E6F80446022CE2
:1016600000D100E0F7E700BF0B2000F02FF9FFF7F3
:10167000FEF98BA200210846FFF7FEF98CA2022199
:101680000020FFF7F9F941F27070FFF745FE08E01E
:1016900012215A48FFF71BFB57480078132800D146
:1016A00000E0F5E700BF062000F010F9FFF7DFF9D2
:1016B00067A200210846FFF7DFF942F21070FFF73A
:1016C0002BFE072000F002F9FFF7D1F963A20021F9
:1016D0000846FFF7D1F965A202210020FFF7CCF9F7
:1016E0004FF4FA60FFF718FE06E00020FFF79CF8C1
:1016F0000446012C00D100E0F7E700BF082000F00D
:10170000E5F84FF4FA50FFF707FE092000F0DEF885
:10171000FFF7ADF959A200210846FFF7ADF95BA22A
:1017200002210020FFF7A8F94FF4FA60FFF7F4FD5B
:1017300000F0E6F80A2000F0C9F8FFF798F955A282
:1017400000210846FFF798F950A202210020FFF778
:1017500093F94FF4FA60FFF7DFFD06E00020FFF792
:1017600063F80446022C00D100E0F7E700BF0B202D
:1017700000F0ACF8FFF77BF949A200210846FFF71B
:101780007BF94BA202210020FFF776F941F270703D
:10179000FFF7C2FD08E014211848FFF798FA164831
:1017A0000078152800D100E0F5E700BFFFF75FF9EA
:1017B00042A200210846FFF75FF90C2000F086F8EE
:1017C00000BFFEE70100002057656C636F6D652068
:1017D000746F2075736500004145442043505200EA
:1017E000506C6561736520636F6E6E656374000095
:1017F00064756D6D790000001D00002000480040F8
:10180000A00240427375636365737366756C6C798F
:1018100000000000636F6E6E656374656400000015
:10182000204E6574776F726B00000000636F6E6509
:101830006374696E6700000041454420537461720F
:1018400074000000706C65617365207761697400D5
:10185000435052206F76657200000000506C656145
:10186000736520616E616C79736500007468652032
:1018700068656172742072617465000064656669F0
:101880006272696C6C6174696F6E0000706C656186
:1018900073650000646973636861726765000000C6
:1018A000646973636861726765206F7665720000B2
:1018B000706C65617365204350520000456E642072
:1018C0006F662055736520414544000030B59BB0DC
:1018D00005466822084901A8FEF735FD002407E007
:1018E00001A800EBC500015D04A0FEF7C3FC641C69
:1018F000082CF5DB1BB030BDE81A0008256300009A
:1019000070B500201C49086032E01B48006818B917
:1019100001211A48FFF7D3FA17480068652804D157
:1019200000211648FFF7CBFA23E013480068642132
:1019300090FBF1F41048006890FBF1F201FB1200FB
:101940000A2190FBF1F50C48006890FBF1F201FBD5
:1019500012060B48015D0420FEF7B8FF0848415D00
:101960000220FEF7B3FF0648815D0120FEF7AEFFBF
:10197000CBE700BF70BD0000140000200004004051
:101980000100002010B588B0044601210220FFF7B5
:10199000DBF801218804FFF7E7F807220B21224832
:1019A000FEF7C7FD07220A211F48FEF7C2FD4FF4CC
:1019B0004060069002208DF81C008DF81D0000206C
:1019C0008DF81E0001208DF81F0006A91648FEF7AD
:1019D00068FD02940020ADF80C00ADF80E00ADF8E3
:1019E0001000ADF814000C20ADF8120002A90F4849
:1019F000FFF7FCFB01210D48FFF790FB012240F2AD
:101A000025510A48FFF7CDFB27208DF8040003205D
:101A10008DF805008DF8060001208DF8070001A85B
:101A2000FEF7C2FF08B010BD0004024000480040AD
:101A300010B588B0044601210846FFF785F801215A
:101A40001020FFF7A1F8072209212248FEF771FDB7
:101A500007220A211F48FEF76CFD4FF4C060069074
:101A600002208DF81C008DF81D0000208DF81E004E
:101A700001208DF81F0006A91648FEF712FD0294FA
:101A80000020ADF80C00ADF80E00ADF81000ADF878
:101A900014000C20ADF8120002A90F48FFF7A6FBB6
:101AA00001210D48FFF73AFB012240F225510A4877
:101AB000FFF777FB25208DF8040003208DF8050043
:101AC0008DF8060001208DF8070001A8FEF76CFFD5
:101AD00008B010BD00000240001001404FF04070FF
:101AE000E1EE100A704700007EFF0603000001EFE0
:101AF0007EFF0603000002EF7EFF0603000003EFF7
:101B00007EFF0603000004EF7EFF0603000005EFE2
:101B10007EFF0603000006EF7EFF0603000007EFCE
:101B20007EFF0603000008EF7EFF0603000009EFBA
:101B30007EFF060300000AEF7EFF060300000BEFA6
:101B40007EFF060300000CEF7EFF060300000DEF92
:101B50000000000000000000002F0000000007004F
:101B6000070000147F147F1400242A7F2A120062C9
:101B70006408132300364955225000000503000075
:101B800000001C224100000041221C000014083EFD
:101B900008140008083E0808000000A060000008C3
:101BA0000808080800006060000000201008040217
:101BB000003E5149453E0000427F400000426151D5
:101BC0004946002141454B31001814127F1000276F
:101BD00045454539003C4A49493000017109050332
:101BE00000364949493600064949291E0000363663
:101BF00000000000563600000008142241000014C6
:101C000014141414000041221408000201510906A2
:101C100000324959513E007C1211127C007F494923
:101C20004936003E41414122007F4141221C007F54
:101C300049494941007F09090901003E4149497A62
:101C4000007F0808087F0000417F410000204041DC
:101C50003F01007F08142241007F40404040007F48
:101C6000020C027F007F0408107F003E4141413E8C
:101C7000007F09090906003E4151215E007F0919D4
:101C800029460046494949310001017F0101003FD1
:101C90004040403F001F2040201F003F4038403F51
:101CA00000631408146300070870080700615149B5
:101CB000454300007F41410000552A552A55000048
:101CC00041417F00000402010204004040404040C6
:101CD000000001020400002054545478007F48445E
:101CE000443800384444442000384444487F003895
:101CF0005454541800087E0901020018A4A4A47CBE
:101D0000007F080404780000447D40000040808487
:101D10007D00007F102844000000417F4000007CCF
:101D200004180478007C08040478003844444438DB
:101D300000FC242424180018242418FC007C080427
:101D4000040800485454542000043F444020003C00
:101D50004040207C001C2040201C003C4030403C87
:101D6000004428102844001CA0A0A07C0044645417
:101D70004C4414141414141400000000000000005B
:101D80000000000000000000000000F8000000005B
:101D9000000000333000000000100C06100C06009C
:101DA000000000000000000040C07840C078400003
:101DB000043F04043F040400007088FC0830000065
:101DC000001820FF211E0000F008F000E0180000BD
:101DD00000211C031E211E0000F008887000000076
:101DE0001E2123241927211010160E0000000000C8
:101DF0000000000000000000000000E018040200E5
:101E0000000000071820400000020418E000000055
:101E10000040201807000000404080F08040400053
:101E20000202010F01020200000000F000000000A9
:101E30000101011F0101010000000000000000007D
:101E400080B07000000000000000000000000000F2
:101E5000000101010101010100000000000000007B
:101E60000030300000000000000000008060180416
:101E7000006018060100000000E010080810E000F3
:101E8000000F102020100F00001010F800000000BC
:101E90000020203F20200000007008080888700003
:101EA0000030282422213000003008888848300083
:101EB0000018202020110E000000C02010F80000A3
:101EC00000070424243F240000F80888880808003C
:101ED0000019212020110E0000E010888818000051
:101EE000000F112020110E0000380808C838080023
:101EF0000000003F000000000070880808887000A3
:101F0000001C222121221C0000E010080810E00023
:101F10000000312222110F00000000C0C0000000AC
:101F200000000030300000000000008000000000D1
:101F300000008060000000000000804020100800C9
:101F40000001020408102000404040404040400092
:101F5000040404040404040000081020408000006D
:101F60000020100804020100007048080808F00072
:101F70000000003036010000C030C828E810E00042
:101F80000718272423140B000000C038E0000000CD
:101F9000203C23020227382008F888888870000037
:101FA000203F202020110E00C0300808080838000B
:101FB000071820202010080008F808080810E00082
:101FC000203F202020100F0008F88888E808100023
:101FD000203F20202320180008F88888E8081000F7
:101FE000203F200003000000C0300808083800002F
:101FF00007182020221E020008F808000008F80830
:10200000203F210101213F20000808F808080000B6
:102010000020203F2020000000000808F8080800E9
:10202000C08080807F00000008F888C02818080061
:10203000203F20012638200008F80800000000009A
:10204000203F20202020300008F8F800F8F8080091
:10205000203F003F003F200008F830C00008F8088B
:10206000203F200007183F00E01008080810E0009B
:102070000F10202020100F0008F808080808F000B2
:10208000203F210101010000E01008080810E000D5
:102090000F18242438504F0008F88888888870006A
:1020A000203F2000030C302000708808080838000A
:1020B0000038202121221C00180808F80808180000
:1020C0000000203F2000000008F808000008F80881
:1020D000001F202020201F000878880000C8380832
:1020E000000007380E010000F80800F80008F800AA
:1020F000033C0700073C0300081868808068180844
:1021000020302C03032C30200838C800C8380800C1
:102110000000203F2000000010080808C838080010
:102120002038262120201800000000FE02020200B4
:102130000000007F40404000000C30C00000000064
:10214000000000010638C00000020202FE0000008C
:10215000004040407F000000000004020202040032
:10216000000000000000000000000000000000006F
:102170008080808080808080000202040000000057
:10218000000000000000000000008080808000004F
:102190000019242222223F2008F80080800000003D
:1021A000003F112020110E00000000808080000000
:1021B000000E112020201100000000808088F8000F
:1021C000000E112020103F20000080808080000041
:1021D000001F222222221300008080F088888818A5
:1021E0000020203F202000000000808080808000B0
:1021F000006B94949493600008F800808080000045
:10220000203F210000203F2000809898000000001F
:102210000020203F2020000000000080989800004F
:1022200000C08080807F000008F80000808080006F
:10223000203F24022D302000000808F80000000094
:102240000020203F2020000080808080808080004F
:10225000203F20003F20003F8080008080800000E1
:10226000203F210000203F2000008080808000006F
:10227000001F202020201F008080008080000000A0
:1022800080FFA12020110E000000008080808000CF
:10229000000E112020A0FF808080800080808000C0
:1022A00020203F21200001000000808080808000ED
:1022B0000033242424241900008080E08080000062
:1022C0000000001F202000008080000000808000AF
:1022D000001F202020103F20808080000080808010
:1022E00000010E30080601008080008000808080A0
:1022F0000F300C030C300F000080800080808000C5
:102300000020312E0E3120008080800000808080EF
:1023100080818E701806010000808080808080009F
:102320000021302C2221300000000000807C0202BD
:1023300000000000003F404000000000FF000000DF
:1023400000000000FF0000000002027C800000008E
:102350000040403F000000000006010102020404AA
:10236000000000000000000000000000000000006D
:10237000000000000000000000000000000000005D
:102380000000000000000000000202FAFAAAAAFF02
:10239000FFAAAAFAFA020200004272723A7A424B8B
:1023A0005B52626213776600203C1CFFFFB0B424CE
:1023B000243F3FE4E4242420020203FFFF00010540
:1023C0001D59C1FF7F010101000000F8F8484C4F82
:1023D0004B4A4848F8F80000000000FFFF4444441E
:1023E00044444444FFFF0000202424E4E424242443
:1023F0003010FFFF10F0F000081C1F0B0C0D4F6E8B
:10240000341C0F23607F3F0080C060F8FF0702008C
:10241000FFFFE0703C1C08000000007F7F04060303
:102420003F7F40404078780000000000000000003E
:10243000000000000000000000000000000000009C
:10244000000000000000000000000000000000008C
:10245000000000000000000000000000000000007C
:10246000000000000000000010218670007E4A4A33
:102470004A4A4A7E0000000002FE01407F41417F3F
:1024800041417F41417F40000000FC042424FCA521
:10249000A6A4FC242424040080601F808042462AD5
:1024A00012122A2642C04000080808FF88480098F7
:1024B00048280A2C48D808000242817F0000404288
:1024C00042427E424242400000504F4A48FF484844
:1024D0004800FC0000FF000000003F0101FF2161F7
:1024E0003F000F40807F000000908CA4A4A4A5A60C
:1024F000A4A4A4A4948C0400008040201807000029
:10250000003F404040700000000474D4FFD47404C5
:10251000100CB744B40C04000042437A4342437E9B
:102520004B4B4A4A42430100080808080808F94A88
:102530004C4848C808080800404020100C03000020
:102540002040403F0000000000202C246474ADA611
:10255000E43424242C2400000024242515150DFE29
:10256000040D171424642400000000F848484C4B64
:102570004A484848F8000000000000FF4444444432
:1025800044444444FF000000202424E42424242064
:102590001010FF1010F00000081C0B080C054E2452
:1025A000100C0320403F0000080808FF88480098EE
:1025B00048280A2C48D808000242817F0000404287
:1025C00042427E424242400000504F4A48FF484843
:1025D0004800FC0000FF000000003F0101FF2161F6
:1025E0003F000F40807F00000807FAAAAEAAAAA801
:1025F000ACABAAFE0A02020008088B6A1E0A0A0A8D
:102600000AFE0A0B08080800106001C6300010100E
:1026100010FF1010101000000404FE010041615171
:102620004D43414151E101004041CE04008040BE94
:10263000828282BEC040400000007F2090804043E4
:102640002C10102C43C0400020212EE4000020203C
:102650002020FF20202020000000007F2010080004
:102660000000FF00000000000000F848484848FF54
:1026700048484848F800000000000F040404043FE4
:10268000444444444F40700000000202020202E24F
:10269000120A060200800000010101010141817F50
:1026A00001010101010101000020202222E2222279
:1026B00022E2222222202000004020100C030000F1
:1026C000003F4040404070004020F80F82601E14E0
:1026D00010FF1010101000000000FF0001010101A8
:1026E00001FF010101010100000000007E4848488F
:1026F0004848484848CC0800000404040404040482
:1027000004244644201F0000849494FF9494802461
:102710002424FC1213120000201806FF021C0A02D7
:1027200002023F41414171001010D0FE5090001054
:102730001010D0FE10101000080601FF0001100854
:102740000443807F000000009088A7A2A6BAA2F8E8
:10275000A7A2A6BAA282800000040404040C3404D8
:1027600044847F040404000088270008000000203F
:1027700038000000C4010008C0270008380000200D
:10278000F0070000E001000801C0F9A4B0999282AE
:10279000F880908CBFC6A186FFBF0000000000003B
:1027A0000000000000000000000000000000000029
:1027B00000000000010203040102030406070809E7
:040000050800018965
:00000001FF
