Component: ARM Compiler 5.05 update 1 (build 106) Tool: armlink [4d0efa]

==============================================================================

Section Cross References

    system_stm32f4xx.o(i.SystemCoreClockUpdate) refers to system_stm32f4xx.o(.data) for SystemCoreClock
    system_stm32f4xx.o(i.SystemInit) refers to system_stm32f4xx.o(i.SetSysClock) for SetSysClock
    main.o(i.Display_Frequence) refers to oled.o(i.OLED_P8x16Str) for OLED_P8x16Str
    main.o(i.Display_Frequence) refers to oled.o(i.OLED_P8x16Ch) for OLED_P8x16Ch
    main.o(i.main) refers to _printf_percent.o(.ARM.Collect$$_printf_percent$$00000000) for _printf_percent
    main.o(i.main) refers to _printf_f.o(.ARM.Collect$$_printf_percent$$00000003) for _printf_f
    main.o(i.main) refers to printf1.o(x$fpl$printf1) for _printf_fp_dec
    main.o(i.main) refers to _printf_d.o(.ARM.Collect$$_printf_percent$$00000009) for _printf_d
    main.o(i.main) refers to _printf_dec.o(.text) for _printf_int_dec
    main.o(i.main) refers to misc.o(i.NVIC_PriorityGroupConfig) for NVIC_PriorityGroupConfig
    main.o(i.main) refers to delay.o(i.delay_init) for delay_init
    main.o(i.main) refers to oled.o(i.I2C_OLED_Init) for I2C_OLED_Init
    main.o(i.main) refers to usart.o(i.uart_init) for uart_init
    main.o(i.main) refers to usart.o(i.uart3_init) for uart3_init
    main.o(i.main) refers to oled.o(i.OLED_CLC) for OLED_CLC
    main.o(i.main) refers to timer.o(i.Timer_My_Init) for Timer_My_Init
    main.o(i.main) refers to led.o(i.LED_Init) for LED_Init
    main.o(i.main) refers to key.o(i.KEY_Init) for KEY_Init
==============================================================================

Removing Unused input sections from the image.

    Removing system_stm32f4xx.o(.rev16_text), (4 bytes).
    Removing system_stm32f4xx.o(.revsh_text), (4 bytes).
    Removing system_stm32f4xx.o(i.SystemCoreClockUpdate), (192 bytes).
    Removing system_stm32f4xx.o(.data), (20 bytes).
    Removing stm32f4xx_it.o(.rev16_text), (4 bytes).
    Removing stm32f4xx_it.o(.revsh_text), (4 bytes).
    Removing main.o(.rev16_text), (4 bytes).
    Removing main.o(.revsh_text), (4 bytes).
    Removing misc.o(.rev16_text), (4 bytes).
    Removing misc.o(.revsh_text), (4 bytes).
    Removing misc.o(i.NVIC_SetVectorTable), (20 bytes).
    Removing misc.o(i.NVIC_SystemLPConfig), (32 bytes).
    Removing stm32f4xx_dac.o(.rev16_text), (4 bytes).
    Removing stm32f4xx_dac.o(.revsh_text), (4 bytes).
    Removing stm32f4xx_dac.o(i.DAC_ClearFlag), (16 bytes).
    Removing stm32f4xx_dac.o(i.DAC_ClearITPendingBit), (16 bytes).
    Removing stm32f4xx_dac.o(i.DAC_Cmd), (40 bytes).
    Removing stm32f4xx_dac.o(i.DAC_DMACmd), (44 bytes).
==============================================================================

Image Symbol Table

    Local Symbols

    Symbol Name                              Value     Ov Type        Size  Object(Section)

    ../clib/angel/boardlib.s                 0x00000000   Number         0  boardinit1.o ABSOLUTE
    ../clib/angel/boardlib.s                 0x00000000   Number         0  boardshut.o ABSOLUTE
    ../clib/angel/boardlib.s                 0x00000000   Number         0  boardinit3.o ABSOLUTE
    ../clib/angel/boardlib.s                 0x00000000   Number         0  boardinit2.o ABSOLUTE
    ../clib/angel/handlers.s                 0x00000000   Number         0  __scatter_copy.o ABSOLUTE
    ../clib/angel/handlers.s                 0x00000000   Number         0  __scatter_zi.o ABSOLUTE
    ../clib/angel/kernel.s                   0x00000000   Number         0  __rtentry.o ABSOLUTE
    ../clib/angel/kernel.s                   0x00000000   Number         0  rtexit.o ABSOLUTE
    ../clib/angel/kernel.s                   0x00000000   Number         0  rtexit2.o ABSOLUTE
    ../clib/angel/kernel.s                   0x00000000   Number         0  __rtentry4.o ABSOLUTE
    ../clib/angel/kernel.s                   0x00000000   Number         0  __rtentry2.o ABSOLUTE
    ../clib/angel/rt.s                       0x00000000   Number         0  rt_locale_intlibspace.o ABSOLUTE
    ../clib/angel/rt.s                       0x00000000   Number         0  rt_raise.o ABSOLUTE
    ../clib/angel/rt.s                       0x00000000   Number         0  rt_locale.o ABSOLUTE
    ../clib/angel/scatter.s                  0x00000000   Number         0  __scatter.o ABSOLUTE
    ../clib/angel/startup.s                  0x00000000   Number         0  __main.o ABSOLUTE
    ../clib/angel/sys.s                      0x00000000   Number         0  use_no_semi_2.o ABSOLUTE
    ../clib/angel/sys.s                      0x00000000   Number         0  indicate_semi.o ABSOLUTE
    ../clib/angel/sys.s                      0x00000000   Number         0  use_no_semi.o ABSOLUTE
    ../clib/angel/sys.s                      0x00000000   Number         0  libspace.o ABSOLUTE
    ../clib/angel/sys.s                      0x00000000   Number         0  sys_stackheap_outer.o ABSOLUTE
    ../clib/angel/sysapp.c                   0x00000000   Number         0  sys_command.o ABSOLUTE
    ../clib/angel/sysapp.c                   0x00000000   Number         0  sys_wrch.o ABSOLUTE
    ../clib/armsys.c                         0x00000000   Number         0  no_argv.o ABSOLUTE
    ../clib/armsys.c                         0x00000000   Number         0  argv_veneer.o ABSOLUTE
    ../clib/armsys.c                         0x00000000   Number         0  argv_veneer.o ABSOLUTE
    ../clib/armsys.c                         0x00000000   Number         0  _get_argv_nomalloc.o ABSOLUTE
    ../clib/bigflt.c                         0x00000000   Number         0  bigflt0.o ABSOLUTE
    ../clib/btod.s                           0x00000000   Number         0  btod.o ABSOLUTE
    ../clib/heapalloc.c                      0x00000000   Number         0  hrguard.o ABSOLUTE
    ../clib/heapaux.c                        0x00000000   Number         0  heapauxi.o ABSOLUTE
    ../clib/libinit.s                        0x00000000   Number         0  libinit.o ABSOLUTE
    ../clib/libinit.s                        0x00000000   Number         0  libinit2.o ABSOLUTE
    ../clib/libinit.s                        0x00000000   Number         0  libshutdown2.o ABSOLUTE
    ../clib/libinit.s                        0x00000000   Number         0  libshutdown.o ABSOLUTE
    ../clib/locale.s                         0x00000000   Number         0  lc_numeric_c.o ABSOLUTE
    ../clib/longlong.s                       0x00000000   Number         0  lludiv10.o ABSOLUTE
    ../clib/memcpset.s                       0x00000000   Number         0  strcmpv7m.o ABSOLUTE
    ../clib/misc.s                           0x00000000   Number         0  printf_stubs.o ABSOLUTE
    ../clib/printf.c                         0x00000000   Number         0  _printf_fp_infnan.o ABSOLUTE
    ../clib/printf.c                         0x00000000   Number         0  __printf_nopercent.o ABSOLUTE
    ../clib/printf.c                         0x00000000   Number         0  __printf_wp.o ABSOLUTE
    ../clib/printf.c                         0x00000000   Number         0  __printf_flags_wp.o ABSOLUTE
    ../clib/printf.c                         0x00000000   Number         0  _printf_fp_dec.o ABSOLUTE
    ../clib/printf.c                         0x00000000   Number         0  __printf_flags_ss_wp.o ABSOLUTE
    ../clib/printf.c                         0x00000000   Number         0  _printf_char_file.o ABSOLUTE
    ../clib/printf.c                         0x00000000   Number         0  __printf_flags_ss.o ABSOLUTE
    ../clib/printf.c                         0x00000000   Number         0  __2printf.o ABSOLUTE
    ../clib/printf.c                         0x00000000   Number         0  __printf_ss_wp.o ABSOLUTE
    ../clib/printf.c                         0x00000000   Number         0  noretval__2printf.o ABSOLUTE
    ../clib/printf.c                         0x00000000   Number         0  __printf.o ABSOLUTE
    ../clib/printf.c                         0x00000000   Number         0  _printf_char_common.o ABSOLUTE
    ../clib/printf.c                         0x00000000   Number         0  _printf_dec.o ABSOLUTE
    ../clib/printf.c                         0x00000000   Number         0  __printf_flags.o ABSOLUTE
    ../clib/printf.c                         0x00000000   Number         0  __printf_ss.o ABSOLUTE
    ../clib/printf.c                         0x00000000   Number         0  _printf_intcommon.o ABSOLUTE
    ../clib/printf_percent.s                 0x00000000   Number         0  _printf_d.o ABSOLUTE
    ../clib/printf_percent.s                 0x00000000   Number         0  _printf_percent.o ABSOLUTE
    ../clib/printf_percent.s                 0x00000000   Number         0  _printf_percent_end.o ABSOLUTE
    ../clib/printf_percent.s                 0x00000000   Number         0  _printf_f.o ABSOLUTE
    ../clib/signal.c                         0x00000000   Number         0  defsig_abrt_inner.o ABSOLUTE
    ../clib/signal.c                         0x00000000   Number         0  defsig_general.o ABSOLUTE
    ../clib/signal.c                         0x00000000   Number         0  defsig_other.o ABSOLUTE
    ../clib/signal.c                         0x00000000   Number         0  __raise.o ABSOLUTE
    ../clib/signal.c                         0x00000000   Number         0  defsig_rtmem_inner.o ABSOLUTE
    ../clib/signal.c                         0x00000000   Number         0  defsig_exit.o ABSOLUTE
    ../clib/signal.c                         0x00000000   Number         0  defsig_rtmem_formal.o ABSOLUTE
    ../clib/signal.c                         0x00000000   Number         0  defsig_rtmem_outer.o ABSOLUTE
    ../clib/signal.c                         0x00000000   Number         0  defsig_segv_inner.o ABSOLUTE
    ../clib/signal.c                         0x00000000   Number         0  defsig_cppl_inner.o ABSOLUTE
    ../clib/signal.c                         0x00000000   Number         0  defsig_pvfn_inner.o ABSOLUTE
    ../clib/signal.c                         0x00000000   Number         0  defsig_stak_inner.o ABSOLUTE
    ../clib/signal.c                         0x00000000   Number         0  defsig_rtred_inner.o ABSOLUTE
    ../clib/signal.c                         0x00000000   Number         0  defsig_fpe_inner.o ABSOLUTE
    ../clib/signal.s                         0x00000000   Number         0  defsig.o ABSOLUTE
    ../clib/stdio.c                          0x00000000   Number         0  ferror_locked.o ABSOLUTE
    ../clib/stdio.c                          0x00000000   Number         0  ferror.o ABSOLUTE
    ../clib/stdlib.c                         0x00000000   Number         0  exit.o ABSOLUTE
    ../fplib/ddiv.s                          0x00000000   Number         0  ddiv.o ABSOLUTE
    ../fplib/dfix.s                          0x00000000   Number         0  dfix.o ABSOLUTE
    ../fplib/dflt.s                          0x00000000   Number         0  dflt_clz.o ABSOLUTE
    ../fplib/dnaninf.s                       0x00000000   Number         0  dnaninf.o ABSOLUTE
    ../fplib/dretinf.s                       0x00000000   Number         0  dretinf.o ABSOLUTE
    ../fplib/f2d.s                           0x00000000   Number         0  f2d.o ABSOLUTE
    ../fplib/fnaninf.s                       0x00000000   Number         0  fnaninf.o ABSOLUTE
    ../fplib/fpinit.s                        0x00000000   Number         0  fpinit.o ABSOLUTE
    ../fplib/istatus.s                       0x00000000   Number         0  istatus.o ABSOLUTE
    ../fplib/printf1.s                       0x00000000   Number         0  printf1.o ABSOLUTE
    ../fplib/usenofp.s                       0x00000000   Number         0  usenofp.o ABSOLUTE
    ../mathlib/fpclassify.c                  0x00000000   Number         0  fpclassify.o ABSOLUTE
    ..\CORE\startup_stm32f40_41xxx.s         0x00000000   Number         0  startup_stm32f40_41xxx.o ABSOLUTE
    ..\FWLIE\src\misc.c                      0x00000000   Number         0  misc.o ABSOLUTE
    ..\FWLIE\src\stm32f4xx_adc.c             0x00000000   Number         0  stm32f4xx_adc.o ABSOLUTE
    ..\FWLIE\src\stm32f4xx_dac.c             0x00000000   Number         0  stm32f4xx_dac.o ABSOLUTE
    ..\FWLIE\src\stm32f4xx_exti.c            0x00000000   Number         0  stm32f4xx_exti.o ABSOLUTE
    ..\FWLIE\src\stm32f4xx_flash.c           0x00000000   Number         0  stm32f4xx_flash.o ABSOLUTE
    ..\FWLIE\src\stm32f4xx_flash_ramfunc.c   0x00000000   Number         0  stm32f4xx_flash_ramfunc.o ABSOLUTE
    ..\FWLIE\src\stm32f4xx_fsmc.c            0x00000000   Number         0  stm32f4xx_fsmc.o ABSOLUTE
    ..\FWLIE\src\stm32f4xx_gpio.c            0x00000000   Number         0  stm32f4xx_gpio.o ABSOLUTE
    ..\FWLIE\src\stm32f4xx_i2c.c             0x00000000   Number         0  stm32f4xx_i2c.o ABSOLUTE
    ..\FWLIE\src\stm32f4xx_rcc.c             0x00000000   Number         0  stm32f4xx_rcc.o ABSOLUTE
    ..\FWLIE\src\stm32f4xx_sdio.c            0x00000000   Number         0  stm32f4xx_sdio.o ABSOLUTE
    ..\FWLIE\src\stm32f4xx_spi.c             0x00000000   Number         0  stm32f4xx_spi.o ABSOLUTE
    ..\FWLIE\src\stm32f4xx_syscfg.c          0x00000000   Number         0  stm32f4xx_syscfg.o ABSOLUTE
    ..\FWLIE\src\stm32f4xx_tim.c             0x00000000   Number         0  stm32f4xx_tim.o ABSOLUTE
    ..\FWLIE\src\stm32f4xx_usart.c           0x00000000   Number         0  stm32f4xx_usart.o ABSOLUTE
    ..\HARDWARE\ADC\adc.c                    0x00000000   Number         0  adc.o ABSOLUTE
    ..\HARDWARE\HX711\hx711.c                0x00000000   Number         0  hx711.o ABSOLUTE
    ..\HARDWARE\KEY\key.c                    0x00000000   Number         0  key.o ABSOLUTE
    ..\HARDWARE\LED\led.c                    0x00000000   Number         0  led.o ABSOLUTE
    ..\HARDWARE\OLED_IIC_Done\OLED.c         0x00000000   Number         0  oled.o ABSOLUTE
    ..\HARDWARE\OLED_IIC_Done\myiic.c        0x00000000   Number         0  myiic.o ABSOLUTE
    ..\HARDWARE\TIME\timer.c                 0x00000000   Number         0  timer.o ABSOLUTE
    ..\SYSTEM\delay\delay.c                  0x00000000   Number         0  delay.o ABSOLUTE
    ..\SYSTEM\sys\sys.c                      0x00000000   Number         0  sys.o ABSOLUTE
    ..\SYSTEM\usart\usart.c                  0x00000000   Number         0  usart.o ABSOLUTE
    ..\\FWLIE\\src\\misc.c                   0x00000000   Number         0  misc.o ABSOLUTE
    ..\\FWLIE\\src\\stm32f4xx_adc.c          0x00000000   Number         0  stm32f4xx_adc.o ABSOLUTE
    ..\\FWLIE\\src\\stm32f4xx_dac.c          0x00000000   Number         0  stm32f4xx_dac.o ABSOLUTE
    ..\\FWLIE\\src\\stm32f4xx_exti.c         0x00000000   Number         0  stm32f4xx_exti.o ABSOLUTE
    ..\\FWLIE\\src\\stm32f4xx_flash.c        0x00000000   Number         0  stm32f4xx_flash.o ABSOLUTE
    ..\\FWLIE\\src\\stm32f4xx_flash_ramfunc.c 0x00000000   Number         0  stm32f4xx_flash_ramfunc.o ABSOLUTE
    ..\\FWLIE\\src\\stm32f4xx_fsmc.c         0x00000000   Number         0  stm32f4xx_fsmc.o ABSOLUTE
    ..\\FWLIE\\src\\stm32f4xx_gpio.c         0x00000000   Number         0  stm32f4xx_gpio.o ABSOLUTE
    ..\\FWLIE\\src\\stm32f4xx_i2c.c          0x00000000   Number         0  stm32f4xx_i2c.o ABSOLUTE
    ..\\FWLIE\\src\\stm32f4xx_rcc.c          0x00000000   Number         0  stm32f4xx_rcc.o ABSOLUTE
    ..\\FWLIE\\src\\stm32f4xx_sdio.c         0x00000000   Number         0  stm32f4xx_sdio.o ABSOLUTE
    ..\\FWLIE\\src\\stm32f4xx_spi.c          0x00000000   Number         0  stm32f4xx_spi.o ABSOLUTE
    ..\\FWLIE\\src\\stm32f4xx_syscfg.c       0x00000000   Number         0  stm32f4xx_syscfg.o ABSOLUTE
    ..\\FWLIE\\src\\stm32f4xx_tim.c          0x00000000   Number         0  stm32f4xx_tim.o ABSOLUTE
    ..\\FWLIE\\src\\stm32f4xx_usart.c        0x00000000   Number         0  stm32f4xx_usart.o ABSOLUTE
    ..\\HARDWARE\\ADC\\adc.c                 0x00000000   Number         0  adc.o ABSOLUTE
    ..\\HARDWARE\\HX711\\hx711.c             0x00000000   Number         0  hx711.o ABSOLUTE
    ..\\HARDWARE\\KEY\\key.c                 0x00000000   Number         0  key.o ABSOLUTE
    ..\\HARDWARE\\LED\\led.c                 0x00000000   Number         0  led.o ABSOLUTE
    ..\\HARDWARE\\OLED_IIC_Done\\OLED.c      0x00000000   Number         0  oled.o ABSOLUTE
    ..\\HARDWARE\\OLED_IIC_Done\\myiic.c     0x00000000   Number         0  myiic.o ABSOLUTE
    ..\\HARDWARE\\TIME\\timer.c              0x00000000   Number         0  timer.o ABSOLUTE
    ..\\SYSTEM\\delay\\delay.c               0x00000000   Number         0  delay.o ABSOLUTE
    ..\\SYSTEM\\sys\\sys.c                   0x00000000   Number         0  sys.o ABSOLUTE
    ..\\SYSTEM\\usart\\usart.c               0x00000000   Number         0  usart.o ABSOLUTE
    dc.s                                     0x00000000   Number         0  dc.o ABSOLUTE
    main.c                                   0x00000000   Number         0  main.o ABSOLUTE
    main.c                                   0x00000000   Number         0  main.o ABSOLUTE
    stm32f4xx_it.c                           0x00000000   Number         0  stm32f4xx_it.o ABSOLUTE
    stm32f4xx_it.c                           0x00000000   Number         0  stm32f4xx_it.o ABSOLUTE
    system_stm32f4xx.c                       0x00000000   Number         0  system_stm32f4xx.o ABSOLUTE
    system_stm32f4xx.c                       0x00000000   Number         0  system_stm32f4xx.o ABSOLUTE
    RESET                                    0x08000000   Section      392  startup_stm32f40_41xxx.o(RESET)
    !!!main                                  0x08000188   Section        8  __main.o(!!!main)
    !!!scatter                               0x08000190   Section       52  __scatter.o(!!!scatter)
    !!handler_copy                           0x080001c4   Section       26  __scatter_copy.o(!!handler_copy)
    !!handler_zi                             0x080001e0   Section       28  __scatter_zi.o(!!handler_zi)
    .ARM.Collect$$_printf_percent$$00000000  0x080001fc   Section        0  _printf_percent.o(.ARM.Collect$$_printf_percent$$00000000)
    .ARM.Collect$$_printf_percent$$00000003  0x080001fc   Section        6  _printf_f.o(.ARM.Collect$$_printf_percent$$00000003)
    .ARM.Collect$$_printf_percent$$00000009  0x08000202   Section        6  _printf_d.o(.ARM.Collect$$_printf_percent$$00000009)
    .ARM.Collect$$_printf_percent$$00000017  0x08000208   Section        4  _printf_percent_end.o(.ARM.Collect$$_printf_percent$$00000017)
    .ARM.Collect$$libinit$$00000000          0x0800020c   Section        2  libinit.o(.ARM.Collect$$libinit$$00000000)
    .ARM.Collect$$libinit$$00000001          0x0800020e   Section        4  libinit2.o(.ARM.Collect$$libinit$$00000001)
    .ARM.Collect$$libinit$$00000004          0x08000212   Section        0  libinit2.o(.ARM.Collect$$libinit$$00000004)
    .ARM.Collect$$libinit$$0000000A          0x08000212   Section        0  libinit2.o(.ARM.Collect$$libinit$$0000000A)
    .ARM.Collect$$libinit$$0000000C          0x08000212   Section        0  libinit2.o(.ARM.Collect$$libinit$$0000000C)
    .ARM.Collect$$libinit$$0000000E          0x08000212   Section        0  libinit2.o(.ARM.Collect$$libinit$$0000000E)
    .ARM.Collect$$libinit$$0000000F          0x08000212   Section        6  libinit2.o(.ARM.Collect$$libinit$$0000000F)
    .ARM.Collect$$libinit$$00000011          0x08000218   Section        0  libinit2.o(.ARM.Collect$$libinit$$00000011)
    .ARM.Collect$$libinit$$00000013          0x08000218   Section        0  libinit2.o(.ARM.Collect$$libinit$$00000013)
    .ARM.Collect$$libinit$$00000015          0x08000218   Section        0  libinit2.o(.ARM.Collect$$libinit$$00000015)
    .ARM.Collect$$libinit$$00000016          0x08000218   Section       10  libinit2.o(.ARM.Collect$$libinit$$00000016)
    .ARM.Collect$$libinit$$00000017          0x08000222   Section        0  libinit2.o(.ARM.Collect$$libinit$$00000017)
    .ARM.Collect$$libinit$$00000019          0x08000222   Section        0  libinit2.o(.ARM.Collect$$libinit$$00000019)
    .ARM.Collect$$libinit$$0000001B          0x08000222   Section        0  libinit2.o(.ARM.Collect$$libinit$$0000001B)
    .ARM.Collect$$libinit$$0000001D          0x08000222   Section        0  libinit2.o(.ARM.Collect$$libinit$$0000001D)
    .ARM.Collect$$libinit$$0000001F          0x08000222   Section        0  libinit2.o(.ARM.Collect$$libinit$$0000001F)
    .ARM.Collect$$libinit$$00000021          0x08000222   Section        0  libinit2.o(.ARM.Collect$$libinit$$00000021)
    .ARM.Collect$$libinit$$00000023          0x08000222   Section        0  libinit2.o(.ARM.Collect$$libinit$$00000023)
    .ARM.Collect$$libinit$$00000025          0x08000222   Section        0  libinit2.o(.ARM.Collect$$libinit$$00000025)
    .ARM.Collect$$libinit$$0000002C          0x08000222   Section        0  libinit2.o(.ARM.Collect$$libinit$$0000002C)
    .ARM.Collect$$libinit$$0000002E          0x08000222   Section        0  libinit2.o(.ARM.Collect$$libinit$$0000002E)
    .ARM.Collect$$libinit$$00000030          0x08000222   Section        0  libinit2.o(.ARM.Collect$$libinit$$00000030)
    .ARM.Collect$$libinit$$00000032          0x08000222   Section        0  libinit2.o(.ARM.Collect$$libinit$$00000032)
    .ARM.Collect$$libinit$$00000033          0x08000222   Section        2  libinit2.o(.ARM.Collect$$libinit$$00000033)
    .ARM.Collect$$libshutdown$$00000000      0x08000224   Section        2  libshutdown.o(.ARM.Collect$$libshutdown$$00000000)
    .ARM.Collect$$libshutdown$$00000003      0x08000226   Section        0  libshutdown2.o(.ARM.Collect$$libshutdown$$00000003)
    .ARM.Collect$$libshutdown$$00000006      0x08000226   Section        0  libshutdown2.o(.ARM.Collect$$libshutdown$$00000006)
    .ARM.Collect$$libshutdown$$00000009      0x08000226   Section        0  libshutdown2.o(.ARM.Collect$$libshutdown$$00000009)
    .ARM.Collect$$libshutdown$$0000000B      0x08000226   Section        0  libshutdown2.o(.ARM.Collect$$libshutdown$$0000000B)
    .ARM.Collect$$libshutdown$$0000000E      0x08000226   Section        0  libshutdown2.o(.ARM.Collect$$libshutdown$$0000000E)
    .ARM.Collect$$libshutdown$$0000000F      0x08000226   Section        2  libshutdown2.o(.ARM.Collect$$libshutdown$$0000000F)
    .ARM.Collect$$rtentry$$00000000          0x08000228   Section        0  __rtentry.o(.ARM.Collect$$rtentry$$00000000)
    .ARM.Collect$$rtentry$$00000002          0x08000228   Section        0  __rtentry2.o(.ARM.Collect$$rtentry$$00000002)
    .ARM.Collect$$rtentry$$00000004          0x08000228   Section        6  __rtentry4.o(.ARM.Collect$$rtentry$$00000004)
    .ARM.Collect$$rtentry$$00000009          0x0800022e   Section        0  __rtentry2.o(.ARM.Collect$$rtentry$$00000009)
    .ARM.Collect$$rtentry$$0000000A          0x0800022e   Section        4  __rtentry2.o(.ARM.Collect$$rtentry$$0000000A)
    .ARM.Collect$$rtentry$$0000000C          0x08000232   Section        0  __rtentry2.o(.ARM.Collect$$rtentry$$0000000C)
    .ARM.Collect$$rtentry$$0000000D          0x08000232   Section        8  __rtentry2.o(.ARM.Collect$$rtentry$$0000000D)
    .ARM.Collect$$rtexit$$00000000           0x0800023a   Section        2  rtexit.o(.ARM.Collect$$rtexit$$00000000)
    .ARM.Collect$$rtexit$$00000002           0x0800023c   Section        0  rtexit2.o(.ARM.Collect$$rtexit$$00000002)
    .ARM.Collect$$rtexit$$00000003           0x0800023c   Section        4  rtexit2.o(.ARM.Collect$$rtexit$$00000003)
    .ARM.Collect$$rtexit$$00000004           0x08000240   Section        6  rtexit2.o(.ARM.Collect$$rtexit$$00000004)
    .text                                    0x08000248   Section       64  startup_stm32f40_41xxx.o(.text)
    $v0                                      0x08000248   Number         0  startup_stm32f40_41xxx.o(.text)
    .text                                    0x08000288   Section        2  use_no_semi_2.o(.text)
    .text                                    0x0800028c   Section        0  noretval__2printf.o(.text)
    .text                                    0x080002a4   Section        0  _printf_dec.o(.text)
    .text                                    0x0800031c   Section        0  __printf_ss.o(.text)
    .text                                    0x080003d4   Section        0  heapauxi.o(.text)
    .text                                    0x080003da   Section        2  use_no_semi.o(.text)
    .text                                    0x080003dc   Section        0  _printf_intcommon.o(.text)
    .text                                    0x0800048e   Section        0  _printf_fp_dec.o(.text)
    _fp_digits                               0x08000491   Thumb Code   428  _printf_fp_dec.o(.text)
    .text                                    0x080008a8   Section        0  _printf_char_file.o(.text)
    .text                                    0x080008cc   Section        8  rt_locale_intlibspace.o(.text)
    .text                                    0x080008d4   Section      138  lludiv10.o(.text)
    .text                                    0x08000960   Section        0  _printf_char_common.o(.text)
    _printf_input_char                       0x08000961   Thumb Code    10  _printf_char_common.o(.text)
    .text                                    0x08000990   Section        0  _printf_fp_infnan.o(.text)
    .text                                    0x08000a10   Section        0  bigflt0.o(.text)
    .text                                    0x08000aec   Section        0  ferror.o(.text)
    .text                                    0x08000af4   Section        8  libspace.o(.text)
    .text                                    0x08000afc   Section       74  sys_stackheap_outer.o(.text)
    .text                                    0x08000b46   Section        0  exit.o(.text)
    .text                                    0x08000b54   Section      128  strcmpv7m.o(.text)
    CL$$btod_d2e                             0x08000bd4   Section       62  btod.o(CL$$btod_d2e)
    CL$$btod_d2e_denorm_low                  0x08000c12   Section       70  btod.o(CL$$btod_d2e_denorm_low)
    CL$$btod_d2e_norm_op1                    0x08000c58   Section       96  btod.o(CL$$btod_d2e_norm_op1)
    CL$$btod_div_common                      0x08000cb8   Section      824  btod.o(CL$$btod_div_common)
    CL$$btod_e2e                             0x08000ff0   Section      198  btod.o(CL$$btod_e2e)
    CL$$btod_ediv                            0x080010b6   Section       40  btod.o(CL$$btod_ediv)
    CL$$btod_emul                            0x080010de   Section       40  btod.o(CL$$btod_emul)
    CL$$btod_mult_common                     0x08001106   Section      580  btod.o(CL$$btod_mult_common)
    i.BusFault_Handler                       0x0800134a   Section        0  stm32f4xx_it.o(i.BusFault_Handler)
    i.DebugMon_Handler                       0x0800134e   Section        0  stm32f4xx_it.o(i.DebugMon_Handler)
    i.Display_Frequence                      0x08001350   Section        0  main.o(i.Display_Frequence)
    i.Display_Weight                         0x080013e0   Section        0  hx711.o(i.Display_Weight)
    i.GPIO_Init                              0x0800148c   Section        0  stm32f4xx_gpio.o(i.GPIO_Init)
    i.GPIO_PinAFConfig                       0x0800151c   Section        0  stm32f4xx_gpio.o(i.GPIO_PinAFConfig)
    i.GPIO_ReadInputDataBit                  0x08001562   Section        0  stm32f4xx_gpio.o(i.GPIO_ReadInputDataBit)
    i.GPIO_ResetBits                         0x08001574   Section        0  stm32f4xx_gpio.o(i.GPIO_ResetBits)
    i.GPIO_SetBits                           0x08001578   Section        0  stm32f4xx_gpio.o(i.GPIO_SetBits)
    i.Get_Maopi                              0x0800157c   Section        0  hx711.o(i.Get_Maopi)
    i.Get_Weight                             0x08001604   Section        0  hx711.o(i.Get_Weight)
    i.HX711_Read                             0x08001678   Section        0  hx711.o(i.HX711_Read)
    i.HardFault_Handler                      0x08001718   Section        0  stm32f4xx_it.o(i.HardFault_Handler)
    i.I2C_OLED_Init                          0x0800171c   Section        0  oled.o(i.I2C_OLED_Init)
    i.IIC_Init                               0x080017c0   Section        0  myiic.o(i.IIC_Init)
    i.IIC_Send_Byte                          0x0800180c   Section        0  myiic.o(i.IIC_Send_Byte)
    i.IIC_Start                              0x08001878   Section        0  myiic.o(i.IIC_Start)
    i.IIC_Stop                               0x080018c4   Section        0  myiic.o(i.IIC_Stop)
    i.IIC_Wait_Ack                           0x08001910   Section        0  myiic.o(i.IIC_Wait_Ack)
    i.Init_Hx711                             0x08001970   Section        0  hx711.o(i.Init_Hx711)
    i.KEY_Init                               0x080019c8   Section        0  key.o(i.KEY_Init)
    i.KEY_Scan                               0x08001a0c   Section        0  key.o(i.KEY_Scan)
    i.LED_Init                               0x08001ab0   Section        0  led.o(i.LED_Init)
    i.MemManage_Handler                      0x08001b6c   Section        0  stm32f4xx_it.o(i.MemManage_Handler)
    i.NMI_Handler                            0x08001b70   Section        0  stm32f4xx_it.o(i.NMI_Handler)
    i.NVIC_Init                              0x08001b74   Section        0  misc.o(i.NVIC_Init)
    i.NVIC_PriorityGroupConfig               0x08001bec   Section        0  misc.o(i.NVIC_PriorityGroupConfig)
    i.OLED_All                               0x08001c00   Section        0  oled.o(i.OLED_All)
    i.OLED_CLC                               0x08001c3a   Section        0  oled.o(i.OLED_CLC)
    i.OLED_P8x16Ch                           0x08001c44   Section        0  oled.o(i.OLED_P8x16Ch)
    i.OLED_P8x16Str                          0x08001cb0   Section        0  oled.o(i.OLED_P8x16Str)
    i.OLED_Set_Pos                           0x08001d38   Section        0  oled.o(i.OLED_Set_Pos)
    i.OLED_WRITE_COM                         0x08001d60   Section        0  oled.o(i.OLED_WRITE_COM)
    i.OLED_WRITE_dat                         0x08001d6e   Section        0  oled.o(i.OLED_WRITE_dat)
    i.PendSV_Handler                         0x08001d7c   Section        0  stm32f4xx_it.o(i.PendSV_Handler)
    i.RCC_AHB1PeriphClockCmd                 0x08001d80   Section        0  stm32f4xx_rcc.o(i.RCC_AHB1PeriphClockCmd)
    i.RCC_APB1PeriphClockCmd                 0x08001da0   Section        0  stm32f4xx_rcc.o(i.RCC_APB1PeriphClockCmd)
    i.RCC_APB2PeriphClockCmd                 0x08001dc0   Section        0  stm32f4xx_rcc.o(i.RCC_APB2PeriphClockCmd)
    i.RCC_GetClocksFreq                      0x08001de0   Section        0  stm32f4xx_rcc.o(i.RCC_GetClocksFreq)
    i.SVC_Handler                            0x08001ec8   Section        0  stm32f4xx_it.o(i.SVC_Handler)
    i.Send_data                              0x08001eca   Section        0  usart.o(i.Send_data)
    i.SetSysClock                            0x08001ee8   Section        0  system_stm32f4xx.o(i.SetSysClock)
    SetSysClock                              0x08001ee9   Thumb Code   220  system_stm32f4xx.o(i.SetSysClock)
    i.Single_Write_OLED                      0x08001fd4   Section        0  oled.o(i.Single_Write_OLED)
    i.SysTick_CLKSourceConfig                0x08001ff6   Section        0  misc.o(i.SysTick_CLKSourceConfig)
    i.SysTick_Handler                        0x0800201e   Section        0  stm32f4xx_it.o(i.SysTick_Handler)
    i.SystemInit                             0x08002020   Section        0  system_stm32f4xx.o(i.SystemInit)
    i.TIM3_IRQHandler                        0x08002088   Section        0  timer.o(i.TIM3_IRQHandler)
    i.TIM_ClearITPendingBit                  0x08002158   Section        0  stm32f4xx_tim.o(i.TIM_ClearITPendingBit)
    i.TIM_Cmd                                0x0800215e   Section        0  stm32f4xx_tim.o(i.TIM_Cmd)
    i.TIM_GetITStatus                        0x08002176   Section        0  stm32f4xx_tim.o(i.TIM_GetITStatus)
    i.TIM_ITConfig                           0x08002198   Section        0  stm32f4xx_tim.o(i.TIM_ITConfig)
    i.TIM_TimeBaseInit                       0x080021ac   Section        0  stm32f4xx_tim.o(i.TIM_TimeBaseInit)
    i.Timer_My_Init                          0x08002230   Section        0  timer.o(i.Timer_My_Init)
    i.USART1_IRQHandler                      0x08002284   Section        0  usart.o(i.USART1_IRQHandler)
    i.USART3_IRQHandler                      0x08002324   Section        0  usart.o(i.USART3_IRQHandler)
    i.USART_Cmd                              0x080023c0   Section        0  stm32f4xx_usart.o(i.USART_Cmd)
    i.USART_GetFlagStatus                    0x080023d8   Section        0  stm32f4xx_usart.o(i.USART_GetFlagStatus)
    i.USART_GetITStatus                      0x080023f2   Section        0  stm32f4xx_usart.o(i.USART_GetITStatus)
    i.USART_ITConfig                         0x08002446   Section        0  stm32f4xx_usart.o(i.USART_ITConfig)
    i.USART_Init                             0x08002490   Section        0  stm32f4xx_usart.o(i.USART_Init)
    i.USART_ReceiveData                      0x08002564   Section        0  stm32f4xx_usart.o(i.USART_ReceiveData)
    i.USART_SendData                         0x0800256e   Section        0  stm32f4xx_usart.o(i.USART_SendData)
    i.UsageFault_Handler                     0x08002576   Section        0  stm32f4xx_it.o(i.UsageFault_Handler)
    i.__ARM_fpclassify                       0x0800257a   Section        0  fpclassify.o(i.__ARM_fpclassify)
    i._sys_exit                              0x080025aa   Section        0  usart.o(i._sys_exit)
    i.delay_init                             0x080025b0   Section        0  delay.o(i.delay_init)
    i.delay_ms                               0x080025ec   Section        0  delay.o(i.delay_ms)
    i.delay_us                               0x08002624   Section        0  delay.o(i.delay_us)
    i.delay_xms                              0x08002670   Section        0  delay.o(i.delay_xms)
    i.fputc                                  0x080026bc   Section        0  usart.o(i.fputc)
    i.main                                   0x080026d8   Section        0  main.o(i.main)
    i.uart3_init                             0x08003108   Section        0  usart.o(i.uart3_init)
    i.uart_init                              0x080031b4   Section        0  usart.o(i.uart_init)
    locale$$code                             0x08003264   Section       44  lc_numeric_c.o(locale$$code)
    x$fpl$ddiv                               0x08003290   Section      688  ddiv.o(x$fpl$ddiv)
    $v0                                      0x08003290   Number         0  ddiv.o(x$fpl$ddiv)
    ddiv_entry                               0x08003297   Thumb Code     0  ddiv.o(x$fpl$ddiv)
    x$fpl$dfix                               0x08003540   Section       94  dfix.o(x$fpl$dfix)
    $v0                                      0x08003540   Number         0  dfix.o(x$fpl$dfix)
    x$fpl$dflt                               0x0800359e   Section       46  dflt_clz.o(x$fpl$dflt)
    $v0                                      0x0800359e   Number         0  dflt_clz.o(x$fpl$dflt)
    x$fpl$dnaninf                            0x080035cc   Section      156  dnaninf.o(x$fpl$dnaninf)
    $v0                                      0x080035cc   Number         0  dnaninf.o(x$fpl$dnaninf)
    x$fpl$dretinf                            0x08003668   Section       12  dretinf.o(x$fpl$dretinf)
    $v0                                      0x08003668   Number         0  dretinf.o(x$fpl$dretinf)
    x$fpl$f2d                                0x08003674   Section       86  f2d.o(x$fpl$f2d)
    $v0                                      0x08003674   Number         0  f2d.o(x$fpl$f2d)
    x$fpl$fnaninf                            0x080036ca   Section      140  fnaninf.o(x$fpl$fnaninf)
    $v0                                      0x080036ca   Number         0  fnaninf.o(x$fpl$fnaninf)
    x$fpl$fpinit                             0x08003756   Section       10  fpinit.o(x$fpl$fpinit)
    $v0                                      0x08003756   Number         0  fpinit.o(x$fpl$fpinit)
    x$fpl$printf1                            0x08003760   Section        4  printf1.o(x$fpl$printf1)
    $v0                                      0x08003760   Number         0  printf1.o(x$fpl$printf1)
    .constdata                               0x08003764   Section     3096  oled.o(.constdata)
    x$fpl$usenofp                            0x08003764   Section        0  usenofp.o(x$fpl$usenofp)
    .constdata                               0x0800437c   Section      148  bigflt0.o(.constdata)
    tenpwrs_x                                0x0800437c   Data          60  bigflt0.o(.constdata)
    tenpwrs_i                                0x080043b8   Data          64  bigflt0.o(.constdata)
    .conststring                             0x08004410   Section      141  main.o(.conststring)
    locale$$data                             0x080044c0   Section       28  lc_numeric_c.o(locale$$data)
    __lcnum_c_name                           0x080044c4   Data           2  lc_numeric_c.o(locale$$data)
    __lcnum_c_start                          0x080044cc   Data           0  lc_numeric_c.o(locale$$data)
    __lcnum_c_point                          0x080044d8   Data           0  lc_numeric_c.o(locale$$data)
    __lcnum_c_thousands                      0x080044da   Data           0  lc_numeric_c.o(locale$$data)
    __lcnum_c_grouping                       0x080044db   Data           0  lc_numeric_c.o(locale$$data)
    __lcnum_c_end                            0x080044dc   Data           0  lc_numeric_c.o(locale$$data)
    .data                                    0x20000000   Section        8  main.o(.data)
    .data                                    0x20000008   Section       16  stm32f4xx_rcc.o(.data)
    APBAHBPrescTable                         0x20000008   Data          16  stm32f4xx_rcc.o(.data)
    .data                                    0x20000018   Section        4  delay.o(.data)
    fac_us                                   0x20000018   Data           1  delay.o(.data)
    fac_ms                                   0x2000001a   Data           2  delay.o(.data)
    .data                                    0x2000001c   Section       12  usart.o(.data)
    .data                                    0x20000028   Section       16  hx711.o(.data)
    .data                                    0x20000038   Section       20  timer.o(.data)
    .data                                    0x2000004c   Section        1  key.o(.data)
    key_up                                   0x2000004c   Data           1  key.o(.data)
    .bss                                     0x20000050   Section      400  usart.o(.bss)
    .bss                                     0x200001e0   Section     1440  timer.o(.bss)
    .bss                                     0x20000780   Section       96  libspace.o(.bss)
    HEAP                                     0x200007e0   Section      512  startup_stm32f40_41xxx.o(HEAP)
    Heap_Mem                                 0x200007e0   Data         512  startup_stm32f40_41xxx.o(HEAP)
    STACK                                    0x200009e0   Section     1024  startup_stm32f40_41xxx.o(STACK)
    Stack_Mem                                0x200009e0   Data        1024  startup_stm32f40_41xxx.o(STACK)
    __initial_sp                             0x20000de0   Data           0  startup_stm32f40_41xxx.o(STACK)

    Global Symbols

    Symbol Name                              Value     Ov Type        Size  Object(Section)

    BuildAttributes$$THM_ISAv4$E$P$D$K$B$S$7EM$VFPi3$EXTD16$VFPS$VFMA$PE$A:L22UL41UL21$X:L11$S22US41US21$IEEE1$IW$USESV6$~STKCKD$USESV7$~SHL$OTIME$ROPI$IEEEJ$EBA8$UX$STANDARDLIB$REQ8$PRES8$EABIv2 0x00000000   Number         0  anon$$obj.o ABSOLUTE
    __ARM_use_no_argv                        0x00000000   Number         0  main.o ABSOLUTE
    _printf_flags                            0x00000000   Number         0  printf_stubs.o ABSOLUTE
    _printf_return_value                     0x00000000   Number         0  printf_stubs.o ABSOLUTE
    _printf_sizespec                         0x00000000   Number         0  printf_stubs.o ABSOLUTE
    _printf_widthprec                        0x00000000   Number         0  printf_stubs.o ABSOLUTE
    __ARM_exceptions_init                     - Undefined Weak Reference
    __alloca_initialize                       - Undefined Weak Reference
    __arm_preinit_                            - Undefined Weak Reference
    __cpp_initialize__aeabi_                  - Undefined Weak Reference
    __cxa_finalize                            - Undefined Weak Reference
    __sigvec_lookup                           - Undefined Weak Reference
    _atexit_init                              - Undefined Weak Reference
    _call_atexit_fns                          - Undefined Weak Reference
    _clock_init                               - Undefined Weak Reference
    _fp_trap_init                             - Undefined Weak Reference
    _fp_trap_shutdown                         - Undefined Weak Reference
    _get_lc_collate                           - Undefined Weak Reference
    _get_lc_ctype                             - Undefined Weak Reference
    _get_lc_monetary                          - Undefined Weak Reference
    _get_lc_time                              - Undefined Weak Reference
    _getenv_init                              - Undefined Weak Reference
    _handle_redirection                       - Undefined Weak Reference
    _init_alloc                               - Undefined Weak Reference
    _init_user_alloc                          - Undefined Weak Reference
    _initio                                   - Undefined Weak Reference
    _mutex_acquire                            - Undefined Weak Reference
    _mutex_release                            - Undefined Weak Reference
    _printf_post_padding                      - Undefined Weak Reference
    _printf_pre_padding                       - Undefined Weak Reference
    _printf_truncate_signed                   - Undefined Weak Reference
    _printf_truncate_unsigned                 - Undefined Weak Reference
    _rand_init                                - Undefined Weak Reference
    _signal_finish                            - Undefined Weak Reference
    _signal_init                              - Undefined Weak Reference
    _terminate_alloc                          - Undefined Weak Reference
    _terminate_user_alloc                     - Undefined Weak Reference
    _terminateio                              - Undefined Weak Reference
    __Vectors_Size                           0x00000188   Number         0  startup_stm32f40_41xxx.o ABSOLUTE
    __Vectors                                0x08000000   Data           4  startup_stm32f40_41xxx.o(RESET)
    __Vectors_End                            0x08000188   Data           0  startup_stm32f40_41xxx.o(RESET)
    __main                                   0x08000189   Thumb Code     8  __main.o(!!!main)
    __scatterload                            0x08000191   Thumb Code     0  __scatter.o(!!!scatter)
    __scatterload_rt2                        0x08000191   Thumb Code    44  __scatter.o(!!!scatter)
    __scatterload_rt2_thumb_only             0x08000191   Thumb Code     0  __scatter.o(!!!scatter)
    __scatterload_null                       0x0800019f   Thumb Code     0  __scatter.o(!!!scatter)
    __scatterload_copy                       0x080001c5   Thumb Code    26  __scatter_copy.o(!!handler_copy)
    __scatterload_zeroinit                   0x080001e1   Thumb Code    28  __scatter_zi.o(!!handler_zi)
    _printf_f                                0x080001fd   Thumb Code     0  _printf_f.o(.ARM.Collect$$_printf_percent$$00000003)
    _printf_percent                          0x080001fd   Thumb Code     0  _printf_percent.o(.ARM.Collect$$_printf_percent$$00000000)
    _printf_d                                0x08000203   Thumb Code     0  _printf_d.o(.ARM.Collect$$_printf_percent$$00000009)
    _printf_percent_end                      0x08000209   Thumb Code     0  _printf_percent_end.o(.ARM.Collect$$_printf_percent$$00000017)
    __rt_lib_init                            0x0800020d   Thumb Code     0  libinit.o(.ARM.Collect$$libinit$$00000000)
    __rt_lib_init_fp_1                       0x0800020f   Thumb Code     0  libinit2.o(.ARM.Collect$$libinit$$00000001)
    __rt_lib_init_heap_1                     0x08000213   Thumb Code     0  libinit2.o(.ARM.Collect$$libinit$$0000000A)
    __rt_lib_init_lc_common                  0x08000213   Thumb Code     0  libinit2.o(.ARM.Collect$$libinit$$0000000F)
    __rt_lib_init_preinit_1                  0x08000213   Thumb Code     0  libinit2.o(.ARM.Collect$$libinit$$00000004)
    __rt_lib_init_rand_1                     0x08000213   Thumb Code     0  libinit2.o(.ARM.Collect$$libinit$$0000000E)
    __rt_lib_init_user_alloc_1               0x08000213   Thumb Code     0  libinit2.o(.ARM.Collect$$libinit$$0000000C)
    __rt_lib_init_lc_collate_1               0x08000219   Thumb Code     0  libinit2.o(.ARM.Collect$$libinit$$00000011)
    __rt_lib_init_lc_ctype_1                 0x08000219   Thumb Code     0  libinit2.o(.ARM.Collect$$libinit$$00000013)
    __rt_lib_init_lc_monetary_1              0x08000219   Thumb Code     0  libinit2.o(.ARM.Collect$$libinit$$00000015)
    __rt_lib_init_lc_numeric_2               0x08000219   Thumb Code     0  libinit2.o(.ARM.Collect$$libinit$$00000016)
    __rt_lib_init_alloca_1                   0x08000223   Thumb Code     0  libinit2.o(.ARM.Collect$$libinit$$0000002E)
    __rt_lib_init_argv_1                     0x08000223   Thumb Code     0  libinit2.o(.ARM.Collect$$libinit$$0000002C)
    __rt_lib_init_atexit_1                   0x08000223   Thumb Code     0  libinit2.o(.ARM.Collect$$libinit$$0000001B)
    __rt_lib_init_clock_1                    0x08000223   Thumb Code     0  libinit2.o(.ARM.Collect$$libinit$$00000021)
    __rt_lib_init_cpp_1                      0x08000223   Thumb Code     0  libinit2.o(.ARM.Collect$$libinit$$00000032)
    __rt_lib_init_exceptions_1               0x08000223   Thumb Code     0  libinit2.o(.ARM.Collect$$libinit$$00000030)
    __rt_lib_init_fp_trap_1                  0x08000223   Thumb Code     0  libinit2.o(.ARM.Collect$$libinit$$0000001F)
    __rt_lib_init_getenv_1                   0x08000223   Thumb Code     0  libinit2.o(.ARM.Collect$$libinit$$00000023)
    __rt_lib_init_lc_numeric_1               0x08000223   Thumb Code     0  libinit2.o(.ARM.Collect$$libinit$$00000017)
    __rt_lib_init_lc_time_1                  0x08000223   Thumb Code     0  libinit2.o(.ARM.Collect$$libinit$$00000019)
    __rt_lib_init_return                     0x08000223   Thumb Code     0  libinit2.o(.ARM.Collect$$libinit$$00000033)
    __rt_lib_init_signal_1                   0x08000223   Thumb Code     0  libinit2.o(.ARM.Collect$$libinit$$0000001D)
    __rt_lib_init_stdio_1                    0x08000223   Thumb Code     0  libinit2.o(.ARM.Collect$$libinit$$00000025)
    __rt_lib_shutdown                        0x08000225   Thumb Code     0  libshutdown.o(.ARM.Collect$$libshutdown$$00000000)
    __rt_lib_shutdown_fp_trap_1              0x08000227   Thumb Code     0  libshutdown2.o(.ARM.Collect$$libshutdown$$00000006)
    __rt_lib_shutdown_heap_1                 0x08000227   Thumb Code     0  libshutdown2.o(.ARM.Collect$$libshutdown$$0000000E)
    __rt_lib_shutdown_return                 0x08000227   Thumb Code     0  libshutdown2.o(.ARM.Collect$$libshutdown$$0000000F)
    __rt_lib_shutdown_signal_1               0x08000227   Thumb Code     0  libshutdown2.o(.ARM.Collect$$libshutdown$$00000009)
    __rt_lib_shutdown_stdio_1                0x08000227   Thumb Code     0  libshutdown2.o(.ARM.Collect$$libshutdown$$00000003)
    __rt_lib_shutdown_user_alloc_1           0x08000227   Thumb Code     0  libshutdown2.o(.ARM.Collect$$libshutdown$$0000000B)
    __rt_entry                               0x08000229   Thumb Code     0  __rtentry.o(.ARM.Collect$$rtentry$$00000000)
    __rt_entry_presh_1                       0x08000229   Thumb Code     0  __rtentry2.o(.ARM.Collect$$rtentry$$00000002)
    __rt_entry_sh                            0x08000229   Thumb Code     0  __rtentry4.o(.ARM.Collect$$rtentry$$00000004)
    __rt_entry_li                            0x0800022f   Thumb Code     0  __rtentry2.o(.ARM.Collect$$rtentry$$0000000A)
    __rt_entry_postsh_1                      0x0800022f   Thumb Code     0  __rtentry2.o(.ARM.Collect$$rtentry$$00000009)
    __rt_entry_main                          0x08000233   Thumb Code     0  __rtentry2.o(.ARM.Collect$$rtentry$$0000000D)
    __rt_entry_postli_1                      0x08000233   Thumb Code     0  __rtentry2.o(.ARM.Collect$$rtentry$$0000000C)
    __rt_exit                                0x0800023b   Thumb Code     0  rtexit.o(.ARM.Collect$$rtexit$$00000000)
    __rt_exit_ls                             0x0800023d   Thumb Code     0  rtexit2.o(.ARM.Collect$$rtexit$$00000003)
    __rt_exit_prels_1                        0x0800023d   Thumb Code     0  rtexit2.o(.ARM.Collect$$rtexit$$00000002)
    __rt_exit_exit                           0x08000241   Thumb Code     0  rtexit2.o(.ARM.Collect$$rtexit$$00000004)
    Reset_Handler                            0x08000249   Thumb Code     8  startup_stm32f40_41xxx.o(.text)
    ADC_IRQHandler                           0x08000263   Thumb Code     0  startup_stm32f40_41xxx.o(.text)
    CAN1_RX0_IRQHandler                      0x08000263   Thumb Code     0  startup_stm32f40_41xxx.o(.text)
    CAN1_RX1_IRQHandler                      0x08000263   Thumb Code     0  startup_stm32f40_41xxx.o(.text)
    CAN1_SCE_IRQHandler                      0x08000263   Thumb Code     0  startup_stm32f40_41xxx.o(.text)
    CAN1_TX_IRQHandler                       0x08000263   Thumb Code     0  startup_stm32f40_41xxx.o(.text)
    CAN2_RX0_IRQHandler                      0x08000263   Thumb Code     0  startup_stm32f40_41xxx.o(.text)
    CAN2_RX1_IRQHandler                      0x08000263   Thumb Code     0  startup_stm32f40_41xxx.o(.text)
    CAN2_SCE_IRQHandler                      0x08000263   Thumb Code     0  startup_stm32f40_41xxx.o(.text)
    CAN2_TX_IRQHandler                       0x08000263   Thumb Code     0  startup_stm32f40_41xxx.o(.text)
    CRYP_IRQHandler                          0x08000263   Thumb Code     0  startup_stm32f40_41xxx.o(.text)
    DCMI_IRQHandler                          0x08000263   Thumb Code     0  startup_stm32f40_41xxx.o(.text)
    DMA1_Stream0_IRQHandler                  0x08000263   Thumb Code     0  startup_stm32f40_41xxx.o(.text)
    DMA1_Stream1_IRQHandler                  0x08000263   Thumb Code     0  startup_stm32f40_41xxx.o(.text)
    DMA1_Stream2_IRQHandler                  0x08000263   Thumb Code     0  startup_stm32f40_41xxx.o(.text)
    DMA1_Stream3_IRQHandler                  0x08000263   Thumb Code     0  startup_stm32f40_41xxx.o(.text)
    DMA1_Stream4_IRQHandler                  0x08000263   Thumb Code     0  startup_stm32f40_41xxx.o(.text)
    DMA1_Stream5_IRQHandler                  0x08000263   Thumb Code     0  startup_stm32f40_41xxx.o(.text)
    DMA1_Stream6_IRQHandler                  0x08000263   Thumb Code     0  startup_stm32f40_41xxx.o(.text)
    DMA1_Stream7_IRQHandler                  0x08000263   Thumb Code     0  startup_stm32f40_41xxx.o(.text)
    DMA2_Stream0_IRQHandler                  0x08000263   Thumb Code     0  startup_stm32f40_41xxx.o(.text)
    DMA2_Stream1_IRQHandler                  0x08000263   Thumb Code     0  startup_stm32f40_41xxx.o(.text)
    DMA2_Stream2_IRQHandler                  0x08000263   Thumb Code     0  startup_stm32f40_41xxx.o(.text)
    DMA2_Stream3_IRQHandler                  0x08000263   Thumb Code     0  startup_stm32f40_41xxx.o(.text)
    DMA2_Stream4_IRQHandler                  0x08000263   Thumb Code     0  startup_stm32f40_41xxx.o(.text)
    DMA2_Stream5_IRQHandler                  0x08000263   Thumb Code     0  startup_stm32f40_41xxx.o(.text)
    DMA2_Stream6_IRQHandler                  0x08000263   Thumb Code     0  startup_stm32f40_41xxx.o(.text)
    DMA2_Stream7_IRQHandler                  0x08000263   Thumb Code     0  startup_stm32f40_41xxx.o(.text)
    ETH_IRQHandler                           0x08000263   Thumb Code     0  startup_stm32f40_41xxx.o(.text)
    ETH_WKUP_IRQHandler                      0x08000263   Thumb Code     0  startup_stm32f40_41xxx.o(.text)
    EXTI0_IRQHandler                         0x08000263   Thumb Code     0  startup_stm32f40_41xxx.o(.text)
    EXTI15_10_IRQHandler                     0x08000263   Thumb Code     0  startup_stm32f40_41xxx.o(.text)
    EXTI1_IRQHandler                         0x08000263   Thumb Code     0  startup_stm32f40_41xxx.o(.text)
    EXTI2_IRQHandler                         0x08000263   Thumb Code     0  startup_stm32f40_41xxx.o(.text)
    EXTI3_IRQHandler                         0x08000263   Thumb Code     0  startup_stm32f40_41xxx.o(.text)
    EXTI4_IRQHandler                         0x08000263   Thumb Code     0  startup_stm32f40_41xxx.o(.text)
    EXTI9_5_IRQHandler                       0x08000263   Thumb Code     0  startup_stm32f40_41xxx.o(.text)
    FLASH_IRQHandler                         0x08000263   Thumb Code     0  startup_stm32f40_41xxx.o(.text)
    FPU_IRQHandler                           0x08000263   Thumb Code     0  startup_stm32f40_41xxx.o(.text)
    FSMC_IRQHandler                          0x08000263   Thumb Code     0  startup_stm32f40_41xxx.o(.text)
    HASH_RNG_IRQHandler                      0x08000263   Thumb Code     0  startup_stm32f40_41xxx.o(.text)
    I2C1_ER_IRQHandler                       0x08000263   Thumb Code     0  startup_stm32f40_41xxx.o(.text)
    I2C1_EV_IRQHandler                       0x08000263   Thumb Code     0  startup_stm32f40_41xxx.o(.text)
    I2C2_ER_IRQHandler                       0x08000263   Thumb Code     0  startup_stm32f40_41xxx.o(.text)
    I2C2_EV_IRQHandler                       0x08000263   Thumb Code     0  startup_stm32f40_41xxx.o(.text)
    I2C3_ER_IRQHandler                       0x08000263   Thumb Code     0  startup_stm32f40_41xxx.o(.text)
    I2C3_EV_IRQHandler                       0x08000263   Thumb Code     0  startup_stm32f40_41xxx.o(.text)
    OTG_FS_IRQHandler                        0x08000263   Thumb Code     0  startup_stm32f40_41xxx.o(.text)
    OTG_FS_WKUP_IRQHandler                   0x08000263   Thumb Code     0  startup_stm32f40_41xxx.o(.text)
    OTG_HS_EP1_IN_IRQHandler                 0x08000263   Thumb Code     0  startup_stm32f40_41xxx.o(.text)
    OTG_HS_EP1_OUT_IRQHandler                0x08000263   Thumb Code     0  startup_stm32f40_41xxx.o(.text)
    OTG_HS_IRQHandler                        0x08000263   Thumb Code     0  startup_stm32f40_41xxx.o(.text)
    OTG_HS_WKUP_IRQHandler                   0x08000263   Thumb Code     0  startup_stm32f40_41xxx.o(.text)
    PVD_IRQHandler                           0x08000263   Thumb Code     0  startup_stm32f40_41xxx.o(.text)
    RCC_IRQHandler                           0x08000263   Thumb Code     0  startup_stm32f40_41xxx.o(.text)
    RTC_Alarm_IRQHandler                     0x08000263   Thumb Code     0  startup_stm32f40_41xxx.o(.text)
    RTC_WKUP_IRQHandler                      0x08000263   Thumb Code     0  startup_stm32f40_41xxx.o(.text)
    SDIO_IRQHandler                          0x08000263   Thumb Code     0  startup_stm32f40_41xxx.o(.text)
    SPI1_IRQHandler                          0x08000263   Thumb Code     0  startup_stm32f40_41xxx.o(.text)
    SPI2_IRQHandler                          0x08000263   Thumb Code     0  startup_stm32f40_41xxx.o(.text)
    SPI3_IRQHandler                          0x08000263   Thumb Code     0  startup_stm32f40_41xxx.o(.text)
    TAMP_STAMP_IRQHandler                    0x08000263   Thumb Code     0  startup_stm32f40_41xxx.o(.text)
    TIM1_BRK_TIM9_IRQHandler                 0x08000263   Thumb Code     0  startup_stm32f40_41xxx.o(.text)
    TIM1_CC_IRQHandler                       0x08000263   Thumb Code     0  startup_stm32f40_41xxx.o(.text)
    TIM1_TRG_COM_TIM11_IRQHandler            0x08000263   Thumb Code     0  startup_stm32f40_41xxx.o(.text)
    TIM1_UP_TIM10_IRQHandler                 0x08000263   Thumb Code     0  startup_stm32f40_41xxx.o(.text)
    TIM2_IRQHandler                          0x08000263   Thumb Code     0  startup_stm32f40_41xxx.o(.text)
    TIM4_IRQHandler                          0x08000263   Thumb Code     0  startup_stm32f40_41xxx.o(.text)
    TIM5_IRQHandler                          0x08000263   Thumb Code     0  startup_stm32f40_41xxx.o(.text)
    TIM6_DAC_IRQHandler                      0x08000263   Thumb Code     0  startup_stm32f40_41xxx.o(.text)
    TIM7_IRQHandler                          0x08000263   Thumb Code     0  startup_stm32f40_41xxx.o(.text)
    TIM8_BRK_TIM12_IRQHandler                0x08000263   Thumb Code     0  startup_stm32f40_41xxx.o(.text)
    TIM8_CC_IRQHandler                       0x08000263   Thumb Code     0  startup_stm32f40_41xxx.o(.text)
    TIM8_TRG_COM_TIM14_IRQHandler            0x08000263   Thumb Code     0  startup_stm32f40_41xxx.o(.text)
    TIM8_UP_TIM13_IRQHandler                 0x08000263   Thumb Code     0  startup_stm32f40_41xxx.o(.text)
    UART4_IRQHandler                         0x08000263   Thumb Code     0  startup_stm32f40_41xxx.o(.text)
    UART5_IRQHandler                         0x08000263   Thumb Code     0  startup_stm32f40_41xxx.o(.text)
    USART2_IRQHandler                        0x08000263   Thumb Code     0  startup_stm32f40_41xxx.o(.text)
    USART6_IRQHandler                        0x08000263   Thumb Code     0  startup_stm32f40_41xxx.o(.text)
    WWDG_IRQHandler                          0x08000263   Thumb Code     0  startup_stm32f40_41xxx.o(.text)
    __user_initial_stackheap                 0x08000265   Thumb Code     0  startup_stm32f40_41xxx.o(.text)
    __use_no_semihosting                     0x08000289   Thumb Code     2  use_no_semi_2.o(.text)
    __2printf                                0x0800028d   Thumb Code    20  noretval__2printf.o(.text)
    _printf_int_dec                          0x080002a5   Thumb Code   104  _printf_dec.o(.text)
    __printf                                 0x0800031d   Thumb Code   184  __printf_ss.o(.text)
    __use_two_region_memory                  0x080003d5   Thumb Code     2  heapauxi.o(.text)
    __rt_heap_escrow$2region                 0x080003d7   Thumb Code     2  heapauxi.o(.text)
    __rt_heap_expand$2region                 0x080003d9   Thumb Code     2  heapauxi.o(.text)
    __I$use$semihosting                      0x080003db   Thumb Code     0  use_no_semi.o(.text)
    __use_no_semihosting_swi                 0x080003db   Thumb Code     2  use_no_semi.o(.text)
    _printf_int_common                       0x080003dd   Thumb Code   178  _printf_intcommon.o(.text)
    __lib_sel_fp_printf                      0x0800048f   Thumb Code     2  _printf_fp_dec.o(.text)
    _printf_fp_dec_real                      0x0800063d   Thumb Code   620  _printf_fp_dec.o(.text)
    _printf_char_file                        0x080008a9   Thumb Code    32  _printf_char_file.o(.text)
    __rt_locale                              0x080008cd   Thumb Code     8  rt_locale_intlibspace.o(.text)
    _ll_udiv10                               0x080008d5   Thumb Code   138  lludiv10.o(.text)
    _printf_char_common                      0x0800096b   Thumb Code    32  _printf_char_common.o(.text)
    _printf_fp_infnan                        0x08000991   Thumb Code   112  _printf_fp_infnan.o(.text)
    _btod_etento                             0x08000a11   Thumb Code   216  bigflt0.o(.text)
    ferror                                   0x08000aed   Thumb Code     8  ferror.o(.text)
    __user_libspace                          0x08000af5   Thumb Code     8  libspace.o(.text)
    __user_perproc_libspace                  0x08000af5   Thumb Code     0  libspace.o(.text)
    __user_perthread_libspace                0x08000af5   Thumb Code     0  libspace.o(.text)
    __user_setup_stackheap                   0x08000afd   Thumb Code    74  sys_stackheap_outer.o(.text)
    exit                                     0x08000b47   Thumb Code    12  exit.o(.text)
    strcmp                                   0x08000b55   Thumb Code   128  strcmpv7m.o(.text)
    _btod_d2e                                0x08000bd5   Thumb Code    62  btod.o(CL$$btod_d2e)
    _d2e_denorm_low                          0x08000c13   Thumb Code    70  btod.o(CL$$btod_d2e_denorm_low)
    _d2e_norm_op1                            0x08000c59   Thumb Code    96  btod.o(CL$$btod_d2e_norm_op1)
    __btod_div_common                        0x08000cb9   Thumb Code   696  btod.o(CL$$btod_div_common)
    _e2e                                     0x08000ff1   Thumb Code   198  btod.o(CL$$btod_e2e)
    _btod_ediv                               0x080010b7   Thumb Code    40  btod.o(CL$$btod_ediv)
    _btod_emul                               0x080010df   Thumb Code    40  btod.o(CL$$btod_emul)
    __btod_mult_common                       0x08001107   Thumb Code   580  btod.o(CL$$btod_mult_common)
    BusFault_Handler                         0x0800134b   Thumb Code     4  stm32f4xx_it.o(i.BusFault_Handler)
    DebugMon_Handler                         0x0800134f   Thumb Code     2  stm32f4xx_it.o(i.DebugMon_Handler)
    Display_Frequence                        0x08001351   Thumb Code   126  main.o(i.Display_Frequence)
    Display_Weight                           0x080013e1   Thumb Code   152  hx711.o(i.Display_Weight)
    GPIO_Init                                0x0800148d   Thumb Code   144  stm32f4xx_gpio.o(i.GPIO_Init)
    GPIO_PinAFConfig                         0x0800151d   Thumb Code    70  stm32f4xx_gpio.o(i.GPIO_PinAFConfig)
    GPIO_ReadInputDataBit                    0x08001563   Thumb Code    18  stm32f4xx_gpio.o(i.GPIO_ReadInputDataBit)
    GPIO_ResetBits                           0x08001575   Thumb Code     4  stm32f4xx_gpio.o(i.GPIO_ResetBits)
    GPIO_SetBits                             0x08001579   Thumb Code     4  stm32f4xx_gpio.o(i.GPIO_SetBits)
    Get_Maopi                                0x0800157d   Thumb Code    94  hx711.o(i.Get_Maopi)
    Get_Weight                               0x08001605   Thumb Code    94  hx711.o(i.Get_Weight)
    HX711_Read                               0x08001679   Thumb Code   150  hx711.o(i.HX711_Read)
    HardFault_Handler                        0x08001719   Thumb Code     4  stm32f4xx_it.o(i.HardFault_Handler)
    I2C_OLED_Init                            0x0800171d   Thumb Code   162  oled.o(i.I2C_OLED_Init)
    IIC_Init                                 0x080017c1   Thumb Code    62  myiic.o(i.IIC_Init)
    IIC_Send_Byte                            0x0800180d   Thumb Code    94  myiic.o(i.IIC_Send_Byte)
    IIC_Start                                0x08001879   Thumb Code    64  myiic.o(i.IIC_Start)
    IIC_Stop                                 0x080018c5   Thumb Code    64  myiic.o(i.IIC_Stop)
    IIC_Wait_Ack                             0x08001911   Thumb Code    82  myiic.o(i.IIC_Wait_Ack)
    Init_Hx711                               0x08001971   Thumb Code    84  hx711.o(i.Init_Hx711)
    KEY_Init                                 0x080019c9   Thumb Code    60  key.o(i.KEY_Init)
    KEY_Scan                                 0x08001a0d   Thumb Code   150  key.o(i.KEY_Scan)
    LED_Init                                 0x08001ab1   Thumb Code   176  led.o(i.LED_Init)
    MemManage_Handler                        0x08001b6d   Thumb Code     4  stm32f4xx_it.o(i.MemManage_Handler)
    NMI_Handler                              0x08001b71   Thumb Code     2  stm32f4xx_it.o(i.NMI_Handler)
    NVIC_Init                                0x08001b75   Thumb Code   106  misc.o(i.NVIC_Init)
    NVIC_PriorityGroupConfig                 0x08001bed   Thumb Code    10  misc.o(i.NVIC_PriorityGroupConfig)
    OLED_All                                 0x08001c01   Thumb Code    58  oled.o(i.OLED_All)
    OLED_CLC                                 0x08001c3b   Thumb Code    10  oled.o(i.OLED_CLC)
    OLED_P8x16Ch                             0x08001c45   Thumb Code   102  oled.o(i.OLED_P8x16Ch)
    OLED_P8x16Str                            0x08001cb1   Thumb Code   130  oled.o(i.OLED_P8x16Str)
    OLED_Set_Pos                             0x08001d39   Thumb Code    40  oled.o(i.OLED_Set_Pos)
    OLED_WRITE_COM                           0x08001d61   Thumb Code    14  oled.o(i.OLED_WRITE_COM)
    OLED_WRITE_dat                           0x08001d6f   Thumb Code    14  oled.o(i.OLED_WRITE_dat)
    PendSV_Handler                           0x08001d7d   Thumb Code     2  stm32f4xx_it.o(i.PendSV_Handler)
    RCC_AHB1PeriphClockCmd                   0x08001d81   Thumb Code    26  stm32f4xx_rcc.o(i.RCC_AHB1PeriphClockCmd)
    RCC_APB1PeriphClockCmd                   0x08001da1   Thumb Code    26  stm32f4xx_rcc.o(i.RCC_APB1PeriphClockCmd)
    RCC_APB2PeriphClockCmd                   0x08001dc1   Thumb Code    26  stm32f4xx_rcc.o(i.RCC_APB2PeriphClockCmd)
    RCC_GetClocksFreq                        0x08001de1   Thumb Code   214  stm32f4xx_rcc.o(i.RCC_GetClocksFreq)
    SVC_Handler                              0x08001ec9   Thumb Code     2  stm32f4xx_it.o(i.SVC_Handler)
    Send_data                                0x08001ecb   Thumb Code    30  usart.o(i.Send_data)
    Single_Write_OLED                        0x08001fd5   Thumb Code    34  oled.o(i.Single_Write_OLED)
    SysTick_CLKSourceConfig                  0x08001ff7   Thumb Code    40  misc.o(i.SysTick_CLKSourceConfig)
    SysTick_Handler                          0x0800201f   Thumb Code     2  stm32f4xx_it.o(i.SysTick_Handler)
    SystemInit                               0x08002021   Thumb Code    88  system_stm32f4xx.o(i.SystemInit)
    TIM3_IRQHandler                          0x08002089   Thumb Code   174  timer.o(i.TIM3_IRQHandler)
    TIM_ClearITPendingBit                    0x08002159   Thumb Code     6  stm32f4xx_tim.o(i.TIM_ClearITPendingBit)
    TIM_Cmd                                  0x0800215f   Thumb Code    24  stm32f4xx_tim.o(i.TIM_Cmd)
    TIM_GetITStatus                          0x08002177   Thumb Code    34  stm32f4xx_tim.o(i.TIM_GetITStatus)
    TIM_ITConfig                             0x08002199   Thumb Code    18  stm32f4xx_tim.o(i.TIM_ITConfig)
    TIM_TimeBaseInit                         0x080021ad   Thumb Code   104  stm32f4xx_tim.o(i.TIM_TimeBaseInit)
    Timer_My_Init                            0x08002231   Thumb Code    78  timer.o(i.Timer_My_Init)
    USART1_IRQHandler                        0x08002285   Thumb Code   142  usart.o(i.USART1_IRQHandler)
    USART3_IRQHandler                        0x08002325   Thumb Code   138  usart.o(i.USART3_IRQHandler)
    USART_Cmd                                0x080023c1   Thumb Code    24  stm32f4xx_usart.o(i.USART_Cmd)
    USART_GetFlagStatus                      0x080023d9   Thumb Code    26  stm32f4xx_usart.o(i.USART_GetFlagStatus)
    USART_GetITStatus                        0x080023f3   Thumb Code    84  stm32f4xx_usart.o(i.USART_GetITStatus)
    USART_ITConfig                           0x08002447   Thumb Code    74  stm32f4xx_usart.o(i.USART_ITConfig)
    USART_Init                               0x08002491   Thumb Code   204  stm32f4xx_usart.o(i.USART_Init)
    USART_ReceiveData                        0x08002565   Thumb Code    10  stm32f4xx_usart.o(i.USART_ReceiveData)
    USART_SendData                           0x0800256f   Thumb Code     8  stm32f4xx_usart.o(i.USART_SendData)
    UsageFault_Handler                       0x08002577   Thumb Code     4  stm32f4xx_it.o(i.UsageFault_Handler)
    __ARM_fpclassify                         0x0800257b   Thumb Code    48  fpclassify.o(i.__ARM_fpclassify)
    _sys_exit                                0x080025ab   Thumb Code     6  usart.o(i._sys_exit)
    delay_init                               0x080025b1   Thumb Code    52  delay.o(i.delay_init)
    delay_ms                                 0x080025ed   Thumb Code    56  delay.o(i.delay_ms)
    delay_us                                 0x08002625   Thumb Code    72  delay.o(i.delay_us)
    delay_xms                                0x08002671   Thumb Code    72  delay.o(i.delay_xms)
    fputc                                    0x080026bd   Thumb Code    22  usart.o(i.fputc)
    main                                     0x080026d9   Thumb Code  2526  main.o(i.main)
    uart3_init                               0x08003109   Thumb Code   164  usart.o(i.uart3_init)
    uart_init                                0x080031b5   Thumb Code   166  usart.o(i.uart_init)
    _get_lc_numeric                          0x08003265   Thumb Code    44  lc_numeric_c.o(locale$$code)
    __aeabi_ddiv                             0x08003291   Thumb Code     0  ddiv.o(x$fpl$ddiv)
    _ddiv                                    0x08003291   Thumb Code   552  ddiv.o(x$fpl$ddiv)
    __aeabi_d2iz                             0x08003541   Thumb Code     0  dfix.o(x$fpl$dfix)
    _dfix                                    0x08003541   Thumb Code    94  dfix.o(x$fpl$dfix)
    __aeabi_i2d                              0x0800359f   Thumb Code     0  dflt_clz.o(x$fpl$dflt)
    _dflt                                    0x0800359f   Thumb Code    46  dflt_clz.o(x$fpl$dflt)
    __fpl_dnaninf                            0x080035cd   Thumb Code   156  dnaninf.o(x$fpl$dnaninf)
    __fpl_dretinf                            0x08003669   Thumb Code    12  dretinf.o(x$fpl$dretinf)
    __aeabi_f2d                              0x08003675   Thumb Code     0  f2d.o(x$fpl$f2d)
    _f2d                                     0x08003675   Thumb Code    86  f2d.o(x$fpl$f2d)
    __fpl_fnaninf                            0x080036cb   Thumb Code   140  fnaninf.o(x$fpl$fnaninf)
    _fp_init                                 0x08003757   Thumb Code    10  fpinit.o(x$fpl$fpinit)
    __fplib_config_fpu_vfp                   0x0800375f   Thumb Code     0  fpinit.o(x$fpl$fpinit)
    __fplib_config_pureend_doubles           0x0800375f   Thumb Code     0  fpinit.o(x$fpl$fpinit)
    _printf_fp_dec                           0x08003761   Thumb Code     4  printf1.o(x$fpl$printf1)
    F6x8                                     0x08003764   Data         552  oled.o(.constdata)
    __I$use$fp                               0x08003764   Number         0  usenofp.o(x$fpl$usenofp)
    F8X16                                    0x0800398c   Data        1520  oled.o(.constdata)
    F16x16                                   0x08003f7c   Data        1024  oled.o(.constdata)
    Region$$Table$$Base                      0x080044a0   Number         0  anon$$obj.o(Region$$Table)
    Region$$Table$$Limit                     0x080044c0   Number         0  anon$$obj.o(Region$$Table)
    signal                                   0x20000000   Data           4  main.o(.data)
    Net_flag                                 0x20000004   Data           4  main.o(.data)
    Res1                                     0x2000001c   Data           1  usart.o(.data)
    Res3                                     0x2000001d   Data           1  usart.o(.data)
    __stdout                                 0x20000020   Data           4  usart.o(.data)
    USART_RX_STA                             0x20000024   Data           2  usart.o(.data)
    USART_RX_STA3                            0x20000026   Data           2  usart.o(.data)
    Weight_Maopi                             0x20000028   Data           4  hx711.o(.data)
    Weight_Maopi_0                           0x2000002c   Data           4  hx711.o(.data)
    Weight_Shiwu                             0x20000030   Data           4  hx711.o(.data)
    myWeight_Shiwu                           0x20000034   Data           4  hx711.o(.data)
    Press_time                               0x20000038   Data           4  timer.o(.data)
    press_count                              0x2000003c   Data           4  timer.o(.data)
    num                                      0x20000040   Data           4  timer.o(.data)
    voice_num                                0x20000044   Data           4  timer.o(.data)
    i                                        0x20000048   Data           4  timer.o(.data)
    USART_RX_BUF                             0x20000050   Data         200  usart.o(.bss)
    USART_RX_BUF3                            0x20000118   Data         200  usart.o(.bss)
    Weight_data1                             0x200001e0   Data         480  timer.o(.bss)
    Weight_data2                             0x200003c0   Data         480  timer.o(.bss)
    Weight_data3                             0x200005a0   Data         480  timer.o(.bss)
    __libspace_start                         0x20000780   Data          96  libspace.o(.bss)
    __temporary_stack_top$libspace           0x200007e0   Data           0  libspace.o(.bss)



==============================================================================

Memory Map of the image

  Image Entry point : 0x08000189

  Load Region LR_IROM1 (Base: 0x08000000, Size: 0x0000452c, Max: 0x00080000, ABSOLUTE)

    Execution Region ER_IROM1 (Base: 0x08000000, Size: 0x000044dc, Max: 0x00080000, ABSOLUTE)

    Base Addr    Size         Type   Attr      Idx    E Section Name        Object

    0x08000000   0x00000188   Data   RO          286    RESET               startup_stm32f40_41xxx.o
    0x08000188   0x00000008   Code   RO         3519  * !!!main             c_w.l(__main.o)
    0x08000190   0x00000034   Code   RO         3756    !!!scatter          c_w.l(__scatter.o)
    0x080001c4   0x0000001a   Code   RO         3758    !!handler_copy      c_w.l(__scatter_copy.o)
    0x080001de   0x00000002   PAD
    0x080001e0   0x0000001c   Code   RO         3760    !!handler_zi        c_w.l(__scatter_zi.o)
    0x080001fc   0x00000000   Code   RO         3516    .ARM.Collect$$_printf_percent$$00000000  c_w.l(_printf_percent.o)
    0x080001fc   0x00000006   Code   RO         3515    .ARM.Collect$$_printf_percent$$00000003  c_w.l(_printf_f.o)
    0x08000202   0x00000006   Code   RO         3514    .ARM.Collect$$_printf_percent$$00000009  c_w.l(_printf_d.o)
    0x08000208   0x00000004   Code   RO         3548    .ARM.Collect$$_printf_percent$$00000017  c_w.l(_printf_percent_end.o)
    0x0800020c   0x00000002   Code   RO         3634    .ARM.Collect$$libinit$$00000000  c_w.l(libinit.o)
    0x0800020e   0x00000004   Code   RO         3635    .ARM.Collect$$libinit$$00000001  c_w.l(libinit2.o)
    0x08000212   0x00000000   Code   RO         3638    .ARM.Collect$$libinit$$00000004  c_w.l(libinit2.o)
    0x08000212   0x00000000   Code   RO         3641    .ARM.Collect$$libinit$$0000000A  c_w.l(libinit2.o)
    0x08000212   0x00000000   Code   RO         3643    .ARM.Collect$$libinit$$0000000C  c_w.l(libinit2.o)
    0x08000212   0x00000000   Code   RO         3645    .ARM.Collect$$libinit$$0000000E  c_w.l(libinit2.o)
    0x08000212   0x00000006   Code   RO         3646    .ARM.Collect$$libinit$$0000000F  c_w.l(libinit2.o)
    0x08000218   0x00000000   Code   RO         3648    .ARM.Collect$$libinit$$00000011  c_w.l(libinit2.o)
    0x08000218   0x00000000   Code   RO         3650    .ARM.Collect$$libinit$$00000013  c_w.l(libinit2.o)
    0x08000218   0x00000000   Code   RO         3652    .ARM.Collect$$libinit$$00000015  c_w.l(libinit2.o)
    0x08000218   0x0000000a   Code   RO         3653    .ARM.Collect$$libinit$$00000016  c_w.l(libinit2.o)
    0x08000222   0x00000000   Code   RO         3654    .ARM.Collect$$libinit$$00000017  c_w.l(libinit2.o)
    0x08000222   0x00000000   Code   RO         3656    .ARM.Collect$$libinit$$00000019  c_w.l(libinit2.o)
    0x08000222   0x00000000   Code   RO         3658    .ARM.Collect$$libinit$$0000001B  c_w.l(libinit2.o)
    0x08000222   0x00000000   Code   RO         3660    .ARM.Collect$$libinit$$0000001D  c_w.l(libinit2.o)
    0x08000222   0x00000000   Code   RO         3662    .ARM.Collect$$libinit$$0000001F  c_w.l(libinit2.o)
    0x08000222   0x00000000   Code   RO         3664    .ARM.Collect$$libinit$$00000021  c_w.l(libinit2.o)
    0x08000222   0x00000000   Code   RO         3666    .ARM.Collect$$libinit$$00000023  c_w.l(libinit2.o)
    0x08000222   0x00000000   Code   RO         3668    .ARM.Collect$$libinit$$00000025  c_w.l(libinit2.o)
    0x08000222   0x00000000   Code   RO         3672    .ARM.Collect$$libinit$$0000002C  c_w.l(libinit2.o)
    0x08000222   0x00000000   Code   RO         3674    .ARM.Collect$$libinit$$0000002E  c_w.l(libinit2.o)
    0x08000222   0x00000000   Code   RO         3676    .ARM.Collect$$libinit$$00000030  c_w.l(libinit2.o)
    0x08000222   0x00000000   Code   RO         3678    .ARM.Collect$$libinit$$00000032  c_w.l(libinit2.o)
    0x08000222   0x00000002   Code   RO         3679    .ARM.Collect$$libinit$$00000033  c_w.l(libinit2.o)
    0x08000224   0x00000002   Code   RO         3707    .ARM.Collect$$libshutdown$$00000000  c_w.l(libshutdown.o)
    0x08000226   0x00000000   Code   RO         3717    .ARM.Collect$$libshutdown$$00000003  c_w.l(libshutdown2.o)
    0x08000226   0x00000000   Code   RO         3720    .ARM.Collect$$libshutdown$$00000006  c_w.l(libshutdown2.o)
    0x08000226   0x00000000   Code   RO         3723    .ARM.Collect$$libshutdown$$00000009  c_w.l(libshutdown2.o)
    0x08000226   0x00000000   Code   RO         3725    .ARM.Collect$$libshutdown$$0000000B  c_w.l(libshutdown2.o)
    0x08000226   0x00000000   Code   RO         3728    .ARM.Collect$$libshutdown$$0000000E  c_w.l(libshutdown2.o)
    0x08000226   0x00000002   Code   RO         3729    .ARM.Collect$$libshutdown$$0000000F  c_w.l(libshutdown2.o)
    0x08000228   0x00000000   Code   RO         3541    .ARM.Collect$$rtentry$$00000000  c_w.l(__rtentry.o)
    0x08000228   0x00000000   Code   RO         3557    .ARM.Collect$$rtentry$$00000002  c_w.l(__rtentry2.o)
    0x08000228   0x00000006   Code   RO         3569    .ARM.Collect$$rtentry$$00000004  c_w.l(__rtentry4.o)
    0x0800022e   0x00000000   Code   RO         3559    .ARM.Collect$$rtentry$$00000009  c_w.l(__rtentry2.o)
    0x0800022e   0x00000004   Code   RO         3560    .ARM.Collect$$rtentry$$0000000A  c_w.l(__rtentry2.o)
    0x08000232   0x00000000   Code   RO         3562    .ARM.Collect$$rtentry$$0000000C  c_w.l(__rtentry2.o)
    0x08000232   0x00000008   Code   RO         3563    .ARM.Collect$$rtentry$$0000000D  c_w.l(__rtentry2.o)
    0x0800023a   0x00000002   Code   RO         3680    .ARM.Collect$$rtexit$$00000000  c_w.l(rtexit.o)
    0x0800023c   0x00000000   Code   RO         3687    .ARM.Collect$$rtexit$$00000002  c_w.l(rtexit2.o)
    0x0800023c   0x00000004   Code   RO         3688    .ARM.Collect$$rtexit$$00000003  c_w.l(rtexit2.o)
    0x08000240   0x00000006   Code   RO         3689    .ARM.Collect$$rtexit$$00000004  c_w.l(rtexit2.o)
    0x08000246   0x00000002   PAD
    0x08000248   0x00000040   Code   RO          287    .text               startup_stm32f40_41xxx.o
    0x08000288   0x00000002   Code   RO         3484    .text               c_w.l(use_no_semi_2.o)
    0x0800028a   0x00000002   PAD
    0x0800028c   0x00000018   Code   RO         3488    .text               c_w.l(noretval__2printf.o)
    0x080002a4   0x00000078   Code   RO         3492    .text               c_w.l(_printf_dec.o)
    0x0800031c   0x000000b8   Code   RO         3497    .text               c_w.l(__printf_ss.o)
    0x080003d4   0x00000006   Code   RO         3517    .text               c_w.l(heapauxi.o)
    0x080003da   0x00000002   Code   RO         3539    .text               c_w.l(use_no_semi.o)
    0x080003dc   0x000000b2   Code   RO         3542    .text               c_w.l(_printf_intcommon.o)
    0x0800048e   0x0000041a   Code   RO         3544    .text               c_w.l(_printf_fp_dec.o)
    0x080008a8   0x00000024   Code   RO         3546    .text               c_w.l(_printf_char_file.o)
    0x080008cc   0x00000008   Code   RO         3574    .text               c_w.l(rt_locale_intlibspace.o)
    0x080008d4   0x0000008a   Code   RO         3576    .text               c_w.l(lludiv10.o)
    0x0800095e   0x00000002   PAD
    0x08000960   0x00000030   Code   RO         3578    .text               c_w.l(_printf_char_common.o)
    0x08000990   0x00000080   Code   RO         3580    .text               c_w.l(_printf_fp_infnan.o)
    0x08000a10   0x000000dc   Code   RO         3582    .text               c_w.l(bigflt0.o)
    0x08000aec   0x00000008   Code   RO         3607    .text               c_w.l(ferror.o)
    0x08000af4   0x00000008   Code   RO         3618    .text               c_w.l(libspace.o)
    0x08000afc   0x0000004a   Code   RO         3621    .text               c_w.l(sys_stackheap_outer.o)
    0x08000b46   0x0000000c   Code   RO         3625    .text               c_w.l(exit.o)
    0x08000b52   0x00000002   PAD
    0x08000b54   0x00000080   Code   RO         3627    .text               c_w.l(strcmpv7m.o)
    0x08000bd4   0x0000003e   Code   RO         3585    CL$$btod_d2e        c_w.l(btod.o)
    0x08000c12   0x00000046   Code   RO         3587    CL$$btod_d2e_denorm_low  c_w.l(btod.o)
    0x08000c58   0x00000060   Code   RO         3586    CL$$btod_d2e_norm_op1  c_w.l(btod.o)
    0x08000cb8   0x00000338   Code   RO         3595    CL$$btod_div_common  c_w.l(btod.o)
    0x08000ff0   0x000000c6   Code   RO         3592    CL$$btod_e2e        c_w.l(btod.o)
    0x080010b6   0x00000028   Code   RO         3589    CL$$btod_ediv       c_w.l(btod.o)
    0x080010de   0x00000028   Code   RO         3588    CL$$btod_emul       c_w.l(btod.o)
    0x08001106   0x00000244   Code   RO         3594    CL$$btod_mult_common  c_w.l(btod.o)
    0x0800134a   0x00000004   Code   RO          143    i.BusFault_Handler  stm32f4xx_it.o
    0x0800134e   0x00000002   Code   RO          144    i.DebugMon_Handler  stm32f4xx_it.o
    0x08001350   0x00000090   Code   RO          218    i.Display_Frequence  main.o
    0x080013e0   0x000000ac   Code   RO         3142    i.Display_Weight    hx711.o
    0x0800148c   0x00000090   Code   RO          956    i.GPIO_Init         stm32f4xx_gpio.o
    0x0800151c   0x00000046   Code   RO          957    i.GPIO_PinAFConfig  stm32f4xx_gpio.o
    0x08001562   0x00000012   Code   RO          960    i.GPIO_ReadInputDataBit  stm32f4xx_gpio.o
    0x08001574   0x00000004   Code   RO          963    i.GPIO_ResetBits    stm32f4xx_gpio.o
    0x08001578   0x00000004   Code   RO          964    i.GPIO_SetBits      stm32f4xx_gpio.o
    0x0800157c   0x00000088   Code   RO         3143    i.Get_Maopi         hx711.o
    0x08001604   0x00000074   Code   RO         3144    i.Get_Weight        hx711.o
    0x08001678   0x000000a0   Code   RO         3145    i.HX711_Read        hx711.o
    0x08001718   0x00000004   Code   RO          145    i.HardFault_Handler  stm32f4xx_it.o
    0x0800171c   0x000000a2   Code   RO         3282    i.I2C_OLED_Init     oled.o
    0x080017be   0x00000002   PAD
    0x080017c0   0x0000004c   Code   RO         3396    i.IIC_Init          myiic.o
    0x0800180c   0x0000006c   Code   RO         3399    i.IIC_Send_Byte     myiic.o
    0x08001878   0x0000004c   Code   RO         3400    i.IIC_Start         myiic.o
    0x080018c4   0x0000004c   Code   RO         3401    i.IIC_Stop          myiic.o
    0x08001910   0x00000060   Code   RO         3402    i.IIC_Wait_Ack      myiic.o
    0x08001970   0x00000058   Code   RO         3146    i.Init_Hx711        hx711.o
    0x080019c8   0x00000044   Code   RO         3457    i.KEY_Init          key.o
    0x08001a0c   0x000000a4   Code   RO         3458    i.KEY_Scan          key.o
    0x08001ab0   0x000000bc   Code   RO         3261    i.LED_Init          led.o
    0x08001b6c   0x00000004   Code   RO          146    i.MemManage_Handler  stm32f4xx_it.o
    0x08001b70   0x00000002   Code   RO          147    i.NMI_Handler       stm32f4xx_it.o
    0x08001b72   0x00000002   PAD
    0x08001b74   0x00000078   Code   RO          293    i.NVIC_Init         misc.o
    0x08001bec   0x00000014   Code   RO          294    i.NVIC_PriorityGroupConfig  misc.o
    0x08001c00   0x0000003a   Code   RO         3283    i.OLED_All          oled.o
    0x08001c3a   0x0000000a   Code   RO         3284    i.OLED_CLC          oled.o
    0x08001c44   0x0000006c   Code   RO         3289    i.OLED_P8x16Ch      oled.o
    0x08001cb0   0x00000088   Code   RO         3290    i.OLED_P8x16Str     oled.o
    0x08001d38   0x00000028   Code   RO         3292    i.OLED_Set_Pos      oled.o
    0x08001d60   0x0000000e   Code   RO         3293    i.OLED_WRITE_COM    oled.o
    0x08001d6e   0x0000000e   Code   RO         3294    i.OLED_WRITE_dat    oled.o
    0x08001d7c   0x00000002   Code   RO          148    i.PendSV_Handler    stm32f4xx_it.o
    0x08001d7e   0x00000002   PAD
    0x08001d80   0x00000020   Code   RO         1277    i.RCC_AHB1PeriphClockCmd  stm32f4xx_rcc.o
    0x08001da0   0x00000020   Code   RO         1286    i.RCC_APB1PeriphClockCmd  stm32f4xx_rcc.o
    0x08001dc0   0x00000020   Code   RO         1289    i.RCC_APB2PeriphClockCmd  stm32f4xx_rcc.o
    0x08001de0   0x000000e8   Code   RO         1298    i.RCC_GetClocksFreq  stm32f4xx_rcc.o
    0x08001ec8   0x00000002   Code   RO          149    i.SVC_Handler       stm32f4xx_it.o
    0x08001eca   0x0000001e   Code   RO         3075    i.Send_data         usart.o
    0x08001ee8   0x000000ec   Code   RO            3    i.SetSysClock       system_stm32f4xx.o
    0x08001fd4   0x00000022   Code   RO         3295    i.Single_Write_OLED  oled.o
    0x08001ff6   0x00000028   Code   RO          297    i.SysTick_CLKSourceConfig  misc.o
    0x0800201e   0x00000002   Code   RO          150    i.SysTick_Handler   stm32f4xx_it.o
    0x08002020   0x00000068   Code   RO            5    i.SystemInit        system_stm32f4xx.o
    0x08002088   0x000000d0   Code   RO         3228    i.TIM3_IRQHandler   timer.o
    0x08002158   0x00000006   Code   RO         2036    i.TIM_ClearITPendingBit  stm32f4xx_tim.o
    0x0800215e   0x00000018   Code   RO         2041    i.TIM_Cmd           stm32f4xx_tim.o
    0x08002176   0x00000022   Code   RO         2062    i.TIM_GetITStatus   stm32f4xx_tim.o
    0x08002198   0x00000012   Code   RO         2066    i.TIM_ITConfig      stm32f4xx_tim.o
    0x080021aa   0x00000002   PAD
    0x080021ac   0x00000084   Code   RO         2113    i.TIM_TimeBaseInit  stm32f4xx_tim.o
    0x08002230   0x00000054   Code   RO         3229    i.Timer_My_Init     timer.o
    0x08002284   0x000000a0   Code   RO         3076    i.USART1_IRQHandler  usart.o
    0x08002324   0x0000009c   Code   RO         3077    i.USART3_IRQHandler  usart.o
    0x080023c0   0x00000018   Code   RO         2591    i.USART_Cmd         stm32f4xx_usart.o
    0x080023d8   0x0000001a   Code   RO         2594    i.USART_GetFlagStatus  stm32f4xx_usart.o
    0x080023f2   0x00000054   Code   RO         2595    i.USART_GetITStatus  stm32f4xx_usart.o
    0x08002446   0x0000004a   Code   RO         2597    i.USART_ITConfig    stm32f4xx_usart.o
    0x08002490   0x000000d4   Code   RO         2598    i.USART_Init        stm32f4xx_usart.o
    0x08002564   0x0000000a   Code   RO         2605    i.USART_ReceiveData  stm32f4xx_usart.o
    0x0800256e   0x00000008   Code   RO         2608    i.USART_SendData    stm32f4xx_usart.o
    0x08002576   0x00000004   Code   RO          151    i.UsageFault_Handler  stm32f4xx_it.o
    0x0800257a   0x00000030   Code   RO         3616    i.__ARM_fpclassify  m_wm.l(fpclassify.o)
    0x080025aa   0x00000006   Code   RO         3078    i._sys_exit         usart.o
    0x080025b0   0x0000003c   Code   RO         3017    i.delay_init        delay.o
    0x080025ec   0x00000038   Code   RO         3018    i.delay_ms          delay.o
    0x08002624   0x0000004c   Code   RO         3019    i.delay_us          delay.o
    0x08002670   0x0000004c   Code   RO         3020    i.delay_xms         delay.o
    0x080026bc   0x0000001c   Code   RO         3079    i.fputc             usart.o
    0x080026d8   0x00000a30   Code   RO          219    i.main              main.o
    0x08003108   0x000000ac   Code   RO         3080    i.uart3_init        usart.o
    0x080031b4   0x000000b0   Code   RO         3081    i.uart_init         usart.o
    0x08003264   0x0000002c   Code   RO         3612    locale$$code        c_w.l(lc_numeric_c.o)
    0x08003290   0x000002b0   Code   RO         3522    x$fpl$ddiv          fz_wm.l(ddiv.o)
    0x08003540   0x0000005e   Code   RO         3525    x$fpl$dfix          fz_wm.l(dfix.o)
    0x0800359e   0x0000002e   Code   RO         3530    x$fpl$dflt          fz_wm.l(dflt_clz.o)
    0x080035cc   0x0000009c   Code   RO         3549    x$fpl$dnaninf       fz_wm.l(dnaninf.o)
    0x08003668   0x0000000c   Code   RO         3551    x$fpl$dretinf       fz_wm.l(dretinf.o)
    0x08003674   0x00000056   Code   RO         3535    x$fpl$f2d           fz_wm.l(f2d.o)
    0x080036ca   0x0000008c   Code   RO         3553    x$fpl$fnaninf       fz_wm.l(fnaninf.o)
    0x08003756   0x0000000a   Code   RO         3684    x$fpl$fpinit        fz_wm.l(fpinit.o)
    0x08003760   0x00000004   Code   RO         3537    x$fpl$printf1       fz_wm.l(printf1.o)
    0x08003764   0x00000000   Code   RO         3555    x$fpl$usenofp       fz_wm.l(usenofp.o)
    0x08003764   0x00000c18   Data   RO         3297    .constdata          oled.o
    0x0800437c   0x00000094   Data   RO         3583    .constdata          c_w.l(bigflt0.o)
    0x08004410   0x0000008d   Data   RO          220    .conststring        main.o
    0x0800449d   0x00000003   PAD
    0x080044a0   0x00000020   Data   RO         3754    Region$$Table       anon$$obj.o
    0x080044c0   0x0000001c   Data   RO         3611    locale$$data        c_w.l(lc_numeric_c.o)


    Execution Region RW_IRAM1 (Base: 0x20000000, Size: 0x00000de0, Max: 0x00020000, ABSOLUTE)

    Base Addr    Size         Type   Attr      Idx    E Section Name        Object

    0x20000000   0x00000008   Data   RW          221    .data               main.o
    0x20000008   0x00000010   Data   RW         1330    .data               stm32f4xx_rcc.o
    0x20000018   0x00000004   Data   RW         3021    .data               delay.o
    0x2000001c   0x0000000c   Data   RW         3083    .data               usart.o
    0x20000028   0x00000010   Data   RW         3147    .data               hx711.o
    0x20000038   0x00000014   Data   RW         3231    .data               timer.o
    0x2000004c   0x00000001   Data   RW         3459    .data               key.o
    0x2000004d   0x00000003   PAD
    0x20000050   0x00000190   Zero   RW         3082    .bss                usart.o
    0x200001e0   0x000005a0   Zero   RW         3230    .bss                timer.o
    0x20000780   0x00000060   Zero   RW         3619    .bss                c_w.l(libspace.o)
    0x200007e0   0x00000200   Zero   RW          285    HEAP                startup_stm32f40_41xxx.o
    0x200009e0   0x00000400   Zero   RW          284    STACK               startup_stm32f40_41xxx.o


==============================================================================

Image component sizes


      Code (inc. data)   RO Data    RW Data    ZI Data      Debug   Object Name

       268         16          0          4          0       2431   delay.o
       672         98          0         16          0       3270   hx711.o
       232         22          0          1          0       1198   key.o
       188         12          0          0          0        595   led.o
      2752        438        141          8          0       2969   main.o
       180         24          0          0          0     231173   misc.o
       432         66          0          0          0       2889   myiic.o
       576         12       3096          0          0       6628   oled.o
        64         26        392          0       1536        828   startup_stm32f40_41xxx.o
       240          0          0          0          0       3439   stm32f4xx_gpio.o
        26          0          0          0          0       3986   stm32f4xx_it.o
       328         36          0         16          0       4559   stm32f4xx_rcc.o
       214         28          0          0          0       3602   stm32f4xx_tim.o
       438          8          0          0          0       5333   stm32f4xx_usart.o
       340         32          0          0          0     281333   system_stm32f4xx.o
       292         40          0         20       1440       2094   timer.o
       728         60          0         12        400       6223   usart.o

    ----------------------------------------------------------------------
      7978        918       3664         80       3376     562550   Object Totals
         0          0         32          0          0          0   (incl. Generated)
         8          0          3          3          0          0   (incl. Padding)

    ----------------------------------------------------------------------

      Code (inc. data)   RO Data    RW Data    ZI Data      Debug   Library Member Name

         8          0          0          0          0         68   __main.o
       184          0          0          0          0         84   __printf_ss.o
         0          0          0          0          0          0   __rtentry.o
        12          0          0          0          0          0   __rtentry2.o
         6          0          0          0          0          0   __rtentry4.o
        52          8          0          0          0          0   __scatter.o
        26          0          0          0          0          0   __scatter_copy.o
        28          0          0          0          0          0   __scatter_zi.o
        48          6          0          0          0         96   _printf_char_common.o
        36          4          0          0          0         80   _printf_char_file.o
         6          0          0          0          0          0   _printf_d.o
       120         16          0          0          0         92   _printf_dec.o
         6          0          0          0          0          0   _printf_f.o
      1050          0          0          0          0        216   _printf_fp_dec.o
       128         16          0          0          0         84   _printf_fp_infnan.o
       178          0          0          0          0         88   _printf_intcommon.o
         0          0          0          0          0          0   _printf_percent.o
         4          0          0          0          0          0   _printf_percent_end.o
       220          4        148          0          0         96   bigflt0.o
      1910        128          0          0          0        672   btod.o
        12          0          0          0          0         72   exit.o
         8          0          0          0          0         68   ferror.o
         6          0          0          0          0        152   heapauxi.o
        44         10         28          0          0         76   lc_numeric_c.o
         2          0          0          0          0          0   libinit.o
        22          0          0          0          0          0   libinit2.o
         2          0          0          0          0          0   libshutdown.o
         2          0          0          0          0          0   libshutdown2.o
         8          4          0          0         96         68   libspace.o
       138          0          0          0          0         80   lludiv10.o
        24          4          0          0          0         84   noretval__2printf.o
         8          4          0          0          0         68   rt_locale_intlibspace.o
         2          0          0          0          0          0   rtexit.o
        10          0          0          0          0          0   rtexit2.o
       128          0          0          0          0         68   strcmpv7m.o
        74          0          0          0          0         80   sys_stackheap_outer.o
         2          0          0          0          0         68   use_no_semi.o
         2          0          0          0          0         68   use_no_semi_2.o
       688        140          0          0          0        256   ddiv.o
        94          4          0          0          0        140   dfix.o
        46          0          0          0          0        116   dflt_clz.o
       156          4          0          0          0        140   dnaninf.o
        12          0          0          0          0        116   dretinf.o
        86          4          0          0          0        132   f2d.o
       140          4          0          0          0        132   fnaninf.o
        10          0          0          0          0        116   fpinit.o
         4          0          0          0          0        116   printf1.o
         0          0          0          0          0          0   usenofp.o
        48          0          0          0          0        124   fpclassify.o

    ----------------------------------------------------------------------
      5810        360        176          0         96       3916   Library Totals
        10          0          0          0          0          0   (incl. Padding)

    ----------------------------------------------------------------------

      Code (inc. data)   RO Data    RW Data    ZI Data      Debug   Library Name

      4516        204        176          0         96       2528   c_w.l
      1236        156          0          0          0       1264   fz_wm.l
        48          0          0          0          0        124   m_wm.l

    ----------------------------------------------------------------------
      5810        360        176          0         96       3916   Library Totals

    ----------------------------------------------------------------------

==============================================================================


      Code (inc. data)   RO Data    RW Data    ZI Data      Debug   

     13788       1278       3840         80       3472     557514   Grand Totals
     13788       1278       3840         80       3472     557514   ELF Image Totals
     13788       1278       3840         80          0          0   ROM Totals

==============================================================================

    Total RO  Size (Code + RO Data)                17628 (  17.21kB)
    Total RW  Size (RW Data + ZI Data)              3552 (   3.47kB)
    Total ROM Size (Code + RO Data + RW Data)      17708 (  17.29kB)

==============================================================================

